:0400000058EF00F0C5
:100008005B82FACF01F0FBCF02F0D9CF03F0DACF51
:1000180004F0F2AC12EF00F014EF00F04EEF00F035
:100028009DA819EF00F01BEF00F031EF00F09EA83B
:1000380020EF00F022EF00F031EF00F002D82FEFB0
:1000480000F00500FA6E0001FD51FD6EFE51FE6ED6
:10005800FF6AFA5012004EEF00F09DAA36EF00F04A
:1000680038EF00F04EEF00F09EAA3DEF00F03FEFB2
:1000780000F04EEF00F002D84CEF00F00500FA6EE9
:1000880001016E51FD6E6F51FE6EFF6AFA5012004B
:100098004EEF00F004C0DAFF03C0D9FF02C0FBFF37
:0C00A80001C0FAFF5B9211006DEF32F016
:101000000076674E673E675857365A6A67865C08AF
:10101000680068F867F067E867E067D8675E67446C
:101020005F44697374616E7A203D20252E32666DAF
:101030006D200D0A00494E46004E414E00696E6615
:09104000006E616E006C66000098
:10104A00890E166E290EF9EC2EF0226E890E166E96
:10105A00010E176E290E6BEC2FF0880E166E000E1D
:10106A00176E290E6BEC2FF0C00E166E290EF9ECD6
:10107A002EF0226EF80E166E290E00EC2EF016C017
:10108A0020F017C021F0040E0001A96FA90E166EF8
:10109A00000E176E000E196E010E186E290E98ECCE
:1010AA0030F0580E166E010E176E000E196E040EF1
:1010BA00186E290E3DEC31F0200E166E290E00EC4A
:1010CA002EF016C020F017C021F0280E166E290E39
:1010DA0000EC2EF016C020F017C021F0440E166E58
:1010EA00290E00EC2EF016C020F017C021F0640E75
:1010FA00166E290E00EC2EF016C020F017C021F053
:10110A00640E166E290E00EC2EF016C020F017C0E1
:10111A0021F0010E166E290EF9EC2EF0010E166E54
:10112A00290EF9EC2EF0500E166E290EF9EC2EF05F
:10113A00460E166E290EF9EC2EF0500E166E290E7A
:10114A00F9EC2EF0500E166E290EF9EC2EF0510E17
:10115A00166E290E00EC2EF016C020F017C021F0F2
:10116A00010E166E290EF9EC2EF0500E166E290E8F
:10117A00F9EC2EF0510E166E290E00EC2EF016C068
:10118A0020F017C021F0700E166E290EF9EC2EF021
:10119A00710E166E290E00EC2EF016C020F017C044
:1011AA0021F0800E166E010E176E290E6BEC2FF0D1
:1011BA00FF0E166E010E176E290E6BEC2FF0000E45
:1011CA00166E000E176E290E6BEC2FF0910E166E2E
:1011DA00290EF9EC2EF0000E166E010E176E290E6E
:1011EA006BEC2FF0FF0E166E000E176E290E6BECCD
:1011FA002FF0800E166E000E176E290E6BEC2FF074
:10120A00440E0001A96F000EAA6F200EAB6FA90E43
:10121A00166E000E176E000E196E030E186E290E4A
:10122A0098EC30F0600E166E290EF9EC2EF0226E54
:10123A00600E166E000E176E290E6BEC2FF0600E04
:10124A00166E290EF9EC2EF0226E600E166E000E46
:10125A00176E290E6BEC2FF0600E166E290EF9EC44
:10126A002EF0226E600E166E020E176E290E6BECB1
:10127A002FF0600E166E290EF9EC2EF0226E600E1B
:10128A00166E120E176E290E6BEC2FF0440E00012B
:10129A00A96F000EAA6F200EAB6FA90E166E000E74
:1012AA00176E000E196E030E186E290E98EC30F0A8
:1012BA00010E166EFF0E176E290E6BEC2FF08A0EBA
:1012CA00166E290E176E290E6BEC2FF0800E166E15
:1012DA00010E176E290E6BEC2FF0FF0E166E010E23
:1012EA00176E290E6BEC2FF0000E166E000E176E9D
:1012FA00290E6BEC2FF0FF0E166E060E176E290ED6
:10130A006BEC2FF0830E166E290EF9EC2EF0830E7D
:10131A00166E050E176E290E6BEC2FF0FF0E166E69
:10132A00070E176E290E6BEC2FF0810E166E010E4A
:10133A00176E290E6BEC2FF0800E166E010E176ECB
:10134A00290E6BEC2FF0940E166E020E176E290EF4
:10135A006BEC2FF0830E166E000E176E290E6BECD7
:10136A002FF0830E166E290EF9EC2EF0830E166EF0
:10137A00010E176E290E6BEC2FF0900E166E290EC9
:10138A00F9EC2EF0940E166E7B0E176E290E6BEC8E
:10139A002FF0830E166E000E176E290E6BEC2FF0CF
:1013AA00830E166E290EF9EC2EF0830E166E010EC0
:1013BA00176E290E6BEC2FF0900E166E290EF9ECB3
:1013CA002EF0940E166E770E176E290E6BEC2FF018
:1013DA00830E166E000E176E290E6BEC2FF0830E1D
:1013EA00166E290EF9EC2EF0830E166E010E176E8C
:1013FA00290E6BEC2FF0900E0001A96FA90E166E44
:10140A00000E176E000E196E010E186E290E98EC5A
:10141A0030F0580E166E010E176E000E196E040E7D
:10142A00186E290E3DEC31F0940E166E780E176E7A
:10143A00290E6BEC2FF0830E166E000E176E290E16
:10144A006BEC2FF0830E166E290EF9EC2EF0830E3C
:10145A00166E010E176E290E6BEC2FF0900E00011E
:10146A00A96FA90E166E000E176E000E196E010EE8
:10147A00186E290E98EC30F0580E166E010E176E83
:10148A00000E196E040E186E290E3DEC31F0940E02
:10149A00166E790E176E290E6BEC2FF0830E166EF0
:1014AA00000E176E290E6BEC2FF0830E166E290EA6
:1014BA00F9EC2EF0830E166E010E176E290E6BECE8
:1014CA002FF0900E0001A96FA90E166E000E176E6E
:1014DA00000E196E010E186E290E98EC30F0580E97
:1014EA00166E010E176E000E196E040E186E290E76
:1014FA003DEC31F0940E166E7A0E176E290E6BECD7
:10150A002FF0830E166E000E176E290E6BEC2FF05D
:10151A00830E166E290EF9EC2EF0830E166E010E4E
:10152A00176E290E6BEC2FF0900E0001A96FA90E11
:10153A00166E000E176E000E196E010E186E290E29
:10154A0098EC30F0580E166E010E176E000E196EDA
:10155A00040E186E290E3DEC31F0810E166E000E47
:10156A00176E290E6BEC2FF0FF0E166E060E176E15
:10157A00290E6BEC2FF0830E166E290EF9EC2EF065
:10158A00830E166E010E176E290E6BEC2FF0FF0EEE
:10159A00166E010E176E290E6BEC2FF0000E166EEA
:1015AA00010E176E290E6BEC2FF0FF0E166E000E51
:1015BA00176E290E6BEC2FF0800E166E000E176E4A
:1015CA00290E6BEC2FF0C00E166E290EF9EC2EF0D8
:1015DA00C20E166E290EF9EC2EF0800E166E010E52
:1015EA00176E290E6BEC2FF0FF0E166E010E176E9A
:1015FA00290E6BEC2FF0000E166E000E176E290ED8
:10160A006BEC2FF0FF0E166E060E176E290E6BECA2
:10161A002FF0830E166E290EF9EC2EF0830E166E3D
:10162A00050E176E290E6BEC2FF0FF0E166E070EC5
:10163A00176E290E6BEC2FF0810E166E010E176EC7
:10164A00290E6BEC2FF0800E166E010E176E290E06
:10165A006BEC2FF0940E166E6B0E176E290E6BEC58
:10166A002FF0830E166E000E176E290E6BEC2FF0FC
:10167A00830E166E290EF9EC2EF0830E166E010EED
:10168A00176E290E6BEC2FF0900E0001A96FA90EB0
:10169A00166E000E176E000E196E010E186E290EC8
:1016AA0098EC30F0580E166E010E176E000E196E79
:1016BA00040E186E290E3DEC31F0940E166E240EAF
:1016CA00176E290E6BEC2FF0830E166E000E176E36
:1016DA00290E6BEC2FF0830E166E290EF9EC2EF004
:1016EA00830E166E010E176E290E6BEC2FF0900EFC
:1016FA000001A96FA90E166E000E176E000E196E64
:10170A00010E186E290E98EC30F0580E166E010E66
:10171A00176E000E196E040E186E290E3DEC31F08C
:10172A00940E166E250E176E290E6BEC2FF0830E93
:10173A00166E000E176E290E6BEC2FF0830E166EC6
:10174A00290EF9EC2EF0830E166E010E176E290E75
:10175A006BEC2FF0900E0001A96FA90E166E000E09
:10176A00176E000E196E010E186E290E98EC30F0E5
:10177A00580E166E010E176E000E196E040E186EB4
:10178A00290E3DEC31F0810E166E000E176E290EF1
:10179A006BEC2FF0FF0E166E060E176E290E6BEC11
:1017AA002FF0830E166E290EF9EC2EF0830E166EAC
:1017BA00010E176E290E6BEC2FF0FF0E166E010E3E
:1017CA00176E290E6BEC2FF0000E166E010E176EB7
:1017DA00290E6BEC2FF0FF0E166E000E176E290EF7
:1017EA006BEC2FF0800E166E000E176E290E6BEC46
:1017FA002FF0FF0E166E010E176E290E6BEC2FF0EE
:10180A004F0E166E000E176E290E6BEC2FF04E0E51
:10181A00166E2C0E176E290E6BEC2FF0FF0E166E3D
:10182A00000E176E290E6BEC2FF0B60E166EB40E64
:10183A00176E290E6BEC2FF0B00E0001A96F000E87
:10184A00AA6FF00EAB6FE70EAC6F3F0EAD6F000ED6
:10185A00AE6F000EAF6FA90E166E000E176E000E59
:10186A00196E070E186E290E98EC30F0B00E0001B2
:10187A00A96FA90E166E000E176E000E196E010ED4
:10188A00186E290E98EC30F0580E166E010E176E6F
:10189A00000E196E060E186E290E3DEC31F0FF0E81
:1018AA00166E010E176E290E6BEC2FF0000E166ED7
:1018BA00000E176E290E6BEC2FF0FF0E166E000E3F
:1018CA00176E290E6BEC2FF0090E166E000E176EAE
:1018DA00290E6BEC2FF0100E166E000E176E290EE5
:1018EA006BEC2FF0110E166E000E176E290E6BECB4
:1018FA002FF0240E166E010E176E290E6BEC2FF0C8
:10190A00250E166EFF0E176E290E6BEC2FF0750E54
:10191A00166E000E176E290E6BEC2FF0FF0E166E68
:10192A00010E176E290E6BEC2FF04E0E166E2C0E52
:10193A00176E290E6BEC2FF0480E166E000E176EFE
:10194A00290E6BEC2FF0300E166E200E176E290E34
:10195A006BEC2FF0FF0E166E000E176E290E6BEC55
:10196A002FF0300E166E090E176E290E6BEC2FF043
:10197A00540E166E000E176E290E6BEC2FF0310EF8
:10198A00166E040E176E290E6BEC2FF0320E166EC1
:10199A00030E176E290E6BEC2FF0400E166E830E97
:1019AA00176E290E6BEC2FF0460E166E250E176E6B
:1019BA00290E6BEC2FF0600E166E000E176E290EB4
:1019CA006BEC2FF0270E166E000E176E290E6BECBD
:1019DA002FF0500E166E060E176E290E6BEC2FF0B6
:1019EA00510E166E000E176E290E6BEC2FF0520E6A
:1019FA00166E960E176E290E6BEC2FF0560E166E9B
:101A0A00080E176E290E6BEC2FF0570E166E300E5D
:101A1A00176E290E6BEC2FF0610E166E000E176E04
:101A2A00290E6BEC2FF0620E166E000E176E290E41
:101A3A006BEC2FF0640E166E000E176E290E6BEC0F
:101A4A002FF0650E166E000E176E290E6BEC2FF036
:101A5A00660E166EA00E176E290E6BEC2FF0FF0E97
:101A6A00166E010E176E290E6BEC2FF0220E166EF3
:101A7A00320E176E290E6BEC2FF0470E166E140EEF
:101A8A00176E290E6BEC2FF0490E166EFF0E176EAD
:101A9A00290E6BEC2FF04A0E166E000E176E290EE9
:101AAA006BEC2FF0FF0E166E000E176E290E6BEC04
:101ABA002FF07A0E166E0A0E176E290E6BEC2FF0A7
:101ACA007B0E166E000E176E290E6BEC2FF0780E39
:101ADA00166E210E176E290E6BEC2FF0FF0E166E86
:101AEA00010E176E290E6BEC2FF0230E166E340EB4
:101AFA00176E290E6BEC2FF0420E166E000E176E43
:101B0A00290E6BEC2FF0440E166EFF0E176E290E7F
:101B1A006BEC2FF0450E166E260E176E290E6BEC27
:101B2A002FF0460E166E050E176E290E6BEC2FF06F
:101B3A00400E166E400E176E290E6BEC2FF00E0E2D
:101B4A00166E060E176E290E6BEC2FF0200E166E0F
:101B5A001A0E176E290E6BEC2FF0430E166E400EFE
:101B6A00176E290E6BEC2FF0FF0E166E000E176E15
:101B7A00290E6BEC2FF0340E166E030E176E290E1B
:101B8A006BEC2FF0350E166E440E176E290E6BECA9
:101B9A002FF0FF0E166E010E176E290E6BEC2FF04A
:101BAA00310E166E040E176E290E6BEC2FF04B0ECB
:101BBA00166E090E176E290E6BEC2FF04C0E166E70
:101BCA00050E176E290E6BEC2FF04D0E166E040ED5
:101BDA00176E290E6BEC2FF0FF0E166E000E176EA5
:101BEA00290E6BEC2FF0440E166E000E176E290E9E
:101BFA006BEC2FF0450E166E200E176E290E6BEC4D
:101C0A002FF0470E166E080E176E290E6BEC2FF08A
:101C1A00480E166E280E176E290E6BEC2FF0670E03
:101C2A00166E000E176E290E6BEC2FF0700E166EE4
:101C3A00040E176E290E6BEC2FF0710E166E010E44
:101C4A00176E290E6BEC2FF0720E166EFE0E176EC3
:101C5A00290E6BEC2FF0760E166E000E176E290EFB
:101C6A006BEC2FF0770E166E000E176E290E6BECCA
:101C7A002FF0FF0E166E010E176E290E6BEC2FF069
:101C8A000D0E166E010E176E290E6BEC2FF0FF0E5D
:101C9A00166E000E176E290E6BEC2FF0800E166E64
:101CAA00010E176E290E6BEC2FF0010E166EF80E50
:101CBA00176E290E6BEC2FF0FF0E166E010E176EC3
:101CCA00290E6BEC2FF08E0E166E010E176E290E72
:101CDA006BEC2FF0000E166E010E176E290E6BECD0
:101CEA002FF0FF0E166E000E176E290E6BEC2FF0FA
:101CFA00800E166E000E176E290E6BEC2FF00A0E70
:101D0A00166E040E176E290E6BEC2FF0840E166EEB
:101D1A00290EF9EC2EF0840E166E010E176E290E9E
:101D2A006BEC2FF00B0E166E010E176E290E6BEC74
:101D3A002FF00B0E166E000E176E290E6BEC2FF09D
:101D4A00130E166E290EF9EC2EF0FF0E166E010E0A
:101D5A00176E290E6BEC2FF0840E166E290E00EC0E
:101D6A002EF016C020F017C021F0FF0E166E000EDE
:101D7A00176E290E6BEC2FF0F80E166E290E00EC7A
:101D8A002EF016C020F017C021F0040E0001A96F32
:101D9A00A90E166E000E176E000E196E010E186E41
:101DAA00290E98EC30F0580E166E010E176E000EC2
:101DBA00196E040E186E290E3DEC31F0200E166EC7
:101DCA00290E00EC2EF016C020F017C021F0280EC4
:101DDA00166E290E00EC2EF016C020F017C021F066
:101DEA00440E166E290E00EC2EF016C020F017C015
:101DFA0021F0640E166E290E00EC2EF016C020F0AB
:101E0A0017C021F0640E166E290E00EC2EF016C0D3
:101E1A0020F017C021F0010E166E290EF9EC2EF0F3
:101E2A00226E010E166E290EF9EC2EF0226E500E5D
:101E3A00166E290EF9EC2EF0226E460E166E290E3B
:101E4A00F9EC2EF0226E500E166E290EF9EC2EF0D9
:101E5A00226E500E166E290EF9EC2EF0226E510EDD
:101E6A00166E290E00EC2EF016C020F017C021F0D5
:101E7A00010E166E290EF9EC2EF0226E500E166E19
:101E8A00290EF9EC2EF0226E510E166E290E00EC78
:101E9A002EF016C020F017C021F0700E166E290E13
:101EAA00F9EC2EF0226E710E166E290E00EC2EF051
:101EBA0016C020F017C021F0090E166E290EF9EC93
:101ECA002EF0226E010E166E290EF9EC2EF0226EFD
:101EDA00010E166E290EF9EC2EF0226E010E166E08
:101EEA00E80E176E290E6BEC2FF0010E166E290EF6
:101EFA00F9EC2EF0226E500E166E290EF9EC2EF029
:101F0A00226E460E166E290EF9EC2EF0226E500E37
:101F1A00166E290EF9EC2EF0226E500E166E290E50
:101F2A00F9EC2EF0226E510E166E290E00EC2EF0F0
:101F3A0016C020F017C021F0010E166E290EF9EC1A
:101F4A002EF0226E500E166E290EF9EC2EF0226E2D
:101F5A00510E166E290E00EC2EF016C020F017C096
:101F6A0021F0700E166E290EF9EC2EF0226E710E0B
:101F7A000001A96F020EAA6F940EAB6FA90E166E1E
:101F8A00000E176E000E196E030E186E290E98ECCD
:101F9A0030F0010E166E290EF9EC2EF0500E166E68
:101FAA00290EF9EC2EF0700E166E290EF9EC2EF0B1
:101FBA00500E166E290EF9EC2EF0500E166E290EE2
:101FCA00F9EC2EF0510E166E290E00EC2EF016C00A
:101FDA0020F017C021F0010E166E290EF9EC2EF032
:101FEA00500E166E290EF9EC2EF0510E166E290EB1
:101FFA0000EC2EF016C020F017C021F0700E166EFD
:10200A00290EF9EC2EF0710E166E290E00EC2EF048
:10201A0016C020F017C021F0FF0E166E010E176EC3
:10202A00290E6BEC2FF04F0E166E000E176E290E4E
:10203A006BEC2FF04E0E166E2C0E176E290E6BECF3
:10204A002FF0FF0E166E000E176E290E6BEC2FF096
:10205A00B60E166EB40E176E290E6BEC2FF0800EAC
:10206A00166E000E176E290E6BEC2FF0010E166E0F
:10207A00010E176E290E6BEC2FF0000E166E410E34
:10208A00176E290E6BEC2FF0130E166E290EF9EC53
:10209A002EF0130E166E290EF9EC2EF0130E166E94
:1020AA00290EF9EC2EF0130E166E290EF9EC2EF00D
:1020BA00130E166E290EF9EC2EF0130E166E290E5B
:1020CA00F9EC2EF0130E166E290EF9EC2EF0130E03
:1020DA00166E290EF9EC2EF0130E166E290EF9EC77
:1020EA002EF0130E166E290EF9EC2EF0130E166E44
:1020FA00290EF9EC2EF0130E166E290EF9EC2EF0BD
:10210A00130E166E290EF9EC2EF0130E166E290E0A
:10211A00F9EC2EF00B0E166E010E176E290E6BECF3
:10212A002FF00B0E166E000E176E290E6BEC2FF0A9
:10213A00130E166E290EF9EC2EF0000E166E000E16
:10214A00176E290E6BEC2FF0010E166E020E176E2B
:10215A00290E6BEC2FF0000E166E010E176E290E6B
:10216A006BEC2FF0130E166E290EF9EC2EF0130EEF
:10217A00166E290EF9EC2EF0130E166E290EF9ECD6
:10218A002EF0130E166E290EF9EC2EF00B0E166EAB
:10219A00010E176E290E6BEC2FF00B0E166E000E49
:1021AA00176E290E6BEC2FF0130E166E290EF9EC32
:1021BA002EF0000E166E000E176E290E6BEC2FF025
:1021CA00010E166EE80E176E290E6BEC2FF0B00E8C
:1021DA000001A96F070EAA6F000EAB6F000EAC6F5D
:1021EA00000EAD6F000EAE6F000EAF6FA90E166E29
:1021FA00000E176E000E196E070E186E290E98EC57
:10220A0030F0B00E0001A96FA90E166E000E176EFF
:10221A00000E196E010E186E290E98EC30F0580E49
:10222A00166E010E176E000E196E060E186E290E26
:10223A003DEC31F0010E166EC00E176E290E6BECD6
:10224A002FF0800E166E010E176E290E6BEC2FF012
:10225A00FF0E166E010E176E290E6BEC2FF0000E94
:10226A00166E000E176E290E6BEC2FF0910E166E7D
:10227A003C0E176E290E6BEC2FF0000E166E010E37
:10228A00176E290E6BEC2FF0FF0E166E000E176EEE
:10229A00290E6BEC2FF0800E166E000E176E290EAB
:1022AA006BEC2FF0000E166E010E176E290E6BECFA
:1022BA002FF0000E166E290EF9EC2EF0226E130E78
:1022CA00166E290EF9EC2EF0226E130E166E290EDA
:1022DA00F9EC2EF0226E130E166E290EF9EC2EF082
:1022EA00226E130E166E290EF9EC2EF0226E130EC4
:1022FA00166E290EF9EC2EF0226E130E166E290EAA
:10230A00F9EC2EF0226E130E166E290EF9EC2EF051
:10231A00226E130E166E290EF9EC2EF0226E130E93
:10232A00166E290EF9EC2EF0226E130E166E290E79
:10233A00F9EC2EF0226E130E166E290EF9EC2EF021
:10234A00226E130E166E290EF9EC2EF0226E130E63
:10235A00166E290EF9EC2EF0226E130E166E290E49
:10236A00F9EC2EF0226E130E166E290EF9EC2EF0F1
:10237A00226E130E166E290EF9EC2EF0226E130E33
:10238A00166E290EF9EC2EF0226E130E166E290E19
:10239A00F9EC2EF0226E130E166E290EF9EC2EF0C1
:1023AA00226E130E166E290EF9EC2EF0226E130E03
:1023BA00166E290EF9EC2EF0226E130E166E290EE9
:1023CA00F9EC2EF0226E130E166E290EF9EC2EF091
:1023DA00226E130E166E290EF9EC2EF0226E140ED2
:1023EA000001A96FA90E166E000E176E000E196E67
:1023FA00010E186E290E98EC30F0580E166E010E6A
:10240A00176E000E196E0C0E186E290E3DEC31F087
:10241A00FF0E166E010E176E290E6BEC2FF0B60E1C
:10242A00166E290E00EC2EF016C020F017C021F00F
:10243A00FF0E166E000E176E290E6BEC2FF00B0EA8
:10244A00166E010E176E290E6BEC2FF00B0E166E20
:10245A00000E176E290E6BEC2FF0130E166E290E56
:10246A00F9EC2EF0FF0E166E010E176E290E6BECAC
:10247A002FF0B60E166E290E00EC2EF016C020F0C4
:10248A0017C021F0FF0E166E000E176E290E6BECA8
:10249A002FF0010E166EE80E176E290E6BEC2FF058
:1024AA00B00E0001A96F0F0EAA6F000EAB6F000EDF
:1024BA00AC6F000EAD6F000EAE6F000EAF6FA90EBF
:1024CA00166E000E176E000E196E070E186E290E84
:1024DA0098EC30F0010E166EC00E176E290E6BECDA
:1024EA002FF0800E166E010E176E290E6BEC2FF070
:1024FA00FF0E166E010E176E290E6BEC2FF0000EF2
:10250A00166E000E176E290E6BEC2FF0910E166EDA
:10251A003C0E176E290E6BEC2FF0000E166E010E94
:10252A00176E290E6BEC2FF0FF0E166E000E176E4B
:10253A00290E6BEC2FF0800E166E000E176E290E08
:10254A006BEC2FF0000E166E010E176E290E6BEC57
:10255A002FF0000E166E290EF9EC2EF0226E130ED5
:10256A00166E290EF9EC2EF0226E130E166E290E37
:10257A00F9EC2EF0226E130E166E290EF9EC2EF0DF
:10258A00226E130E166E290EF9EC2EF0226E130E21
:10259A00166E290EF9EC2EF0226E130E166E290E07
:1025AA00F9EC2EF0226E130E166E290EF9EC2EF0AF
:1025BA00226E130E166E290EF9EC2EF0226E130EF1
:1025CA00166E290EF9EC2EF0226E130E166E290ED7
:1025DA00F9EC2EF0226E130E166E290EF9EC2EF07F
:1025EA00226E130E166E290EF9EC2EF0226E130EC1
:1025FA00166E290EF9EC2EF0226E130E166E290EA7
:10260A00F9EC2EF0226E130E166E290EF9EC2EF04E
:10261A00226E130E166E290EF9EC2EF0226E130E90
:10262A00166E290EF9EC2EF0226E130E166E290E76
:10263A00F9EC2EF0226E130E166E290EF9EC2EF01E
:10264A00226E130E166E290EF9EC2EF0226E130E60
:10265A00166E290EF9EC2EF0226E130E166E290E46
:10266A00F9EC2EF0226E130E166E290EF9EC2EF0EE
:10267A00226E130E166E290EF9EC2EF0226E140E2F
:10268A000001A96FA90E166E000E176E000E196EC4
:10269A00010E186E290E98EC30F0580E166E010EC7
:1026AA00176E000E196E0C0E186E290E3DEC31F0E5
:1026BA00FF0E166E010E176E290E6BEC2FF0B60E7A
:1026CA00166E290E00EC2EF016C020F017C021F06D
:1026DA00FF0E166E000E176E290E6BEC2FF00B0E06
:1026EA00166E010E176E290E6BEC2FF00B0E166E7E
:1026FA00000E176E290E6BEC2FF0130E166E290EB4
:10270A00F9EC2EF0FF0E166E010E176E290E6BEC09
:10271A002FF0B60E166E290E00EC2EF016C020F021
:10272A0017C021F0FF0E166E000E176E290E6BEC05
:10273A002FF0010E166EE80E176E290E6BEC2FF0B5
:10274A00B00E0001A96F1F0EAA6F000EAB6F000E2C
:10275A00AC6F000EAD6F000EAE6F000EAF6FA90E1C
:10276A00166E000E176E000E196E070E186E290EE1
:10277A0098EC30F0010E166EC00E176E290E6BEC37
:10278A002FF0800E166E010E176E290E6BEC2FF0CD
:10279A00FF0E166E010E176E290E6BEC2FF0000E4F
:1027AA00166E000E176E290E6BEC2FF0910E166E38
:1027BA003C0E176E290E6BEC2FF0000E166E010EF2
:1027CA00176E290E6BEC2FF0FF0E166E000E176EA9
:1027DA00290E6BEC2FF0800E166E000E176E290E66
:1027EA006BEC2FF0000E166E010E176E290E6BECB5
:1027FA002FF0000E166E290EF9EC2EF0226E130E33
:10280A00166E290EF9EC2EF0226E130E166E290E94
:10281A00F9EC2EF0226E130E166E290EF9EC2EF03C
:10282A00226E130E166E290EF9EC2EF0226E130E7E
:10283A00166E290EF9EC2EF0226E130E166E290E64
:10284A00F9EC2EF0226E130E166E290EF9EC2EF00C
:10285A00226E130E166E290EF9EC2EF0226E130E4E
:10286A00166E290EF9EC2EF0226E130E166E290E34
:10287A00F9EC2EF0226E130E166E290EF9EC2EF0DC
:10288A00226E130E166E290EF9EC2EF0226E130E1E
:10289A00166E290EF9EC2EF0226E130E166E290E04
:1028AA00F9EC2EF0226E130E166E290EF9EC2EF0AC
:1028BA00226E130E166E290EF9EC2EF0226E130EEE
:1028CA00166E290EF9EC2EF0226E130E166E290ED4
:1028DA00F9EC2EF0226E130E166E290EF9EC2EF07C
:1028EA00226E130E166E290EF9EC2EF0226E130EBE
:1028FA00166E290EF9EC2EF0226E130E166E290EA4
:10290A00F9EC2EF0226E130E166E290EF9EC2EF04B
:10291A00226E130E166E290EF9EC2EF0226E140E8C
:10292A000001A96FA90E166E000E176E000E196E21
:10293A00010E186E290E98EC30F0580E166E010E24
:10294A00176E000E196E0C0E186E290E3DEC31F042
:10295A00FF0E166E010E176E290E6BEC2FF0B60ED7
:10296A00166E290E00EC2EF016C020F017C021F0CA
:10297A00FF0E166E000E176E290E6BEC2FF00B0E63
:10298A00166E010E176E290E6BEC2FF00B0E166EDB
:10299A00000E176E290E6BEC2FF0130E166E290E11
:1029AA00F9EC2EF0FF0E166E010E176E290E6BEC67
:1029BA002FF0B60E166E290E00EC2EF016C020F07F
:1029CA0017C021F0FF0E166E000E176E290E6BEC63
:1029DA002FF0010E166EE80E176E290E6BEC2FF013
:1029EA00010E166E010E176E290E6BEC2FF0000EFB
:1029FA00166E410E176E290E6BEC2FF0130E166E23
:102A0A00290EF9EC2EF0130E166E290EF9EC2EF0A3
:102A1A00130E166E290EF9EC2EF0130E166E290EF1
:102A2A00F9EC2EF0130E166E290EF9EC2EF0130E99
:102A3A00166E290EF9EC2EF0130E166E290EF9EC0D
:102A4A002EF0130E166E290EF9EC2EF0130E166EDA
:102A5A00290EF9EC2EF0130E166E290EF9EC2EF053
:102A6A00130E166E290EF9EC2EF0130E166E290EA1
:102A7A00F9EC2EF0130E166E290EF9EC2EF00B0E51
:102A8A00166E010E176E290E6BEC2FF00B0E166EDA
:102A9A00000E176E290E6BEC2FF0130E166E290E10
:102AAA00F9EC2EF0000E166E000E176E290E6BEC66
:102ABA002FF0FF0E166E010E176E290E6BEC2FF01B
:102ACA00000E166E000E176E290E6BEC2FF0FF0E1D
:102ADA00166E000E176E290E6BEC2FF0CB0E166ECB
:102AEA00290EF9EC2EF0FF0E166E010E176E290E46
:102AFA006BEC2FF0000E166E010E176E290E6BECA2
:102B0A002FF0FF0E166E000E176E290E6BEC2FF0CB
:102B1A00010E166E020E176E290E6BEC2FF0000EC8
:102B2A00166E010E176E290E6BEC2FF0000E166E44
:102B3A00290EF9EC2EF0130E166E290EF9EC2EF072
:102B4A00130E166E290EF9EC2EF0130E166E290EC0
:102B5A00F9EC2EF00B0E166E010E176E290E6BECA9
:102B6A002FF00B0E166E000E176E290E6BEC2FF05F
:102B7A00130E166E290EF9EC2EF0000E166E000ECC
:102B8A00176E290E6BEC2FF0FF0E166E010E176EE4
:102B9A00290E6BEC2FF0000E166E000E176E290E22
:102BAA006BEC2FF0FF0E166E000E176E290E6BECF3
:102BBA002FF0EE0E166E290EF9EC2EF0FF0E166EA1
:102BCA00010E176E290E6BEC2FF0000E166E010E19
:102BDA00176E290E6BEC2FF0FF0E166E000E176E95
:102BEA00290E6BEC2FF0010E166EE80E176E290EE9
:102BFA006BEC2FF0440E0001A96F000EAA6F200E95
:102C0A00AB6FA90E166E000E176E000E196E030E2C
:102C1A00186E290E98EC30F0060E1F6E130E1E6EFB
:102C2A00AE0EE82EFED71E2EFCD71F2EFAD71200A4
:102C3A00000E0001D46F000ED36F34C0E5F035C02A
:102C4A00E6F036C0E7F037C0E8F0E8BF31EF16F03B
:102C5A002FEF16F047EF16F0000ED46F010ED36F68
:102C6A00E5C005F0E6C006F0E7C007F0E8C008F0E6
:102C7A0001EC32F005C0E5F006C0E6F007C0E7F067
:102C8A0008C0E8F0000E0001EC6F000EEB6FA2C066
:102C9A00D7F0A3C0D8F0D351D411D8A457EF16F067
:102CAA0059EF16F060EF16F0A6A55EEF16F060EF8A
:102CBA0016F07AEF16F0D351D411D8A467EF16F0B4
:102CCA0069EF16F06FEF16F0000EBA6F2B0EB96FA0
:102CDA0073EF16F0000EBA6F2D0EB96FB9C008F176
:102CEA00EB4BEC2BD707D8A0D807E5C005F0E6C018
:102CFA0006F0E7C007F0E8C008F0FAEC29F005048E
:102D0A000610D8A48BEF16F08DEF16F0E4EF16F04C
:102D1A00BF0E396EFF0E3A6E38503B6E3C6A395020
:102D2A003B263A503C223C500AE11A0E3B5CD8A0A2
:102D3A00A1EF16F0A4EF16F0010EA5EF16F0000EA3
:102D4A000001BB6FBC6BBB51BC11D8B4AFEF16F01E
:102D5A00B1EF16F0BFEF16F0080EEB25056E010E67
:102D6A00EC21066E350E076E100E086E69EC30F017
:102D7A00CBEF16F0080EEB25056E010EEC21066E60
:102D8A003D0E076E100E086E69EC30F00001FD0E64
:102D9A00D727FF0ED82332C017F033C018F0080E19
:102DAA00196E010E1A6ED7C01BF0D8C01CF0E7ECE2
:102DBA002AF017C032F018C033F06FEF1CF0E5C0EC
:102DCA0005F0E6C006F0E7C007F0E8C008F0FAEC44
:102DDA0029F005500610D8A4F5EF16F0F7EF16F013
:102DEA004EEF17F0BF0E396EFF0E3A6E38503B6E3B
:102DFA003C6A39503B263A503C223C500AE11A0EB2
:102E0A003B5CD8A00BEF17F00EEF17F0010E0FEF97
:102E1A0017F0000E0001BD6FBE6BBD51BE11D8B4D4
:102E2A0019EF17F01BEF17F029EF17F0080EEB2533
:102E3A00056E010EEC21066E390E076E100E086E35
:102E4A0069EC30F035EF17F0080EEB25056E010E30
:102E5A00EC21066E410E076E100E086E69EC30F01A
:102E6A000001FD0ED727FF0ED82332C017F033C05A
:102E7A0018F0080E196E010E1A6ED7C01BF0D8C0D2
:102E8A001CF0E7EC2AF017C032F018C033F06FEFED
:102E9A001CF0000E0001ED6F000EEE6F800EEF6F5A
:102EAA003F0EF06F000EEA6F000EE96FE5C005F005
:102EBA00E6C006F0E7C007F0E8C008F0000E096EA9
:102ECA00000E0A6E000E0B6E000E0C6EC6EC2CF095
:102EDA00D8B072EF17F074EF17F0F7EF17F093EF1F
:102EEA0017F0EDC005F0EEC006F0EFC007F0F0C035
:102EFA0008F0000E096E000E0A6E200E0B6E410ECF
:102F0A000C6E20EC21F005C0EDF006C0EEF007C013
:102F1A00EFF008C0F0F00001E94BEA2BE5C01EF023
:102F2A00E6C01FF0E7C020F0E8C021F0000E096EED
:102F3A00000E0A6E200E0B6E410E0C6EEDC005F0EF
:102F4A00EEC006F0EFC007F0F0C008F020EC21F068
:102F5A0005C022F006C023F007C024F008C025F0FF
:102F6A0078EC29F0D8B0BCEF17F0BEEF17F076EF87
:102F7A0017F0DEEF17F0EDC005F0EEC006F0EFC077
:102F8A0007F0F0C008F0000E096E000E0A6E200E5F
:102F9A000B6E410E0C6E35EC23F005C0EDF006C049
:102FAA00EEF007C0EFF008C0F0F00001E907D8A082
:102FBA00EA07E5C01EF0E6C01FF0E7C020F0E8C04F
:102FCA0021F0EDC022F0EEC023F0EFC024F0F0C0F3
:102FDA0025F078EC29F0D8A0F5EF17F0F7EF17F005
:102FEA00C0EF17F038C00BF00C6A39EC30F00B5018
:102FFA000001DA6FDAC0D9F0670EDA19D8A408EF3F
:10300A0018F00AEF18F030EF18F0A451A511D8A45F
:10301A0011EF18F013EF18F017EF18F0000EA56F64
:10302A00010EA46FA5BF24EF18F0A55106E1A4056F
:10303A00D8B022EF18F024EF18F02AEF18F0000E9B
:10304A00D66F060ED56F39EF18F0A4C0D5F0A5C01B
:10305A00D6F039EF18F0A5BF35EF18F037EF18F0B2
:10306A0024EF18F02AEF18F0670EDA19D8A440EF07
:10307A0018F042EF18F071EF18F0EAAF50EF18F0BD
:10308A00FC0EE95DFF0EEA59D8A04EEF18F050EF9A
:10309A0018F06FEF18F0FF0E396EFF0E3A6ED5C0BA
:1030AA003BF0D6C03CF039503B263A503C22E9511D
:1030BA003B5C3C50800A3D6EEA51800A3D58D8A0DC
:1030CA0069EF18F06BEF18F06FEF18F0660ED96F12
:1030DA0071EF18F0650ED96FD5C0CBF0D6C0CCF021
:1030EA00670EDA19D8A47CEF18F07EEF18F08EEF8D
:1030FA0018F0660ED919D8A485EF18F087EF18F0E2
:10310A0090EF18F0EABF8EEF18F08CEF18F090EFFE
:10311A0018F0CB4BCC2B660ED919D8A497EF18F020
:10312A0099EF18F0B9EF18F0EABFA0EF18F09EEF88
:10313A0018F0ACEF18F0000EED6F000EEE6F800E77
:10314A00EF6F3F0EF06F000EEA6F000EE96F670E29
:10315A00DA19D8B4B3EF18F0B5EF18F0B9EF18F0E0
:10316A00E951CB27EA51CC23000EE46F000EE36F3E
:10317A00E5C0DBF0E6C0DCF0E7C0DDF0E8C0DEF079
:10318A00EDC0CDF0EEC0CEF0EFC0CFF0F0C0D0F081
:10319A004AEF19F0DBC005F0DCC006F0DDC007F02D
:1031AA00DEC008F0EDC009F0EEC00AF0EFC00BF087
:1031BA00F0C00CF035EC23F005C01EF006C01FF07D
:1031CA0007C020F008C021F045EC26F01EC0DFF051
:1031DA001FC0E0F020C0E1F021C0E2F0DFC005F03E
:1031EA00E0C006F0E1C007F0E2C008F0F5EC28F014
:1031FA0005C0D1F006C0D2F0DBC01EF0DCC01FF063
:10320A00DDC020F0DEC021F0EDC009F0EEC00AF00A
:10321A00EFC00BF0F0C00CF0DFC005F0E0C006F024
:10322A00E1C007F0E2C008F020EC21F005C022F06E
:10323A0006C023F007C024F008C025F01AEC31F0CC
:10324A001EC0DBF01FC0DCF020C0DDF021C0DEF0C4
:10325A00EDC005F0EEC006F0EFC007F0F0C008F0D0
:10326A00000E096E000E0A6E200E0B6E410E0C6ED9
:10327A0035EC23F005C0EDF006C0EEF007C0EFF024
:10328A0008C0F0F00001E34BE42BCB51E35DE451BD
:10329A00800A396ECC51800A3958D8A057EF19F0F4
:1032AA0059EF19F0CFEF18F0EDC005F0EEC006F0B7
:1032BA00EFC007F0F0C008F0000E096E000E0A6EAB
:1032CA00A00E0B6E400E0C6E20EC21F005C0DFF054
:1032DA0006C0E0F007C0E1F008C0E2F0DBC01EF073
:1032EA00DCC01FF0DDC020F0DEC021F0DFC022F01C
:1032FA00E0C023F0E1C024F0E2C025F078EC29F028
:10330A00D8B08AEF19F08CEF19F097EF19F0000E88
:10331A000001DF6F000EE06F000EE16F000EE26F3A
:10332A00C0EF19F0DBC005F0DCC006F0DDC007F025
:10333A00DEC008F0DFC009F0E0C00AF0E1C00BF01F
:10334A00E2C00CF0C6EC2CF0D8A0AEEF19F0B0EF4A
:10335A0019F0C0EF19F00001D1B1B6EF19F0B8EFCA
:10336A0019F0C0EF19F0000EDF6F000EE06F000ECB
:10337A00E16F000EE26FE5C005F0E6C006F0E7C0B7
:10338A0007F0E8C008F0DFC009F0E0C00AF0E1C0C9
:10339A000BF0E2C00CF070EC1CF005C0DBF006C0CC
:1033AA00DCF007C0DDF008C0DEF0DBC01EF0DCC0D8
:1033BA001FF0DDC020F0DEC021F0000E096E000E05
:1033CA000A6E200E0B6E410E0C6ECDC005F0CEC0FB
:1033DA0006F0CFC007F0D0C008F020EC21F005C0FD
:1033EA0022F006C023F007C024F008C025F078ECCC
:1033FA0029F0D8A003EF1AF005EF1AF02EEF1AF011
:10340A000001E94BEA2BCDC005F0CEC006F0CFC0D3
:10341A0007F0D0C008F0000E096E000E0A6E200EEA
:10342A000B6E410E0C6E20EC21F005C0CDF006C0EB
:10343A00CEF007C0CFF008C0D0F0660E0001D9194F
:10344A00D8A42AEF1AF02CEF1AF02EEF1AF0CB4B71
:10345A00CC2BCDC0EDF0CEC0EEF0CFC0EFF0D0C097
:10346A00F0F0650E0001D919D8B43EEF1AF040EF1A
:10347A001AF046EF1AF0E9C0C9F0EAC0CAF04AEFFA
:10348A001AF0000ECA6F000EC96F000EC86F000E48
:10349A00C76F000EC66F000EC56F000EE46F000EF8
:1034AA00E36F45EF1BF0DBC005F0DCC006F0DDC0C2
:1034BA0007F0DEC008F0EDC009F0EEC00AF0EFC078
:1034CA000BF0F0C00CF035EC23F005C01EF006C07E
:1034DA001FF007C020F008C021F045EC26F01EC0FE
:1034EA00DFF01FC0E0F020C0E1F021C0E2F0DFC051
:1034FA0005F0E0C006F0E1C007F0E2C008F0F5EC24
:10350A0028F005C0D1F006C0D2F00001A6B990EFAC
:10351A001AF092EF1AF0AFEF1AF0D151D211D8A4E3
:10352A0099EF1AF09BEF1AF0AFEF1AF0670EDA195B
:10353A00D8A4A2EF1AF0A4EF1AF0AFEF1AF0CABF9C
:10354A00ABEF1AF0A9EF1AF0AFEF1AF0C54BC62B82
:10355A00F9EF1AF0C751C811D8A4B6EF1AF0B8EFAC
:10356A001AF0E2EF1AF0CABFBFEF1AF0BDEF1AF075
:10357A00E2EF1AF0080EEB25D96E010EEC21DA6E95
:10358A002E0EDF6EEB4BEC2BD707D8A0D807000E18
:10359A00C86F010EC76FE2EF1AF0080EEB25D96E5D
:1035AA00010EEC21DA6E300EDF6EEB4BEC2BD707F7
:1035BA00D8A0D807C507D8A0C607C551C611D8A430
:1035CA00E9EF1AF0EBEF1AF0D2EF1AF0080EEB253A
:1035DA00D96E010EEC21DA6ED151300FDF6EEB4B52
:1035EA00EC2BD707D8A0D807DBC01EF0DCC01FF031
:1035FA00DDC020F0DEC021F0EDC009F0EEC00AF017
:10360A00EFC00BF0F0C00CF0DFC005F0E0C006F030
:10361A00E1C007F0E2C008F020EC21F005C022F07A
:10362A0006C023F007C024F008C025F01AEC31F0D8
:10363A001EC0DBF01FC0DCF020C0DDF021C0DEF0D0
:10364A00EDC005F0EEC006F0EFC007F0F0C008F0DC
:10365A00000E096E000E0A6E200E0B6E410E0C6EE5
:10366A0035EC23F005C0EDF006C0EEF007C0EFF030
:10367A0008C0F0F00001C907D8A0CA07E34BE42B41
:10368A00CB51E35DE451800A396ECC51800A395836
:10369A00D8B052EF1BF054EF1BF062EF1BF0ECBFF7
:1036AA0060EF1BF0EC5109E14B0EEB5DD8A060EF27
:1036BA001BF062EF1BF058EF1AF0C751C811D8A4DB
:1036CA0069EF1BF06BEF1BF07CEF1BF0A6A970EF04
:1036DA001BF072EF1BF07CEF1BF0080EEB25D96E86
:1036EA00010EEC21DA6E2E0EDF6EEB4BEC2B080E80
:1036FA00EB25D96E010EEC21DA6E000EDF6E650E37
:10370A00D919D8A48BEF1BF08DEF1BF05DEF1CF0DD
:10371A00000EE46F4F0EE36F080EE325D96E010E1B
:10372A00E421DA6E000EDF6E000ED46F000ED36F46
:10373A00EABFA4EF1BF0A2EF1BF0ACEF1BF0000EE8
:10374A00D46F010ED36FE96DEA1FD8B0EA2B000ED1
:10375A00D66F020ED56FDDEF1BF0E307D8A0E407A2
:10376A00080EE325D96E010EE421DA6EE9C005F0F0
:10377A00EAC006F0000E086E0A0E076E6EEC2CF018
:10378A000550300FDF6EE9C005F0EAC006F0000E02
:10379A00086E0A0E076E4AEC2BF005C0E9F006C067
:1037AA00EAF00001D507D8A0D607D707D8A0D807CE
:1037BA00E951EA11D8A4E4EF1BF0E6EF1BF0B2EFEF
:1037CA001BF0D6BFF3EF1BF0D65106E1D505D8B0F2
:1037DA00F1EF1BF0F3EF1BF0B2EF1BF0E307D8A0F9
:1037EA00E407D351D411D8A4FDEF1BF0FFEF1BF06F
:1037FA0005EF1CF0000EC06F2B0EBF6F09EF1CF017
:10380A00000EC06F2D0EBF6F080EE325D96E010E94
:10381A00E421DA6EBFC0DFFFD707D8A0D807E307D5
:10382A00D8A0E407BF0E396EFF0E3A6E38503B6ED1
:10383A003C6A39503B263A503C223C500AE11A0E67
:10384A003B5CD8A02BEF1CF02EEF1CF0010E2FEFE3
:10385A001CF0000EC36FC46BC351C411D8A438EF57
:10386A001CF03AEF1CF040EF1CF0000EC26F650E20
:10387A00C16F44EF1CF0000EC26F450EC16F080EF7
:10388A00E325D96E010EE421DA6EC1C0DFFFD70746
:10389A00D8A0D807080EEB25056E010EEC21066E9E
:1038AA00080EE325076E010EE421086E69EC30F07C
:1038BA0032C017F033C018F0080E196E010E1A6ED6
:1038CA00D7C01BF0D8C01CF0E7EC2AF017C032F0C2
:1038DA0018C033F012000850800B116E08500824EB
:1038EA00136E07AE7BEF1CF07DEF1CF07EEF1CF031
:1038FA0013801350D8B484EF1CF086EF1CF09BEFB2
:10390A001CF01328D8A48CEF1CF08EEF1CF096EF55
:10391A001CF0000E056E000E066E000E076E000EFD
:10392A00086E078E000E086EA3EF1CF0000E056EDF
:10393A00000E066E000E076E000E086E0C50800B0D
:10394A00126E11501218D8B4ADEF1CF0AFEF1CF084
:10395A00B0EF1CF0118C0C500C24126E0BAEB8EFA9
:10396A001CF0BAEF1CF0BBEF1CF012801250D8B456
:10397A00C1EF1CF0C3EF1CF0D8EF1CF01228D8A43A
:10398A00C9EF1CF0CBEF1CF0D3EF1CF0000E096E50
:10399A00000E0A6E000E0B6E000E0C6E0B8E000EE1
:1039AA000C6EE0EF1CF0000E096E000E0A6E000E9F
:1039BA000B6E000E0C6E1350125CD8B0E7EF1CF0C1
:1039CA00E9EF1CF010EF1DF011ACEEEF1CF0F0EF78
:1039DA001CF0F2EF1CF0800E111A13C014F012C082
:1039EA0013F014C012F005C014F009C005F014C099
:1039FA0009F006C014F00AC006F014C00AF007C0A5
:103A0A0014F00BC007F014C00BF008C014F00CC07F
:103A1A0008F014C00CF0000E146E135012C00DF012
:103A2A000E6A0D5E000E0E5A0EBE25EF1DF00E50E8
:103A3A0009E11A0E0D5CD8A025EF1DF027EF1DF045
:103A4A005EEF1DF00550061007100810D8A430EFDD
:103A5A001DF033EF1DF0010E34EF1DF0000E146E51
:103A6A00000E056E000E066E000E076E000E086E42
:103A7A0012C013F067EF1DF014A046EF1DF048EFD7
:103A8A001DF04EEF1DF0D89014300109146E50EF5E
:103A9A001DF0D890143205A055EF1DF057EF1DF018
:103AAA0058EF1DF0148E08340832073206320532F8
:103ABA00132A1250135CD8A065EF1DF067EF1DF0B2
:103ACA0041EF1DF011BC6CEF1DF06EEF1DF0AEEF73
:103ADA001DF01350D8A474EF1DF076EF1DF080EF9F
:103AEA001DF0000E056E000E066E000E076E000E2B
:103AFA00086ECFEF1EF0095005260A5006220B5019
:103B0A0007220C50082208A08DEF1DF08FEF1DF040
:103B1A003BEF1EF014A094EF1DF096EF1DF09CEF02
:103B2A001DF0D89014300109146E9EEF1DF0D89044
:103B3A00143205A0A3EF1DF0A5EF1DF0A6EF1DF0AE
:103B4A00148E08340832073206320532132A3BEF44
:103B5A001EF00950055C0A5006580B5007580850C9
:103B6A00800A0D6E0C50800A0D58D8B0BFEF1DF0B8
:103B7A00C1EF1DF0ECEF1DF00550095C0D6E06500B
:103B8A000A580E6E07500B580F6E08500C58106EDC
:103B9A00FF0E0D24056EFF0E0E20066EFF0E0F207F
:103BAA00076EFF0E1020086E800E111A146C145046
:103BBA00D8A4E2EF1DF0E4EF1DF0F4EF1DF0010EC2
:103BCA000526000E062207220822F4EF1DF00950EE
:103BDA00055E0A50065A0B50075A0C50085A0550EF
:103BEA00061007100810D8A4FDEF1DF0FFEF1DF016
:103BFA0034EF1EF01450D8A405EF1EF007EF1EF0A4
:103C0A0034EF1EF0000E056E000E066E000E076EF3
:103C1A00000E086ECFEF1EF0D8900536063607362E
:103C2A00083614AE1BEF1EF01DEF1EF01EEF1EF03D
:103C3A00058014A023EF1EF025EF1EF029EF1EF0D9
:103C4A00D88014362BEF1EF0D89014361350D8B4FF
:103C5A0031EF1EF033EF1EF034EF1EF0130607AEFD
:103C6A0039EF1EF03BEF1EF011EF1EF0000E126E40
:103C7A0014AE42EF1EF044EF1EF05CEF1EF014C0CB
:103C8A000DF07F0E0D16D8B44DEF1EF04FEF1EF05B
:103C9A0053EF1EF0010E126E5CEF1EF005A058EFF6
:103CAA001EF05AEF1EF05CEF1EF04FEF1EF012509E
:103CBA00D8B462EF1EF064EF1EF08FEF1EF0010E13
:103CCA000526000E06220722082208A06FEF1EF022
:103CDA0071EF1EF08FEF1EF005C00DF006C00EF05A
:103CEA0007C00FF008C010F0103410320F320E3235
:103CFA000D320DC005F00EC006F00FC007F010C05F
:103D0A0008F01328D8B48CEF1EF08EEF1EF08FEF58
:103D1A001EF0132A1328D8B495EF1EF097EF1EF061
:103D2A009FEF1EF01350D8A49DEF1EF09FEF1EF0D8
:103D3A00B1EF1EF0000E056E000E066E000E076E45
:103D4A00000E086E1350D8A4ADEF1EF0AFEF1EF0B0
:103D5A00B1EF1EF0000E116E13A0B6EF1EF0B8EF11
:103D6A001EF0BBEF1EF0078EBCEF1EF0079ED89028
:103D7A001330086E11AEC4EF1EF0C6EF1EF0C7EF87
:103D8A001EF0088E05C005F006C006F007C007F051
:103D9A0008C008F0120040C0D9FF41C0DAFFDECFE8
:103DAA00F6FFDDCFF7FFF86A0800F550250AD8A418
:103DBA00E1EF1EF0E3EF1EF003EF21F040C0D9FF60
:103DCA0041C0DAFFDE2A000EDD22000E0001A36FD9
:103DDA00000EA26FA2C0A6F0A3C0A7F0A469A569AD
:103DEA0040C0D9FF41C0DAFFDECFF6FFDDCFF7FFD3
:103DFA00F86A0800F5502E0AD8A406EF1FF008EF5B
:103E0A001FF087EF1FF0000EA56F000EA46F40C0D1
:103E1A00D9FF41C0DAFFDE2A000EDD2240C0D9FFF9
:103E2A0041C0DAFFDECFF6FFDDCFF7FFF86A080000
:103E3A00F5502A0AD8A424EF1FF026EF1FF043EF0B
:103E4A001FF040C0D9FF41C0DAFFDE2A000EDD2292
:103E5A0042C0D9FF43C0DAFFDFCF44F0020EDE26AC
:103E6A00DFCF45F0000EDD2244C0D9FF45C0DAFF9E
:103E7A00DECFA4F0DDCFA5F087EF1FF040C0D9FF59
:103E8A0041C0DAFFDECF0CF0DDCF0DF028EC28F0D0
:103E9A000CC0A4F00DC0A5F05AEF1FF040C0D9FF26
:103EAA0041C0DAFFDE2A000EDD22D00E446EFF0E7C
:103EBA00456E40C0D9FF41C0DAFFDECFF6FFDDCF45
:103ECA00F7FFF86A0800F550466E476A44504626DE
:103EDA004550472247500AE10A0E465CD8A078EFBF
:103EEA001FF07BEF1FF0010E7CEF1FF0000E486EF3
:103EFA00496A48504910D8A485EF1FF087EF1FF090
:103F0A0053EF1FF040C0D9FF41C0DAFFDECFF6FF02
:103F1A00DDCFF7FFF86A0800F5500B6E0C6A39EC32
:103F2A0030F00B50506E5050D8B49EEF1FF0A0EFF7
:103F3A001FF0DAEF1FF040C0D9FF41C0DAFFDECF31
:103F4A0044F0DDCF45F0010E4426000E452244C060
:103F5A00F6FF45C0F7FFF86A0800F5500B6E0C6AC9
:103F6A0039EC30F00B50516E5150D8B4BFEF1FF0FE
:103F7A00C1EF1FF0DAEF1FF040C0D9FF41C0DAFFEE
:103F8A00DECF44F0DDCF45F0020E4426000E452276
:103F9A0044C0F6FF45C0F7FFF86A0800F5500B6EFB
:103FAA000C6A39EC30F00B50526E660E5018D8A4D9
:103FBA00E1EF1FF0E3EF1FF024EF20F040C0D9FF3C
:103FCA0041C0DAFFDECFF6FFDDCFF7FFF86A08005F
:103FDA00F5CF53F040C0D9FF41C0DAFFDE2A000E08
:103FEA00DD2242C0D9FF43C0DAFFDFCF44F0040E1E
:103FFA00DE26DFCF45F0000EDD2244C0D9FF45C0E2
:10400A00DAFFDECF4CF0DECF4DF0DECF4EF0DECF62
:10401A004FF03EC032F03FC033F04CC034F04DC0D8
:10402A0035F04EC036F04FC037F053C038F01DECB3
:10403A0016F032C03EF033C03FF01FEF21F0500EB1
:10404A00056E000E066E450E076E100E086E000E07
:10405A000A6E020E096E79EC2AF005500610D8A4F1
:10406A0039EF20F03BEF20F0CCEF20F040C0D9FF31
:10407A0041C0DAFFDECF44F0DDCF45F0010E442621
:10408A00000E452244C0F6FF45C0F7FFF86A080053
:10409A00F5CF53F0BF0E446EFF0E456E40C0D9FFF8
:1040AA0041C0DAFFDECFF6FFDDCFF7FFF86A08007E
:1040BA00F550466E476A44504626455047224750B7
:1040CA000AE11A0E465CD8A06DEF20F070EF20F0DE
:1040DA00010E71EF20F0000E4A6E4B6A4A504B10E7
:1040EA00D8B47AEF20F07CEF20F096EF20F042C0AF
:1040FA00D9FF43C0DAFFDFCF44F0040EDE26DFCF5C
:10410A0045F0000EDD2244C0D9FF45C0DAFFDECFFC
:10411A004CF0DECF4DF0DECF4EF0DECF4FF0AEEFFB
:10412A0020F042C0D9FF43C0DAFFDFCF44F0040ECB
:10413A00DE26DFCF45F0000EDD2244C0D9FF45C0A0
:10414A00DAFFDECF4CF0DECF4DF0DECF4EF0DECF21
:10415A004FF0020E40C0D9FF41C0DAFFDE26000E42
:10416A00DD223EC032F03FC033F04CC034F04DC0C7
:10417A0035F04EC036F04FC037F053C038F01DEC62
:10418A0016F032C03EF033C03FF01FEF21F040C0BE
:10419A00D9FF41C0DAFFDECFF6FFDDCFF7FFF86ABD
:1041AA000800F550250AD8A4DDEF20F0DFEF20F053
:1041BA00F6EF20F040C0D9FF41C0DAFFDE2A000E38
:1041CA00DD22000E086E250E076E3EC009F03FC0C4
:1041DA000AF06EEC2DF0000E3F6E010E3E6E1FEFE0
:1041EA0021F040C0D9FF41C0DAFFDE2A000EDD22ED
:1041FA00000E3F6E000E3E6E1FEF21F040C0D9FF49
:10420A0041C0DAFFDECFF6FFDDCFF7FFF86A08001C
:10421A00F550076E086A3EC009F03FC00AF06EEC1E
:10422A002DF040C0D9FF41C0DAFFDE2A000EDD22A0
:10423A00F0EF20F012000850800B116E085008248D
:10424A00176E07AE2BEF21F02DEF21F02EEF21F0A4
:10425A0017801750D8B434EF21F036EF21F049EF28
:10426A0021F01728D8A43CEF21F03EEF21F046EFC9
:10427A0021F0000E056E000E066E000E076E000E8F
:10428A00086E078E51EF21F0000E056E000E066EC5
:10429A00000E076E000E086E0C50800B111A0C509F
:1042AA000C24126E0BAE5CEF21F05EEF21F05FEF93
:1042BA0021F012801250D8B465EF21F067EF21F097
:1042CA007AEF21F01228D8A46DEF21F06FEF21F0D8
:1042DA0077EF21F0000E096E000E0A6E000E0B6ECB
:1042EA00000E0C6E0B8E82EF21F0000E096E000E8E
:1042FA000A6E000E0B6E000E0C6E1250D8B488EFC8
:10430A0021F08AEF21F092EF21F01750D8A490EF14
:10431A0021F092EF21F09CEF21F0000E056E000EC5
:10432A00066E000E076E000E086E34EF23F00B5077
:10433A000502F3CF1CF0F4CF1DF01C50136E146A63
:10434A00156A166A1D50186E196A1A6A1B6A0A508B
:10435A000602F3CF1CF0F4CF1DF01C501326000EFA
:10436A001422152216221D501826000E19221A226E
:10437A001B2209500702F3CF1CF0F4CF1DF01C508A
:10438A001326000E1422152216221D501826000E7E
:10439A0019221A221B2215C016F014C015F013C0D8
:1043AA0014F0136A09500602F3CF1CF0F4CF1DF083
:1043BA001C5013261D501422000E1522000E162220
:1043CA000A500502F3CF1CF0F4CF1DF01C5013263F
:1043DA001D501422000E1522000E162215C016F0CA
:1043EA0014C015F013C014F0136A09500502F3CF74
:1043FA001CF0F4CF1DF01C5013261D501422000E81
:10440A001522000E16220B500602F3CF1CF0F4CF31
:10441A001DF01C5018261D501922000E1A22000EDB
:10442A001B220A500702F3CF1CF0F4CF1DF01C50D8
:10443A0018261D501922000E1A22000E1B220B509C
:10444A000702F3CF1CF0F4CF1DF01C500D6E1D5067
:10445A000E6E0F6A106A0FC010F00EC00FF00DC07A
:10446A000EF00D6A0D5018260E5019220F501A22FE
:10447A0010501B2213C00DF014C00EF015C00FF01F
:10448A0016C010F0190E4FEF22F0D89010320F32EA
:10449A000E320D32E82E4AEF22F00D5018260E5039
:1044AA0019220F501A2210501B2215C016F014C0E0
:1044BA0015F013C014F0136A125017C00DF00E6AEB
:1044CA000D26000E0E22820E0D241C6EFF0E0E20EB
:1044DA001D6E85EF22F0D890183619361A361B361B
:1044EA0016AE7AEF22F07CEF22F07DEF22F01880F0
:1044FA00D89013361436153616361C06D8A01D0663
:10450A001AAE8AEF22F08CEF22F070EF22F0000E42
:10451A00126E16AE93EF22F095EF22F0B9EF22F069
:10452A00FF0E13140D6EFF0E14140E6EFF0E1514EB
:10453A000F6E7F0E1614106E0D500E100F10101005
:10454A00D8B4AAEF22F0ACEF22F0B0EF22F0010EBD
:10455A00126EB9EF22F018A0B5EF22F0B7EF22F0F1
:10456A00B9EF22F0ACEF22F01250D8B4BFEF22F02C
:10457A00C1EF22F0E5EF22F0010E1826000E1922F3
:10458A001A221B221BA0CCEF22F0CEEF22F0E5EF7D
:10459A0022F018C00DF019C00EF01AC00FF01BC09F
:1045AA0010F0103410320F320E320D320DC018F0E6
:1045BA000EC019F00FC01AF010C01BF01C4A1D2AB9
:1045CA001DBEF0EF22F01D5008E11C28D8A0F0EF24
:1045DA0022F0F2EF22F0FCEF22F0000E186E000E2D
:1045EA00196E800E1A6E7F0E1B6E2AEF23F01DBE07
:1045FA0009EF23F01D5006E11C04D8B007EF23F0A1
:10460A0009EF23F015EF23F0000E186E000E196E55
:10461A00000E1A6E000E1B6E000E116E2AEF23F0AA
:10462A001CC017F0FF0E1816FF0E19167F0E1A1669
:10463A00000E1B1617A024EF23F026EF23F027EF16
:10464A0023F01A8ED89017301B6E11501B1218C007
:10465A0005F019C006F01AC007F01BC008F01200D6
:10466A000850800B156E085008241C6E07AE40EFE8
:10467A0023F042EF23F043EF23F01C801C50D8B400
:10468A0049EF23F04BEF23F060EF23F01C28D8A466
:10469A0051EF23F053EF23F05BEF23F0000E056E8A
:1046AA00000E066E000E076E000E086E078E000ED4
:1046BA00086E68EF23F0000E056E000E066E000EFF
:1046CA00076E000E086E0C50800B151A0C500C2445
:1046DA001D6E0BAE73EF23F075EF23F076EF23F028
:1046EA001D801D50D8B47CEF23F07EEF23F093EFAA
:1046FA0023F01D28D8A484EF23F086EF23F08EEF51
:10470A0023F0000E096E000E0A6E000E0B6E000EEC
:10471A000C6E0B8E000E0C6E9BEF23F0000E096ED2
:10472A00000E0A6E000E0B6E000E0C6E09500A1077
:10473A000B100C10D8A4A4EF23F0A6EF23F0BEEFC1
:10474A0023F0000E056E000E066E000E076E000EB8
:10475A00086E800E07127F0E08121550081205C047
:10476A0005F006C006F007C007F008C008F001EF20
:10477A0025F01C50D8A4C4EF23F0C6EF23F0D0EFE5
:10478A0023F0000E056E000E066E000E076E000E78
:10479A00086E01EF25F01D501CC00DF00E6A0D5E6B
:1047AA00000E0E5A7F0E0D24166E000E0E20176E86
:1047BA0005C011F006C012F007C013F008C014F0CB
:1047CA00000E056E000E066E000E076E000E086ED5
:1047DA00000E186E000E196E000E1A6E000E1B6E79
:1047EA00000E1D6E31EF24F01D50D8B4FFEF23F0F8
:1047FA0001EF24F018EF24F0D89011361236133650
:10480A001436D89005360636073608361BAE10EF32
:10481A0024F012EF24F013EF24F00580D890183614
:10482A0019361A361B360950115C0A5012580B50A9
:10483A0013580C501458D8A025EF24F027EF24F071
:10484A0030EF24F01B8C0950115E0A50125A0B509B
:10485A00135A0C50145A1D2A190E1D6437EF24F0EE
:10486A0039EF24F0F9EF23F011501210131014103D
:10487A00D8B442EF24F044EF24F05CEF24F018801F
:10488A005CEF24F0D89005360636073608361BAE9C
:10489A0051EF24F053EF24F054EF24F00580D89020
:1048AA00183619361A361B361606D8A0170607AE5A
:1048BA0061EF24F063EF24F047EF24F0000E1D6E41
:1048CA001BAE6AEF24F06CEF24F090EF24F0FF0E99
:1048DA0018140D6EFF0E19140E6EFF0E1A140F6EB9
:1048EA007F0E1B14106E0D500E100F101010D8B43E
:1048FA0081EF24F083EF24F087EF24F0010E1D6E80
:10490A0090EF24F005A08CEF24F08EEF24F090EFC6
:10491A0024F083EF24F01D50D8B496EF24F098EFDA
:10492A0024F0BCEF24F0010E0526000E0622072211
:10493A00082208A0A3EF24F0A5EF24F0BCEF24F08E
:10494A0005C00DF006C00EF007C00FF008C010F049
:10495A00103410320F320E320D320DC005F00EC077
:10496A0006F00FC007F010C008F0164A172A17BE43
:10497A00C7EF24F0175008E11628D8A0C7EF24F093
:10498A00C9EF24F0D4EF24F0000E176E1668000E5B
:10499A00056E000E066E000E076E000E086E17BE3C
:1049AA00E1EF24F0175006E11604D8B0DFEF24F047
:1049BA00E1EF24F0EFEF24F0000E176E000E166EF2
:1049CA00000E056E000E066E000E076E000E086ED3
:1049DA00000E156E16C01CF01CA0F6EF24F0F8EFBE
:1049EA0024F0FBEF24F0078EFCEF24F0079ED8900A
:1049FA001C30086EB2EF23F01200800E166E010E04
:104A0A00176E290E6BEC2FF0FF0E166E010E176E45
:104A1A00290E6BEC2FF0000E166E000E176E290E83
:104A2A006BEC2FF0910E166E3C0E176E290E6BEC86
:104A3A002FF0000E166E010E176E290E6BEC2FF07A
:104A4A00FF0E166E000E176E290E6BEC2FF0800EFD
:104A5A00166E000E176E290E6BEC2FF0000E166EF6
:104A6A00010E176E290E6BEC2FF0000E166E290E32
:104A7A00F9EC2EF0286E130E166E290EF9EC2EF0B4
:104A8A00286E130E166E290EF9EC2EF0286E130EF0
:104A9A00166E290EF9EC2EF0286E130E166E290EDC
:104AAA00F9EC2EF0286E130E166E290EF9EC2EF084
:104ABA00286E130E166E290EF9EC2EF0286E130EC0
:104ACA00166E290EF9EC2EF0286E130E166E290EAC
:104ADA00F9EC2EF0286E130E166E290EF9EC2EF054
:104AEA00286E130E166E290EF9EC2EF0286E130E90
:104AFA00166E290EF9EC2EF0286E130E166E290E7C
:104B0A00F9EC2EF0286E130E166E290EF9EC2EF023
:104B1A00286E130E166E290EF9EC2EF0286E130E5F
:104B2A00166E290EF9EC2EF0286E130E166E290E4B
:104B3A00F9EC2EF0286E130E166E290EF9EC2EF0F3
:104B4A00286E130E166E290EF9EC2EF0286E130E2F
:104B5A00166E290EF9EC2EF0286E130E166E290E1B
:104B6A00F9EC2EF0286E130E166E290EF9EC2EF0C3
:104B7A00286E130E166E290EF9EC2EF0286E130EFF
:104B8A00166E290EF9EC2EF0286E130E166E290EEB
:104B9A00F9EC2EF0286E130E166E290EF9EC2EF093
:104BAA00286E130E166E290EF9EC2EF0286E130ECF
:104BBA00166E290EF9EC2EF0286E130E166E290EBB
:104BCA00F9EC2EF0286E140E0001A96FA90E166ECC
:104BDA00000E176E000E196E010E186E290E98EC53
:104BEA0030F0580E166E010E176E000E196E0C0E6E
:104BFA00186E290E3DEC31F0FF0E166E010E176E7F
:104C0A00290E6BEC2FF0B60E166E290E00EC2EF064
:104C1A0016C026F017C027F0FF0E166E000E176E8C
:104C2A00290E6BEC2FF00B0E166E010E176E290E65
:104C3A006BEC2FF00B0E166E000E176E290E6BEC36
:104C4A002FF0130E166E290EF9EC2EF026C005F081
:104C5A0027C006F0076A086A000E4EEC27F005C066
:104C6A0022F006C023F007C024F008C025F022C0B5
:104C7A001EF023C01FF024C020F025C021F012002E
:104C8A0094C02EF095C02FF096C030F097C031F046
:104C9A001EC02EF01FC02FF020C030F021C031F00E
:104CAA00810E226EFF0E236E2EC024F02FC025F037
:104CBA0030C026F031C027F0180E69EF26F0D890E0
:104CCA002732263225322432E82E64EF26F0245089
:104CDA0022242C6E000E23202D6E2DBE7EEF26F090
:104CEA002D5009E1170E2C5CD8A07EEF26F080EF3C
:104CFA0026F08AEF26F01EC01EF01FC01FF020C04B
:104D0A0020F021C021F04DEF27F02DBE8FEF26F0C5
:104D1A0091EF26F001EF27F02CC022F0FF0E236E50
:104D2A00FF0E246E7F0E256E000E266E2266A0EF01
:104D3A0026F0A8EF26F026342632253224322332F2
:104D4A00222E9BEF26F023C028F024C029F025C08C
:104D5A002AF026C02BF028502E14226E29502F1428
:104D6A00236E2A503014246E2B503114256E225093
:104D7A00231024102510D8A4C5EF26F0C7EF26F07B
:104D8A00C9EF26F080EF26F02EC022F02FC023F0C4
:104D9A0030C024F031C025F0200ED9EF26F0D8908B
:104DAA002532243223322232E82ED4EF26F0225042
:104DBA00231024102510D8B4E5EF26F0E7EF26F0EB
:104DCA00EFEF26F028502E2629502F222A50302283
:104DDA002B503122281C226E291C236E2A1C246E79
:104DEA002B1C256E22502E1623502F1624503016B7
:104DFA002550311645EF27F02EC022F02FC023F0A0
:104E0A0030C024F031C025F0200E11EF27F0D890E1
:104E1A002532243223322232E82E0CEF27F0225098
:104E2A00231024102510D8A41DEF27F01FEF27F018
:104E3A0029EF27F0000E2E6E000E2F6E000E306E38
:104E4A00000E316E45EF27F0D8902E34226E2F34A3
:104E5A00236E3034246E3134256E225023102410F0
:104E6A002510D8B43BEF27F03DEF27F045EF27F0A8
:104E7A00000E2E6E000E2F6E800E306EBF0E316E3B
:104E8A002EC01EF02FC01FF030C020F031C021F01C
:104E9A0012000D6E0D50D8B455EF27F057EF27F0DA
:104EAA0079EF27F008BE5EEF27F05CEF27F079EF85
:104EBA0027F005C009F006C00AF007C00BF008C0C9
:104ECA000CF0091E0A1E0B1E0C1E092A000E0A22CD
:104EDA000B220C2209C00FF00AC010F00BC011F00F
:104EEA000CC012F081EF27F005C00FF006C010F0D9
:104EFA0007C011F008C012F005500610071008107C
:104F0A00D8A48AEF27F08CEF27F096EF27F0000E4F
:104F1A00056E000E066E000E076E000E086E27EF75
:104F2A0028F0960E0E6EA0EF27F00E2AD8901232B5
:104F3A00113210320F32000E0F14096E000E1014C7
:104F4A000A6E000E11140B6EFE0E12140C6E09502E
:104F5A000A100B100C10D8A4B5EF27F0B7EF27F002
:104F6A009AEF27F0C5EF27F00E2A010E0F26000E42
:104F7A00102211221222D8901232113210320F321C
:104F8A00000E0F14096E000E10140A6E000E111492
:104F9A000B6EFF0E12140C6E09500A100B100C1037
:104FAA00D8A4DAEF27F0DCEF27F0B9EF27F0E4EF27
:104FBA0027F00E06D8900F3610361136123611BE6B
:104FCA00E9EF27F0EBEF27F0F3EF27F0020E0E6080
:104FDA00F1EF27F0F3EF27F0DEEF27F00EB0F8EF4E
:104FEA0027F0FAEF27F0FBEF27F0119ED8900E3248
:104FFA000EC009F00A6A0B6A0C6A09C00CF00B6A47
:10500A000A6A096A09500F120A5010120B5011123B
:10501A000C5012120D50D8B415EF28F017EF28F0E3
:10502A001FEF28F008BE1EEF28F01CEF28F01FEF34
:10503A0028F0128E0FC005F010C006F011C007F05C
:10504A0012C008F01200000E1A6E000E196E000E41
:10505A00136E000E126E34EF28F00C4A0D2A010E60
:10506A00186E0CC0F6FF0DC0F7FFF86A0800F5507D
:10507A00200AD8B443EF28F045EF28F063EF28F070
:10508A00F70E0E6EFF0E0F6E0CC0F6FF0DC0F7FF87
:10509A00F86A0800F550106E116A0E5010260F506B
:1050AA001122115009E1050E105CD8A05FEF28F01B
:1050BA0061EF28F063EF28F0000E186E18C014F0A4
:1050CA00156A14501510D8A46DEF28F06FEF28F068
:1050DA0032EF28F079EF28F0000E136E010E126EEF
:1050EA000C4A0D2AB0EF28F00CC0F6FF0DC0F7FFEE
:1050FA00F86A0800F5500E6E0F6A0F50000AD8B40D
:10510A0089EF28F0B0EF28F00E502B0AD8B475EFCB
:10511A0028F0060AD8B471EF28F0B0EF28F019C0C9
:10512A0005F01AC006F0000E086E0A0E076E1BEC98
:10513A0033F00CC0F6FF0DC0F7FFF86A0800F5500F
:10514A00055E000E065A300E0524196E000E062062
:10515A001A6E75EF28F0D00E0E6EFF0E0F6E0CC091
:10516A00F6FF0DC0F7FFF86A0800F550106E116AD5
:10517A000E5010260F50112211500AE10A0E105C2F
:10518A00D8A0CAEF28F0CDEF28F0010ECEEF28F014
:10519A00000E166E176A16501710D8A4D7EF28F00B
:1051AA00D9EF28F094EF28F012501310D8A4E0EFAA
:1051BA0028F0E2EF28F0F0EF28F019C00EF01AC03C
:1051CA000FF00E1E0F1E0E4A0F2A0EC00CF00FC053
:1051DA000DF0F4EF28F019C00CF01AC00DF012000F
:1051EA00073408340E6E0E50D8A4FEEF28F000EFF4
:1051FA0029F00AEF29F0000E056E000E066E000E69
:10520A00076E000E086E77EF29F005C009F006C098
:10521A000AF007C00BF008C00CF0200E1AEF29F0B4
:10522A00D8900C320B320A320932E82E15EF29F0E7
:10523A0009500D6E078EFF0E0516FF0E0616FF0E9D
:10524A000716000E0816960E0E5E0EBE31EF29F0F6
:10525A002FEF29F047EF29F00E50800A970FD8B0A8
:10526A0039EF29F03BEF29F03DEF29F000EF29F063
:10527A00D89008320732063205320E3E3DEF29F049
:10528A005FEF29F01F0E0E644DEF29F04FEF29F062
:10529A0057EF29F000EF29F0D89005360636073681
:1052AA0008360E060E50D8A45DEF29F05FEF29F0FC
:1052BA0051EF29F00D50D8B465EF29F067EF29F0C6
:1052CA006FEF29F0081E071E061E056C000E062247
:1052DA000722082205C005F006C006F007C007F03D
:1052EA0008C008F01200000E1E14266E000E1F14CD
:1052FA00276E800E2014286E7F0E2114296E2650E8
:10530A00271028102910D8A48DEF29F08FEF29F043
:10531A0097EF29F0000E1E6E000E1F6E000E206E13
:10532A00000E216E000E2214266E000E2314276E24
:10533A00800E2414286E7F0E2514296E26502710FD
:10534A0028102910D8A4ACEF29F0AEEF29F0B6EF57
:10535A0029F0000E226E000E236E000E246E000E3F
:10536A00256E21AEBBEF29F0BDEF29F0C6EF29F07B
:10537A001E6C1F1ED8B01F2A201ED8B0202A800EED
:10538A00215625AECBEF29F0CDEF29F0D6EF29F043
:10539A00226C231ED8B0232A241ED8B0242A800EB9
:1053AA002556000E1E1A000E1F1A000E201A800E15
:1053BA00211A000E221A000E231A000E241A800E39
:1053CA00251A22501E5C23501F582450205825505D
:1053DA002158D8B0F3EF29F0F5EF29F0F8EF29F0CA
:1053EA00D890F9EF29F0D880120098C00FF099C030
:1053FA0010F09AC011F09BC012F005C00FF006C061
:10540A0010F007C011F008C012F00FC009F010C068
:10541A000AF011C00BF012C00CF0180E1AEF2AF0A5
:10542A00D8900C320B320A320932E82E15EF2AF0E4
:10543A0009500D6E0E6A0D500E10D8A427EF2AF0EF
:10544A0029EF2AF049EF2AF0D8900F34096E103468
:10545A000A6E11340B6E12340C6E09500A100B10BE
:10546A000C10D8A43BEF2AF03DEF2AF043EF2AF0C4
:10547A00000E066E020E056E78EF2AF0000E066E1A
:10548A00030E056E78EF2AF00D280E10D8A450EFFF
:10549A002AF052EF2AF074EF2AF00FC009F010C078
:1054AA000AF011C00BF012C00CF0090ED8900936A0
:1054BA000A360B360C36E82E5BEF2AF009500A1032
:1054CA000B100C10D8B46CEF2AF06FEF2AF0010E13
:1054DA0070EF2AF0000E056E066A78EF2AF0000EC9
:1054EA00066E040E056E120005C00CF006C00DF023
:1054FA0007C00EF008C00FF00906D8A00A0609284E
:10550A0006E10A28D8A48CEF2AF08EEF2AF09BEF46
:10551A002AF0000E066E000E056EE6EF2AF00C4A1F
:10552A000D2A0E4A0F2A0906D8A00A060CC0D9FF6E
:10553A000DC0DAFFDF50D8B4A5EF2AF0A7EF2AF0A2
:10554A00D4EF2AF00EC0F6FF0FC0F7FFF86A080082
:10555A00F5500009D8B4B4EF2AF0B6EF2AF0D4EF28
:10556A002AF009500A10D8B4BDEF2AF0BFEF2AF08A
:10557A00D4EF2AF00CC0D9FF0DC0DAFFDF500B6E52
:10558A000EC0F6FF0FC0F7FFF86A0800F5500B18B7
:10559A00D8B4D2EF2AF0D4EF2AF094EF2AF00CC054
:1055AA00D9FF0DC0DAFFDF500B6E0EC0F6FF0FC039
:1055BA00F7FFF86A0800F5500B5C056E066AD8A07A
:1055CA00060612000001A6A1EDEF2AF0EFEF2AF07D
:1055DA00F9EF2AF019C010F01AC011F017C012F032
:1055EA0018C013F060EC31F01CBEFEEF2AF000EF99
:1055FA002BF006EF2BF01BC020F01CC021F00AEFA5
:10560A002BF0000E216E000E206E000E1F6E000E93
:10561A001E6E1CEF2BF0000E086E200E076E17C0D0
:10562A0009F018C00AF06EEC2DF01E4A1F2A20500D
:10563A001E5C1F50800A1D6E2150800A1D58D8A07A
:10564A0029EF2BF02BEF2BF010EF2BF00001A6B176
:10565A0031EF2BF033EF2BF03DEF2BF019C010F0A8
:10566A001AC011F017C012F018C013F060EC31F034
:10567A0019C005F01AC006F039EC32F020500524A2
:10568A00176E21500620186E1200000E0A6E08BE10
:10569A0053EF2BF051EF2BF059EF2BF0076C081E4C
:1056AA00D8B0082A010E0A6E06BE60EF2BF05EEF34
:1056BA002BF066EF2BF0056C061ED8B0062A010EF9
:1056CA000A1A000E0C6E000E0B6E07500810D8B4A2
:1056DA0071EF2BF073EF2BF09BEF2BF0010E096E9D
:1056EA007BEF2BF0D89007360836092A08AE80EFF0
:1056FA002BF082EF2BF077EF2BF0D8900B360C368D
:10570A000750055C08500658D8A08EEF2BF090EF92
:10571A002BF095EF2BF00750055E0850065A0B80C8
:10572A00D89008320732092E82EF2BF00A50D8B4EB
:10573A00A1EF2BF0A3EF2BF0A7EF2BF00B6C0C1EB5
:10574A00D8B00C2A0BC005F00CC006F0120083EC8E
:10575A0033F00009D8B4B4EF2BF0B6EF2BF0F1EF29
:10576A002BF0C4EF2BF004EC34F00DEF2CF000EC2E
:10577A0034F00DEF2CF0F8EC33F00DEF2CF072C092
:10578A000EF073C00FF002D8D5EF2BF00500FA6EB9
:10579A0000016651FD6E6751FE6EFF6AFA501200F3
:1057AA00106E116A1150000AD8B4DEEF2BF0C0EF68
:1057BA002BF01050010AD8B4C0EF2BF0030AD8B46A
:1057CA00B8EF2BF0010AD8B4BCEF2BF0070AD8B413
:1057DA00C0EF2BF0C0EF2BF0000183917DC0D9FF01
:1057EA007EC0DAFF7D4B7E2BDF5008EC34F00001DF
:1057FA007F07D8A080077F518011D8A407EF2CF02B
:10580A0009EF2CF00CEF2CF0060E0DEF2CF0030E26
:10581A001200840E5824D96EDA6A000EDA22000EBB
:10582A00DF6EABA41BEF2CF01DEF2CF032EF2CF047
:10583A00840E5824D96EDA6A000EDA220001DF8259
:10584A0002D832EF2CF00500FA6E01016C51FD6EA0
:10585A006D51FE6EFF6AFA501200ABA237EF2CF0C0
:10586A0039EF2CF04EEF2CF0840E5824D96EDA6AF8
:10587A00000EDA220001DF8402D84EEF2CF0050078
:10588A00FA6E01016A51FD6E6B51FE6EFF6AFA50A3
:10589A001200840E5824D96EDA6A000EDA22DF501A
:1058AA00D8B45AEF2CF05CEF2CF06BEF2CF002D846
:1058BA0069EF2CF00500FA6E01016851FD6E69511D
:1058CA00FE6EFF6AFA5012006DEF2CF006EC33F010
:1058DA001200000E0A6E06BE77EF2CF075EF2CF060
:1058EA007DEF2CF0056C061ED8B0062A010E0A6E52
:1058FA0008BE84EF2CF082EF2CF088EF2CF0076CB6
:10590A00081ED8B0082A07500810D8B48FEF2CF018
:10591A0091EF2CF0B5EF2CF0010E096E99EF2CF0F7
:10592A00D89007360836092A08AE9EEF2CF0A0EF69
:10593A002CF095EF2CF00750055C08500658D8A0BB
:10594A00A9EF2CF0ABEF2CF0AFEF2CF00750055E6F
:10595A000850065AD89008320732092EA0EF2CF0C8
:10596A000A50D8B4BBEF2CF0BDEF2CF0C1EF2CF0ED
:10597A00056C061ED8B0062A05C005F006C006F05A
:10598A001200000E05140D6E000E06140E6E800E27
:10599A0007140F6E7F0E0814106E0D500E100F10A4
:1059AA001010D8A4DBEF2CF0DDEF2CF0E5EF2CF093
:1059BA00000E056E000E066E000E076E000E086ED3
:1059CA00000E09140D6E000E0A140E6E800E0B14D2
:1059DA000F6E7F0E0C14106E0D500E100F1010105B
:1059EA00D8A4FAEF2CF0FCEF2CF004EF2DF0000E07
:1059FA00096E000E0A6E000E0B6E000E0C6E095038
:105A0A0005180FE10A5006180CE10B50071809E1B6
:105A1A000C500818D8B414EF2DF016EF2DF019EF2A
:105A2A002DF0D8901AEF2DF0D88012001AEC34F02D
:105A3A007DC0D9FF7EC0DAFFDF6E00017D4B7E2B71
:105A4A007F07D8A080077F518011D8B42FEF2DF09F
:105A5A0031EF2DF036EF2DF00CEC34F0050E6DEF32
:105A6A002DF0838741EF2DF0ECEC33F06DEF2DF044
:105A7A00F0EC33F06DEF2DF06CC00EF06DC00FF04E
:105A8A0002D851EF2DF00500FA6E6051FD6E61519A
:105A9A00FE6EFF6AFA501200106E116A1150000A67
:105AAA00D8B45AEF2DF03DEF2DF01050010AD8B4BA
:105ABA003DEF2DF0030AD8B439EF2DF0010AD8B41E
:105ACA0039EF2DF0070AD8B43DEF2DF03DEF2DF058
:105ADA00120009500A10D8B475EF2DF077EF2DF0A7
:105AEA0080EF2DF009500A10D8A47EEF2DF080EF38
:105AFA002DF085EF2DF00750C1EC33F0B8EF2DF003
:105B0A0020EE04F00950D9260A50DA22DE50DE10BF
:105B1A00D8B492EF2DF094EF2DF0AFEF2DF020EEE8
:105B2A0004F00950D9260A50DA2210EE02F0095080
:105B3A00E1260A50E222DE50E65CE650800A0F6E49
:105B4A00DE50800A0F58D8B0ADEF2DF0AFEF2DF030
:105B5A00B8EF2DF020EE02F00950D9260A50DA22C9
:105B6A00DE2A000EDD221200056E010E066E00010D
:105B7A0083B5C2EF2DF0C4EF2DF0FEEF2DF005C076
:105B8A007CF08393838583910E0E816F010E7B6F68
:105B9A00F40E7A6F8387400E606F680E616F000E95
:105BAA006C6F000E6D6F400E626F680E636F000EB1
:105BBA006E6F000E6F6F400E646F680E656F000E99
:105BCA00706F000E716F400E666F680E676F000E81
:105BDA00726F000E736F3C0E686F680E696F000E6D
:105BEA00746F000E756F2CEC34F040EC33F0000E3D
:105BFA00066E065012001B6E000E1D6E000E1C6E05
:105C0A001B50B9EC2DF00009D8B40EEF2EF010EFAE
:105C1A002EF005EF2EF0320E0A6E650E0B6E1C0E7C
:105C2A000C6E000E0D6E6CEC33F0160E056E000E47
:105C3A00066E000E086E010E076E2EEC33F0000E93
:105C4A000A6E000E0B6E000E0C6E000E0D6E60ECEE
:105C5A0033F0E8EC33F0DBEC32F0E806D8B438EF96
:105C6A002EF03AEF2EF030EF2EF01DC018F01C5037
:105C7A00196E1850166E19C017F0120000018387AA
:105C8A0054EF2EF0FCEC33F080EF2EF018EC34F0E9
:105C9A00030E80EF2EF0F8EC33F080EF2EF06CC09C
:105CAA000EF06DC00FF002D864EF2EF00500FA6E08
:105CBA006051FD6E6151FE6EFF6AFA501200106E5D
:105CCA00116A1150000AD8B46DEF2EF050EF2EF081
:105CDA001050010AD8B450EF2EF0030AD8B447EF97
:105CEA002EF0010AD8B447EF2EF0070AD8B44BEFCA
:105CFA002EF050EF2EF01200096E05500610D8B49F
:105D0A0089EF2EF08BEF2EF0A5EF2EF00950020D41
:105D1A00600EF324D96E000EF420DA6E05C0DEFFA1
:105D2A0006C0DDFF0950020D6C0EF324D96E000E79
:105D3A00F420DA6E07C0DEFF08C0DDFFBDEF2EF0EB
:105D4A000950020D600EF324D96E000EF420DA6EAB
:105D5A00400EDE6E680EDD6E0950020D6C0EF324E5
:105D6A00D96E000EF420DA6E000EDE6E000EDD6EC5
:105D7A0012009D9A1C0E056E580E066ED0EC33F07A
:105D8A009D98480E056E630E066ECBEC33F0080E36
:105D9A00B86E900EAB6E240EAC6ECF0EAF6E000EC8
:105DAA00B06E600E056E680E066EDAEC33F0240EE5
:105DBA00056E680E066ED5EC33F02A0E056E680E77
:105DCA00066EDFEC33F0000E0001A86F000E5A6E6B
:105DDA00000E596E080EFF6F000E586E000E576EB9
:105DEA00000E566E9D8A1200176E000E186E17501E
:105DFA00B9EC2DF00009D8B405EF2FF007EF2FF01A
:105E0A00FCEF2EF05E0E0A6E650E0B6E180E0C6E0F
:105E1A00000E0D6E6CEC33F0160E056E000E066E5B
:105E2A00000E086E010E076E2EEC33F0000E0A6E9D
:105E3A00000E0B6E000E0C6E000E0D6E60EC33F051
:105E4A00E8EC33F0DBEC32F0E806D8B42FEF2FF0B1
:105E5A0031EF2FF027EF2FF0185012002CEC34F00E
:105E6A00000183A13BEF2FF03DEF2FF04AEF2FF017
:105E7A0083EC33F00009D8B445EF2FF047EF2FF049
:105E8A004AEF2FF00F0E0001816F00018151020DC0
:105E9A00010EF324F66E100EF420F76EF86A000E67
:105EAA00F8220900F5CF12F00900F5CF13F002D855
:105EBA0068EF2FF00500FA6E1250FD6E1350FE6E59
:105ECA00FF6AFA5012000001816F1200186E185012
:105EDA00B9EC2DF00009D8B475EF2FF077EF2FF059
:105EEA006CEF2FF0060E0A6E650E0B6E170E0C6E17
:105EFA00000E0D6E6CEC33F0160E056E000E066E7B
:105F0A00000E086E010E076E2EEC33F0000E0A6EBC
:105F1A00000E0B6E000E0C6E000E0D6E60EC33F070
:105F2A00E8EC33F0DBEC32F0E806D8B49FEF2FF060
:105F3A00A1EF2FF097EF2FF0120000018391020ECC
:105F4A00826FB0EF2FF0FCEC33F0D4EF2FF0F8ECC7
:105F5A0033F0D4EF2FF070C00EF071C00FF002D8FA
:105F6A00C0EF2FF00500FA6E6451FD6E6551FE6EAA
:105F7A00FF6AFA501200106E116A1150000AD8B462
:105F8A00C9EF2FF0ACEF2FF01050020AD8B4A8EFE7
:105F9A002FF0010AD8B4A8EF2FF0ACEF2FF01200BF
:105FAA0078EC33F0F28EF28C8C8225EC08F0060E37
:105FBA000101736F130E726FAD0EE82EFED7722FAA
:105FCA00FCD7732FFAD700F000F002EC25F01EC0C0
:105FDA009CF01FC09DF020C09EF021C09FF0210EB2
:105FEA000001F76F100EF86F9CC0F9F09DC0FAF02F
:105FFA009EC0FBF09FC0FCF0F1EC32F0DCEF2FF01A
:10600A0058EF00F0F3C054F0F4C055F0000E000150
:10601A00A16F000EA06F25EF30F0F1C03EF0F2C084
:10602A003FF0540E406E000E416EF5C042F0F6C0CD
:10603A0043F0D0EC1EF03E500001A0273F50A123B0
:10604A0054C0F6FF55C0F7FFF86A0800F55000097A
:10605A00D8A432EF30F034EF30F012EF30F0A0C0B5
:10606A00F1F0A1C0F2F01200BF0E0D6EFF0E0E6E1F
:10607A000BC00FF00CC010F00D500F260E5010225E
:10608A0010500AE11A0E0F5CD8A04EEF30F051EF13
:10609A0030F0010E52EF30F0000E116E126A1150FC
:1060AA001210D8B45BEF30F05DEF30F064EF30F0EF
:1060BA00200E0B100B6E0C500C6E68EF30F00BC0FC
:1060CA000BF00CC00CF0120007C00BF008C00CF06B
:1060DA0005C00DF006C00EF00B50096E0C500A6E8A
:1060EA000B4A0C2A09C0F6FF0AC0F7FF000EF86E29
:1060FA000DC0D9FF0EC0DAFF0D4A0E2A0F0EF76443
:10610A0003D00800F55005D0F6CFE9FFF7CFEAFF34
:10611A00EF50DF6EDF50D8A495EF30F097EF30F0F4
:10612A0071EF30F012001A6E1A50B9EC2DF0000916
:10613A00D8B4A2EF30F0A4EF30F099EF30F016C0E7
:10614A0005F017C006F018C007F019C008F02EECC9
:10615A0033F0000E0A6E000E0B6E000E0C6E000E6F
:10616A000D6E60EC33F0E8EC33F0DBEC32F0E8066D
:10617A00D8B4C2EF30F0C4EF30F0BAEF30F012000A
:10618A00056E0001FF51D8B4CDEF30F0CFEF30F0FB
:10619A00C6EF30F09DB8D4EF30F0D6EF30F0DAEF3A
:1061AA0030F005C0ADFFEFEF30F09D988C0E5A2409
:1061BA00D96EDA6A000EDA2205C0DFFF5A2A070E04
:1061CA005A64EAEF30F0ECEF30F0EEEF30F0000E08
:1061DA005A6EFF079D881200010E0B6E200E0518DD
:1061EA000610D8B4FBEF30F0FDEF30F016EF31F0C7
:1061FA00F70E076EFF0E086E05C009F006C00AF01A
:10620A000750092608500A220A5009E1050E095CBE
:10621A00D8A012EF31F014EF31F016EF31F0000E82
:10622A000B6E0BC005F0066A1200000E221A000E51
:10623A00231A000E241A800E251A1EC005F01FC04C
:10624A0006F020C007F021C008F022C009F023C0E0
:10625A000AF024C00BF025C00CF070EC1CF005C04D
:10626A001EF006C01FF007C020F008C021F012007F
:10627A001A6E1A50B9EC2DF00009D8B447EF31F074
:10628A0049EF31F03EEF31F016C005F017C006F0C5
:10629A0018C007F019C008F02EEC33F0E4EC33F024
:1062AA00DBEC32F0E806D8B45DEF31F05FEF31F0A5
:1062BA0055EF31F01200000E166E000E156E71EFDA
:1062CA0031F014C007F0086A12C009F013C00AF0CE
:1062DA006EEC2DF0154A162A15501024D96E165058
:1062EA001120DA6EDF50146E1450D8A47FEF31F00B
:1062FA0081EF31F066EF31F01200146E010E156E67
:10630A00000183B38BEF31F08DEF31F0A2EF31F062
:10631A008383000E156E1450D8B496EF31F098EFBF
:10632A0031F09CEF31F0010E816F9EEF31F0020ED9
:10633A00816F26EC34F051EC33F015501200080E40
:10634A000001FF61ABEF31F0ADEF31F0C3EF31F097
:10635A008C0E5924D96EDA6A000EDA22DF50AD6E3D
:10636A00592A070E5964BCEF31F0BEEF31F0C0EF85
:10637A0031F0000E596EFF2BC4EF31F09D981200D8
:10638A0020EE02F00E50D9260F50DA22DECF05F0A9
:10639A00DDCF06F00EC0D9FF0FC0DAFFDECF07F05F
:1063AA00DDCF08F02EEC33F0000E0A6E000E0B6EF5
:1063BA00000E0C6E000E0D6E6CEC33F0020E120025
:1063CA00BF0E076EFF0E086E05C009F006C00AF080
:1063DA000750092608500A220A500AE11A0E095CD7
:1063EA00D8A0FAEF31F0FDEF31F0010EFEEF31F0F7
:1063FA00000E056E066A12000550061007100810F6
:10640A00D8B40AEF32F00CEF32F014EF32F0000E8B
:10641A00051A000E061A000E071A800E081A05C081
:10642A0005F006C006F007C007F008C008F0120021
:10643A00D00E076EFF0E086E05C009F006C00AF0FE
:10644A000750092608500A220A500AE10A0E095C76
:10645A00D8A032EF32F035EF32F0010E36EF32F0DB
:10646A00000E056E066A120005C007F006C008F0A5
:10647A0041EF32F0054A062A05C0D9FF06C0DAFF05
:10648A00DF50D8A44BEF32F04DEF32F03FEF32F04D
:10649A000750055C056E08500658066E1200000E7D
:1064AA008D6E000E8C6E000E896E000E8A6E000EC6
:1064BA008B6E070E966E92689368BF0E946EF90EF5
:1064CA00956E7E681F0E7F6E000E7C6EF18E120036
:1064DA0001EE00F0680EEE6AE806FDE100EE60F0FB
:1064EA00590EEE6AE806FDE15A6A596A586A576A0D
:1064FA00566A5B905B920001D5EF2FF00EC005F053
:10650A000FC006F0000E086E010E076E2EEC33F077
:10651A00000E0A6E000E0B6E000E0C6E000E0D6E53
:10652A006CEC33F0040E12000EC005F00FC006F03A
:10653A00000E086E020E076E2EEC33F0000E0A6E85
:10654A00000E0B6E000E0C6E000E0D6E6CEC33F02E
:10655A00020E12000EC005F00FC006F0000E086E03
:10656A00010E076E2EEC33F0000E0A6E000E0B6E53
:10657A00000E0C6E000E0D6E6CEC33F0020E120063
:10658A000EC005F00FC006F0000E086E020E076E70
:10659A002EEC33F0000E0A6E000E0B6E000E0C6E1F
:1065AA00000E0D6E6CEC33F0040E1200010E056E37
:1065BA00000183B3E3EF32F0E5EF32F0EFEF32F0B0
:1065CA0083957C692CEC34F028EC34F02AEC34F016
:1065DA0082C005F005501200F90E0101706F000E1D
:1065EA00716F000E0001F16F000EF26FF7C0F3F049
:1065FA00F8C0F4F0700EF56F010EF66F07EC30F08C
:10660A001200000E5824D96EDA6A010EDA22AECFD1
:10661A00DFFF582A070E586415EF33F017EF33F0EF
:10662A0019EF33F0000E586E562A12000550070271
:10663A00F3CF09F0F4CF0AF005500802F3500A2606
:10664A0006500702F3500A2609C005F00AC006F0F0
:10665A001200000183A734EF33F036EF33F03FEF37
:10666A0033F005C07DF006C07EF007C07FF008C099
:10667A0080F083971200C6BA45EF33F047EF33F044
:10668A0050EF33F0000EC76E080EC66E000EC56ED0
:10669A00130EC86EC68A120057EF33F097EC33F028
:1066AA0033EC2FF0000183B35DEF33F05FEF33F08B
:1066BA0053EF33F012000AC005F00BC006F00CC00D
:1066CA0007F00DC008F0020E81EC2EF012000AC08D
:1066DA0005F00BC006F00CC007F00DC008F0000E64
:1066EA0081EC2EF012002EEC34F08DEC33F054ECE9
:1066FA0032F0C6EC33F0BEEC2EF01200C5BC88EFC7
:10670A0033F08BEF33F0010E8CEF33F0000E1200F2
:10671A00000EC76E080EC66E000EC56E130EC86E4A
:10672A00C69A12009EA69CEF33F09EEF33F097EFC5
:10673A0033F01200000183817C517C2508EC34F08F
:10674A00030E120000018381D8807C3508EC34F0F6
:10675A00050E120000018393000E826F0E0E1200C6
:10676A00000183911CEC34F0040E120000018393A3
:10677A00000E826F0E0E1200066E0650C5EC30F047
:10678A001200600ED36E000E9B6E120005C0FDF063
:10679A0006C0FEF0120005C06EF106C06FF11200CD
:1067AA0005C06AF106C06BF1120005C06CF106C0A3
:1067BA006DF1120005C068F106C069F11200010E00
:1067CA0082EC31F01200000E82EC31F012000FEC74
:1067DA0034F0090E12000FEC34F00A0E12000CEC21
:1067EA0034F0050E120022EC34F0000E120024ECF4
:1067FA0034F0010E120024EC34F0020E120024ECE4
:10680A0034F0010E1200056E05C0C9FF1200C59AC8
:10681A00C5881200C58AC5881200AB98AB881200D9
:10682A0006EC33F012009E861200C9501200C5868B
:10683A001200050E1200010E1200C5841200C58254
:10684A001200C58012009D961200C69A12009E96EA
:08685A001200D09E1200120092
:020000040020DA
:08000000FFFFFFFFFFFFFFFF00
:020000040030CA
:0E000000FF081F1EFF0B81FF0FC00FE00F4017
:00000001FF
