:0400000058EF00F0C5
:100008005B82FACF01F0FBCF02F0D9CF03F0DACF51
:1000180004F0F2AC12EF00F014EF00F04EEF00F035
:100028009DA819EF00F01BEF00F031EF00F09EA83B
:1000380020EF00F022EF00F031EF00F002D82FEFB0
:1000480000F00500FA6E0001FD51FD6EFE51FE6ED6
:10005800FF6AFA5012004EEF00F09DAA36EF00F04A
:1000680038EF00F04EEF00F09EAA3DEF00F03FEFB2
:1000780000F04EEF00F002D84CEF00F00500FA6EE9
:1000880001017651FD6E7751FE6EFF6AFA5012003B
:100098004EEF00F004C0DAFF03C0D9FF02C0FBFF37
:0C00A80001C0FAFF5B921100A5EF32F0DE
:1010000000E667BE67AE672C580A5BDA675A5D7800
:1010100068706868686068586850684868CE671883
:101020006044697374616E7A203D20252E30666DB0
:101030006D200920252E3166636D0D0A00494E464C
:10104000004E414E00696E66006E616E006C660077
:01105000009F
:10105200890E166E290E63EC2FF0216E890E166E24
:10106200010E176E290ED5EC2FF0880E166E000EAB
:10107200176E290ED5EC2FF0C00E166E290E63ECFA
:101082002FF0216EF80E166E290E6AEC2EF016C0A5
:101092001FF017C020F0040E0001A56FA50E166EFA
:1010A200000E176E000E196E010E186E290ED0EC8E
:1010B20030F0600E166E010E176E000E196E040EE1
:1010C200186E290E75EC31F0200E166E290E6AECA0
:1010D2002EF016C01FF017C020F0280E166E290E33
:1010E2006AEC2EF016C01FF017C020F0440E166EE8
:1010F200290E6AEC2EF016C01FF017C020F0640E05
:10110200166E290E6AEC2EF016C01FF017C020F0E2
:10111200640E166E290E6AEC2EF016C01FF017C070
:1011220020F0010E166E290E63EC2FF0010E166EE2
:10113200290E63EC2FF0500E166E290E63EC2FF081
:10114200460E166E290E63EC2FF0500E166E290E07
:1011520063EC2FF0500E166E290E63EC2FF0510E39
:10116200166E290E6AEC2EF016C01FF017C020F082
:10117200010E166E290E63EC2FF0500E166E290E1C
:1011820063EC2FF0510E166E290E6AEC2EF016C08B
:101192001FF017C020F0700E166E290E63EC2FF0B0
:1011A200710E166E290E6AEC2EF016C01FF017C0D3
:1011B20020F0800E166E010E176E290ED5EC2FF060
:1011C200FF0E166E010E176E290ED5EC2FF0000ED3
:1011D200166E000E176E290ED5EC2FF0910E166EBC
:1011E200290E63EC2FF0000E166E010E176E290EFB
:1011F200D5EC2FF0FF0E166E000E176E290ED5ECF1
:101202002FF0800E166E000E176E290ED5EC2FF001
:10121200440E0001A56F000EA66F200EA76FA50E4B
:10122200166E000E176E000E196E030E186E290E42
:10123200D0EC30F0600E166E290E63EC2FF0216EAA
:10124200600E166E000E176E290ED5EC2FF0600E92
:10125200166E290E63EC2FF0216E600E166E000ED4
:10126200176E290ED5EC2FF0600E166E290E63EC68
:101272002FF0216E600E166E020E176E290ED5EC3F
:101282002FF0600E166E290E63EC2FF0216E600EA9
:10129200166E120E176E290ED5EC2FF0440E0001B9
:1012A200A56F000EA66F200EA76FA50E166E000E7C
:1012B200176E000E196E030E186E290ED0EC30F068
:1012C200010E166EFF0E176E290ED5EC2FF08A0E48
:1012D200166E290E176E290ED5EC2FF0800E166EA3
:1012E200010E176E290ED5EC2FF0FF0E166E010EB1
:1012F200176E290ED5EC2FF0000E166E000E176E2B
:10130200290ED5EC2FF0FF0E166E060E176E290E63
:10131200D5EC2FF0830E166E290E63EC2FF0830EA0
:10132200166E050E176E290ED5EC2FF0FF0E166EF7
:10133200070E176E290ED5EC2FF0810E166E010ED8
:10134200176E290ED5EC2FF0800E166E010E176E59
:10135200290ED5EC2FF0940E166E020E176E290E82
:10136200D5EC2FF0830E166E000E176E290ED5ECFB
:101372002FF0830E166E290E63EC2FF0830E166E7D
:10138200010E176E290ED5EC2FF0900E166E290E57
:1013920063EC2FF0940E166E7B0E176E290ED5ECB1
:1013A2002FF0830E166E000E176E290ED5EC2FF05D
:1013B200830E166E290E63EC2FF0830E166E010E4D
:1013C200176E290ED5EC2FF0900E166E290E63ECD7
:1013D2002FF0940E166E770E176E290ED5EC2FF0A5
:1013E200830E166E000E176E290ED5EC2FF0830EAB
:1013F200166E290E63EC2FF0830E166E010E176E19
:10140200290ED5EC2FF0900E0001A56FA50E166ED9
:10141200000E176E000E196E010E186E290ED0EC1A
:1014220030F0600E166E010E176E000E196E040E6D
:10143200186E290E75EC31F0940E166E780E176E3A
:10144200290ED5EC2FF0830E166E000E176E290EA4
:10145200D5EC2FF0830E166E290E63EC2FF0830E5F
:10146200166E010E176E290ED5EC2FF0900E0001AC
:10147200A56FA50E166E000E176E000E196E010EE8
:10148200186E290ED0EC30F0600E166E010E176E3B
:10149200000E196E040E186E290E75EC31F0940EC2
:1014A200166E790E176E290ED5EC2FF0830E166E7E
:1014B200000E176E290ED5EC2FF0830E166E290E34
:1014C20063EC2FF0830E166E010E176E290ED5EC0B
:1014D2002FF0900E0001A56FA50E166E000E176E6E
:1014E200000E196E010E186E290ED0EC30F0600E4F
:1014F200166E010E176E000E196E040E186E290E6E
:1015020075EC31F0940E166E7A0E176E290ED5EC2C
:101512002FF0830E166E000E176E290ED5EC2FF0EB
:10152200830E166E290E63EC2FF0830E166E010EDB
:10153200176E290ED5EC2FF0900E0001A56FA50EA7
:10154200166E000E176E000E196E010E186E290E21
:10155200D0EC30F0600E166E010E176E000E196E92
:10156200040E186E290E75EC31F0810E166E000E07
:10157200176E290ED5EC2FF0FF0E166E060E176EA3
:10158200290ED5EC2FF0830E166E290E63EC2FF088
:10159200830E166E010E176E290ED5EC2FF0FF0E7C
:1015A200166E010E176E290ED5EC2FF0000E166E78
:1015B200010E176E290ED5EC2FF0FF0E166E000EDF
:1015C200176E290ED5EC2FF0800E166E000E176ED8
:1015D200290ED5EC2FF0C00E166E290E63EC2FF0FB
:1015E200C20E166E290E63EC2FF0800E166E010EDF
:1015F200176E290ED5EC2FF0FF0E166E010E176E28
:10160200290ED5EC2FF0000E166E000E176E290E65
:10161200D5EC2FF0FF0E166E060E176E290ED5ECC6
:101622002FF0830E166E290E63EC2FF0830E166ECA
:10163200050E176E290ED5EC2FF0FF0E166E070E53
:10164200176E290ED5EC2FF0810E166E010E176E55
:10165200290ED5EC2FF0800E166E010E176E290E94
:10166200D5EC2FF0940E166E6B0E176E290ED5EC7C
:101672002FF0830E166E000E176E290ED5EC2FF08A
:10168200830E166E290E63EC2FF0830E166E010E7A
:10169200176E290ED5EC2FF0900E0001A56FA50E46
:1016A200166E000E176E000E196E010E186E290EC0
:1016B200D0EC30F0600E166E010E176E000E196E31
:1016C200040E186E290E75EC31F0940E166E240E6F
:1016D200176E290ED5EC2FF0830E166E000E176EC4
:1016E200290ED5EC2FF0830E166E290E63EC2FF027
:1016F200830E166E010E176E290ED5EC2FF0900E8A
:101702000001A56FA50E166E000E176E000E196E63
:10171200010E186E290ED0EC30F0600E166E010E1E
:10172200176E000E196E040E186E290E75EC31F04C
:10173200940E166E250E176E290ED5EC2FF0830E21
:10174200166E000E176E290ED5EC2FF0830E166E54
:10175200290E63EC2FF0830E166E010E176E290E02
:10176200D5EC2FF0900E0001A56FA50E166E000E9F
:10177200176E000E196E010E186E290ED0EC30F0A5
:10178200600E166E010E176E000E196E040E186EA4
:10179200290E75EC31F0810E166E000E176E290EB1
:1017A200D5EC2FF0FF0E166E060E176E290ED5EC35
:1017B2002FF0830E166E290E63EC2FF0830E166E39
:1017C200010E176E290ED5EC2FF0FF0E166E010ECC
:1017D200176E290ED5EC2FF0000E166E010E176E45
:1017E200290ED5EC2FF0FF0E166E000E176E290E85
:1017F200D5EC2FF0800E166E000E176E290ED5EC6A
:101802002FF0FF0E166E010E176E290ED5EC2FF07B
:101812004F0E166E000E176E290ED5EC2FF04E0EDF
:10182200166E2C0E176E290ED5EC2FF0FF0E166ECB
:10183200000E176E290ED5EC2FF0B60E166EB40EF2
:10184200176E290ED5EC2FF0B00E0001A56F000E19
:10185200A66FF00EA76FE70EA86F3F0EA96F000EDE
:10186200AA6F000EAB6FA50E166E000E176E000E5D
:10187200196E070E186E290ED0EC30F0B00E000172
:10188200A56FA50E166E000E176E000E196E010ED4
:10189200186E290ED0EC30F0600E166E010E176E27
:1018A200000E196E060E186E290E75EC31F0FF0E41
:1018B200166E010E176E290ED5EC2FF0000E166E65
:1018C200000E176E290ED5EC2FF0FF0E166E000ECD
:1018D200176E290ED5EC2FF0090E166E000E176E3C
:1018E200290ED5EC2FF0100E166E000E176E290E73
:1018F200D5EC2FF0110E166E000E176E290ED5ECD8
:101902002FF0240E166E010E176E290ED5EC2FF055
:10191200250E166EFF0E176E290ED5EC2FF0750EE2
:10192200166E000E176E290ED5EC2FF0FF0E166EF6
:10193200010E176E290ED5EC2FF04E0E166E2C0EE0
:10194200176E290ED5EC2FF0480E166E000E176E8C
:10195200290ED5EC2FF0300E166E200E176E290EC2
:10196200D5EC2FF0FF0E166E000E176E290ED5EC79
:101972002FF0300E166E090E176E290ED5EC2FF0D1
:10198200540E166E000E176E290ED5EC2FF0310E86
:10199200166E040E176E290ED5EC2FF0320E166E4F
:1019A200030E176E290ED5EC2FF0400E166E830E25
:1019B200176E290ED5EC2FF0460E166E250E176EF9
:1019C200290ED5EC2FF0600E166E000E176E290E42
:1019D200D5EC2FF0270E166E000E176E290ED5ECE1
:1019E2002FF0500E166E060E176E290ED5EC2FF044
:1019F200510E166E000E176E290ED5EC2FF0520EF8
:101A0200166E960E176E290ED5EC2FF0560E166E28
:101A1200080E176E290ED5EC2FF0570E166E300EEB
:101A2200176E290ED5EC2FF0610E166E000E176E92
:101A3200290ED5EC2FF0620E166E000E176E290ECF
:101A4200D5EC2FF0640E166E000E176E290ED5EC33
:101A52002FF0650E166E000E176E290ED5EC2FF0C4
:101A6200660E166EA00E176E290ED5EC2FF0FF0E25
:101A7200166E010E176E290ED5EC2FF0220E166E81
:101A8200320E176E290ED5EC2FF0470E166E140E7D
:101A9200176E290ED5EC2FF0490E166EFF0E176E3B
:101AA200290ED5EC2FF04A0E166E000E176E290E77
:101AB200D5EC2FF0FF0E166E000E176E290ED5EC28
:101AC2002FF07A0E166E0A0E176E290ED5EC2FF035
:101AD2007B0E166E000E176E290ED5EC2FF0780EC7
:101AE200166E210E176E290ED5EC2FF0FF0E166E14
:101AF200010E176E290ED5EC2FF0230E166E340E42
:101B0200176E290ED5EC2FF0420E166E000E176ED0
:101B1200290ED5EC2FF0440E166EFF0E176E290E0D
:101B2200D5EC2FF0450E166E260E176E290ED5EC4B
:101B32002FF0460E166E050E176E290ED5EC2FF0FD
:101B4200400E166E400E176E290ED5EC2FF00E0EBB
:101B5200166E060E176E290ED5EC2FF0200E166E9D
:101B62001A0E176E290ED5EC2FF0430E166E400E8C
:101B7200176E290ED5EC2FF0FF0E166E000E176EA3
:101B8200290ED5EC2FF0340E166E030E176E290EA9
:101B9200D5EC2FF0350E166E440E176E290ED5ECCD
:101BA2002FF0FF0E166E010E176E290ED5EC2FF0D8
:101BB200310E166E040E176E290ED5EC2FF04B0E59
:101BC200166E090E176E290ED5EC2FF04C0E166EFE
:101BD200050E176E290ED5EC2FF04D0E166E040E63
:101BE200176E290ED5EC2FF0FF0E166E000E176E33
:101BF200290ED5EC2FF0440E166E000E176E290E2C
:101C0200D5EC2FF0450E166E200E176E290ED5EC70
:101C12002FF0470E166E080E176E290ED5EC2FF018
:101C2200480E166E280E176E290ED5EC2FF0670E91
:101C3200166E000E176E290ED5EC2FF0700E166E72
:101C4200040E176E290ED5EC2FF0710E166E010ED2
:101C5200176E290ED5EC2FF0720E166EFE0E176E51
:101C6200290ED5EC2FF0760E166E000E176E290E89
:101C7200D5EC2FF0770E166E000E176E290ED5ECEE
:101C82002FF0FF0E166E010E176E290ED5EC2FF0F7
:101C92000D0E166E010E176E290ED5EC2FF0FF0EEB
:101CA200166E000E176E290ED5EC2FF0800E166EF2
:101CB200010E176E290ED5EC2FF0010E166EF80EDE
:101CC200176E290ED5EC2FF0FF0E166E010E176E51
:101CD200290ED5EC2FF08E0E166E010E176E290E00
:101CE200D5EC2FF0000E166E010E176E290ED5ECF4
:101CF2002FF0FF0E166E000E176E290ED5EC2FF088
:101D0200800E166E000E176E290ED5EC2FF00A0EFD
:101D1200166E040E176E290ED5EC2FF0840E166E79
:101D2200290E63EC2FF0840E166E010E176E290E2B
:101D3200D5EC2FF00B0E166E010E176E290ED5EC98
:101D42002FF00B0E166E000E176E290ED5EC2FF02B
:101D5200130E166E290E63EC2FF0FF0E166E010E97
:101D6200176E290ED5EC2FF0840E166E290E6AEC32
:101D72002EF016C01FF017C020F0FF0E166E000ED8
:101D8200176E290ED5EC2FF0F80E166E290E6AEC9E
:101D92002EF016C01FF017C020F0040E0001A56F30
:101DA200A50E166E000E176E000E196E010E186E3D
:101DB200290ED0EC30F0600E166E010E176E000E7A
:101DC200196E040E186E290E75EC31F0200E166E87
:101DD200290E6AEC2EF016C01FF017C020F0280E54
:101DE200166E290E6AEC2EF016C01FF017C020F0F6
:101DF200440E166E290E6AEC2EF016C01FF017C0A4
:101E020020F0640E166E290E6AEC2EF016C01FF03A
:101E120017C020F0640E166E290E6AEC2EF016C062
:101E22001FF017C020F0010E166E290E63EC2FF082
:101E3200216E010E166E290E63EC2FF0216E500EEC
:101E4200166E290E63EC2FF0216E460E166E290EC9
:101E520063EC2FF0216E500E166E290E63EC2FF0FC
:101E6200216E500E166E290E63EC2FF0216E510E6C
:101E7200166E290E6AEC2EF016C01FF017C020F065
:101E8200010E166E290E63EC2FF0216E500E166EA7
:101E9200290E63EC2FF0216E510E166E290E6AEC9C
:101EA2002EF016C01FF017C020F0700E166E290E0D
:101EB20063EC2FF0216E710E166E290E6AEC2EF075
:101EC20016C01FF017C020F0090E166E290E63EC23
:101ED2002FF0216E010E166E290E63EC2FF0216E8B
:101EE200010E166E290E63EC2FF0216E010E166E96
:101EF200E80E176E290ED5EC2FF0010E166E290E84
:101F020063EC2FF0216E500E166E290E63EC2FF04B
:101F1200216E460E166E290E63EC2FF0216E500EC6
:101F2200166E290E63EC2FF0216E500E166E290EDE
:101F320063EC2FF0216E510E166E290E6AEC2EF014
:101F420016C01FF017C020F0010E166E290E63ECAA
:101F52002FF0216E500E166E290E63EC2FF0216EBB
:101F6200510E166E290E6AEC2EF016C01FF017C025
:101F720020F0700E166E290E63EC2FF0216E710E9A
:101F82000001A56F020EA66F940EA76FA50E166E26
:101F9200000E176E000E196E030E186E290ED0EC8D
:101FA20030F0010E166E290E63EC2FF0500E166EF5
:101FB200290E63EC2FF0700E166E290E63EC2FF0D3
:101FC200500E166E290E63EC2FF0500E166E290E6F
:101FD20063EC2FF0510E166E290E6AEC2EF016C02D
:101FE2001FF017C020F0010E166E290E63EC2FF0C1
:101FF200500E166E290E63EC2FF0510E166E290E3E
:102002006AEC2EF016C01FF017C020F0700E166E8C
:10201200290E63EC2FF0710E166E290E6AEC2EF06B
:1020220016C01FF017C020F0FF0E166E010E176EBD
:10203200290ED5EC2FF04F0E166E000E176E290EDC
:10204200D5EC2FF04E0E166E2C0E176E290ED5EC17
:102052002FF0FF0E166E000E176E290ED5EC2FF024
:10206200B60E166EB40E176E290ED5EC2FF0800E3A
:10207200166E000E176E290ED5EC2FF0010E166E9D
:10208200010E176E290ED5EC2FF0000E166E410EC2
:10209200176E290ED5EC2FF0130E166E290E63EC77
:1020A2002FF0130E166E290E63EC2FF0130E166E20
:1020B200290E63EC2FF0130E166E290E63EC2FF02F
:1020C200130E166E290E63EC2FF0130E166E290EE8
:1020D20063EC2FF0130E166E290E63EC2FF0130E25
:1020E200166E290E63EC2FF0130E166E290E63EC9A
:1020F2002FF0130E166E290E63EC2FF0130E166ED0
:10210200290E63EC2FF0130E166E290E63EC2FF0DE
:10211200130E166E290E63EC2FF0130E166E290E97
:1021220063EC2FF00B0E166E010E176E290ED5EC16
:102132002FF00B0E166E000E176E290ED5EC2FF037
:10214200130E166E290E63EC2FF0000E166E000EA3
:10215200176E290ED5EC2FF0010E166E020E176EB9
:10216200290ED5EC2FF0000E166E010E176E290EF9
:10217200D5EC2FF0130E166E290E63EC2FF0130E12
:10218200166E290E63EC2FF0130E166E290E63ECF9
:102192002FF0130E166E290E63EC2FF00B0E166E37
:1021A200010E176E290ED5EC2FF00B0E166E000ED7
:1021B200176E290ED5EC2FF0130E166E290E63EC56
:1021C2002FF0000E166E000E176E290ED5EC2FF0B2
:1021D200010E166EE80E176E290ED5EC2FF0B00E1A
:1021E2000001A56F070EA66F000EA76F000EA86F65
:1021F200000EA96F000EAA6F000EAB6FA50E166E31
:10220200000E176E000E196E070E186E290ED0EC16
:1022120030F0B00E0001A56FA50E166E000E176EFF
:10222200000E196E010E186E290ED0EC30F0600E01
:10223200166E010E176E000E196E060E186E290E1E
:1022420075EC31F0010E166EC00E176E290ED5EC2C
:102252002FF0800E166E010E176E290ED5EC2FF0A0
:10226200FF0E166E010E176E290ED5EC2FF0000E22
:10227200166E000E176E290ED5EC2FF0910E166E0B
:102282003C0E176E290ED5EC2FF0000E166E010EC5
:10229200176E290ED5EC2FF0FF0E166E000E176E7C
:1022A200290ED5EC2FF0800E166E000E176E290E39
:1022B200D5EC2FF0000E166E010E176E290ED5EC1E
:1022C2002FF0000E166E290E63EC2FF0216E130E06
:1022D200166E290E63EC2FF0216E130E166E290E68
:1022E20063EC2FF0216E130E166E290E63EC2FF0A5
:1022F200216E130E166E290E63EC2FF0216E130E53
:10230200166E290E63EC2FF0216E130E166E290E37
:1023120063EC2FF0216E130E166E290E63EC2FF074
:10232200216E130E166E290E63EC2FF0216E130E22
:10233200166E290E63EC2FF0216E130E166E290E07
:1023420063EC2FF0216E130E166E290E63EC2FF044
:10235200216E130E166E290E63EC2FF0216E130EF2
:10236200166E290E63EC2FF0216E130E166E290ED7
:1023720063EC2FF0216E130E166E290E63EC2FF014
:10238200216E130E166E290E63EC2FF0216E130EC2
:10239200166E290E63EC2FF0216E130E166E290EA7
:1023A20063EC2FF0216E130E166E290E63EC2FF0E4
:1023B200216E130E166E290E63EC2FF0216E130E92
:1023C200166E290E63EC2FF0216E130E166E290E77
:1023D20063EC2FF0216E130E166E290E63EC2FF0B4
:1023E200216E130E166E290E63EC2FF0216E140E61
:1023F2000001A56FA50E166E000E176E000E196E67
:10240200010E186E290ED0EC30F0600E166E010E21
:10241200176E000E196E0C0E186E290E75EC31F047
:10242200FF0E166E010E176E290ED5EC2FF0B60EAA
:10243200166E290E6AEC2EF016C01FF017C020F09F
:10244200FF0E166E000E176E290ED5EC2FF00B0E36
:10245200166E010E176E290ED5EC2FF00B0E166EAE
:10246200000E176E290ED5EC2FF0130E166E290EE4
:1024720063EC2FF0FF0E166E010E176E290ED5ECCF
:102482002FF0B60E166E290E6AEC2EF016C01FF053
:1024920017C020F0FF0E166E000E176E290ED5EC37
:1024A2002FF0010E166EE80E176E290ED5EC2FF0E6
:1024B200B00E0001A56F0F0EA66F000EA76F000EE3
:1024C200A86F000EA96F000EAA6F000EAB6FA50ECB
:1024D200166E000E176E000E196E070E186E290E7C
:1024E200D0EC30F0010E166EC00E176E290ED5EC30
:1024F2002FF0800E166E010E176E290ED5EC2FF0FE
:10250200FF0E166E010E176E290ED5EC2FF0000E7F
:10251200166E000E176E290ED5EC2FF0910E166E68
:102522003C0E176E290ED5EC2FF0000E166E010E22
:10253200176E290ED5EC2FF0FF0E166E000E176ED9
:10254200290ED5EC2FF0800E166E000E176E290E96
:10255200D5EC2FF0000E166E010E176E290ED5EC7B
:102562002FF0000E166E290E63EC2FF0216E130E63
:10257200166E290E63EC2FF0216E130E166E290EC5
:1025820063EC2FF0216E130E166E290E63EC2FF002
:10259200216E130E166E290E63EC2FF0216E130EB0
:1025A200166E290E63EC2FF0216E130E166E290E95
:1025B20063EC2FF0216E130E166E290E63EC2FF0D2
:1025C200216E130E166E290E63EC2FF0216E130E80
:1025D200166E290E63EC2FF0216E130E166E290E65
:1025E20063EC2FF0216E130E166E290E63EC2FF0A2
:1025F200216E130E166E290E63EC2FF0216E130E50
:10260200166E290E63EC2FF0216E130E166E290E34
:1026120063EC2FF0216E130E166E290E63EC2FF071
:10262200216E130E166E290E63EC2FF0216E130E1F
:10263200166E290E63EC2FF0216E130E166E290E04
:1026420063EC2FF0216E130E166E290E63EC2FF041
:10265200216E130E166E290E63EC2FF0216E130EEF
:10266200166E290E63EC2FF0216E130E166E290ED4
:1026720063EC2FF0216E130E166E290E63EC2FF011
:10268200216E130E166E290E63EC2FF0216E140EBE
:102692000001A56FA50E166E000E176E000E196EC4
:1026A200010E186E290ED0EC30F0600E166E010E7F
:1026B200176E000E196E0C0E186E290E75EC31F0A5
:1026C200FF0E166E010E176E290ED5EC2FF0B60E08
:1026D200166E290E6AEC2EF016C01FF017C020F0FD
:1026E200FF0E166E000E176E290ED5EC2FF00B0E94
:1026F200166E010E176E290ED5EC2FF00B0E166E0C
:10270200000E176E290ED5EC2FF0130E166E290E41
:1027120063EC2FF0FF0E166E010E176E290ED5EC2C
:102722002FF0B60E166E290E6AEC2EF016C01FF0B0
:1027320017C020F0FF0E166E000E176E290ED5EC94
:102742002FF0010E166EE80E176E290ED5EC2FF043
:10275200B00E0001A56F1F0EA66F000EA76F000E30
:10276200A86F000EA96F000EAA6F000EAB6FA50E28
:10277200166E000E176E000E196E070E186E290ED9
:10278200D0EC30F0010E166EC00E176E290ED5EC8D
:102792002FF0800E166E010E176E290ED5EC2FF05B
:1027A200FF0E166E010E176E290ED5EC2FF0000EDD
:1027B200166E000E176E290ED5EC2FF0910E166EC6
:1027C2003C0E176E290ED5EC2FF0000E166E010E80
:1027D200176E290ED5EC2FF0FF0E166E000E176E37
:1027E200290ED5EC2FF0800E166E000E176E290EF4
:1027F200D5EC2FF0000E166E010E176E290ED5ECD9
:102802002FF0000E166E290E63EC2FF0216E130EC0
:10281200166E290E63EC2FF0216E130E166E290E22
:1028220063EC2FF0216E130E166E290E63EC2FF05F
:10283200216E130E166E290E63EC2FF0216E130E0D
:10284200166E290E63EC2FF0216E130E166E290EF2
:1028520063EC2FF0216E130E166E290E63EC2FF02F
:10286200216E130E166E290E63EC2FF0216E130EDD
:10287200166E290E63EC2FF0216E130E166E290EC2
:1028820063EC2FF0216E130E166E290E63EC2FF0FF
:10289200216E130E166E290E63EC2FF0216E130EAD
:1028A200166E290E63EC2FF0216E130E166E290E92
:1028B20063EC2FF0216E130E166E290E63EC2FF0CF
:1028C200216E130E166E290E63EC2FF0216E130E7D
:1028D200166E290E63EC2FF0216E130E166E290E62
:1028E20063EC2FF0216E130E166E290E63EC2FF09F
:1028F200216E130E166E290E63EC2FF0216E130E4D
:10290200166E290E63EC2FF0216E130E166E290E31
:1029120063EC2FF0216E130E166E290E63EC2FF06E
:10292200216E130E166E290E63EC2FF0216E140E1B
:102932000001A56FA50E166E000E176E000E196E21
:10294200010E186E290ED0EC30F0600E166E010EDC
:10295200176E000E196E0C0E186E290E75EC31F002
:10296200FF0E166E010E176E290ED5EC2FF0B60E65
:10297200166E290E6AEC2EF016C01FF017C020F05A
:10298200FF0E166E000E176E290ED5EC2FF00B0EF1
:10299200166E010E176E290ED5EC2FF00B0E166E69
:1029A200000E176E290ED5EC2FF0130E166E290E9F
:1029B20063EC2FF0FF0E166E010E176E290ED5EC8A
:1029C2002FF0B60E166E290E6AEC2EF016C01FF00E
:1029D20017C020F0FF0E166E000E176E290ED5ECF2
:1029E2002FF0010E166EE80E176E290ED5EC2FF0A1
:1029F200010E166E010E176E290ED5EC2FF0000E89
:102A0200166E410E176E290ED5EC2FF0130E166EB0
:102A1200290E63EC2FF0130E166E290E63EC2FF0C5
:102A2200130E166E290E63EC2FF0130E166E290E7E
:102A320063EC2FF0130E166E290E63EC2FF0130EBB
:102A4200166E290E63EC2FF0130E166E290E63EC30
:102A52002FF0130E166E290E63EC2FF0130E166E66
:102A6200290E63EC2FF0130E166E290E63EC2FF075
:102A7200130E166E290E63EC2FF0130E166E290E2E
:102A820063EC2FF0130E166E290E63EC2FF00B0E73
:102A9200166E010E176E290ED5EC2FF00B0E166E68
:102AA200000E176E290ED5EC2FF0130E166E290E9E
:102AB20063EC2FF0000E166E000E176E290ED5EC89
:102AC2002FF0FF0E166E010E176E290ED5EC2FF0A9
:102AD200000E166E000E176E290ED5EC2FF0FF0EAB
:102AE200166E000E176E290ED5EC2FF0CB0E166E59
:102AF200290E63EC2FF0FF0E166E010E176E290ED3
:102B0200D5EC2FF0000E166E010E176E290ED5ECC5
:102B12002FF0FF0E166E000E176E290ED5EC2FF059
:102B2200010E166E020E176E290ED5EC2FF0000E56
:102B3200166E010E176E290ED5EC2FF0000E166ED2
:102B4200290E63EC2FF0130E166E290E63EC2FF094
:102B5200130E166E290E63EC2FF0130E166E290E4D
:102B620063EC2FF00B0E166E010E176E290ED5ECCC
:102B72002FF00B0E166E000E176E290ED5EC2FF0ED
:102B8200130E166E290E63EC2FF0000E166E000E59
:102B9200176E290ED5EC2FF0FF0E166E010E176E72
:102BA200290ED5EC2FF0000E166E000E176E290EB0
:102BB200D5EC2FF0FF0E166E000E176E290ED5EC17
:102BC2002FF0EE0E166E290E63EC2FF0FF0E166E2E
:102BD200010E176E290ED5EC2FF0000E166E010EA7
:102BE200176E290ED5EC2FF0FF0E166E000E176E23
:102BF200290ED5EC2FF0010E166EE80E176E290E77
:102C0200D5EC2FF0440E0001A56F000EA66F200E2A
:102C1200A76FA50E166E000E176E000E196E030E2C
:102C2200186E290ED0EC30F01A0E1E6EF80EE82E39
:102C3200FED71E2EFCD700F000F01200000E00019D
:102C4200D06F000ECF6F34C0E1F035C0E2F036C075
:102C5200E3F037C0E4F0E4BF33EF16F031EF16F0E3
:102C620049EF16F0000ED06F010ECF6FE1C005F0F4
:102C7200E2C006F0E3C007F0E4C008F039EC32F03D
:102C820005C0E1F006C0E2F007C0E3F008C0E4F0DE
:102C9200000E0001E86F000EE76F9EC0D3F09FC0E8
:102CA200D4F0CF51D011D8A459EF16F05BEF16F043
:102CB20062EF16F0A2A560EF16F062EF16F07CEF5D
:102CC20016F0CF51D011D8A469EF16F06BEF16F0C1
:102CD20071EF16F0000EB66F2B0EB56F75EF16F092
:102CE200000EB66F2D0EB56FB5C010F1E74BE82B95
:102CF200D307D8A0D407E1C005F0E2C006F0E3C0D4
:102D020007F0E4C008F002EC2AF005040610D8A48B
:102D12008DEF16F08FEF16F0E6EF16F0BF0E396E5C
:102D2200FF0E3A6E38503B6E3C6A39503B263A50A1
:102D32003C223C500AE11A0E3B5CD8A0A3EF16F0ED
:102D4200A6EF16F0010EA7EF16F0000E0001B76F06
:102D5200B86BB751B811D8B4B1EF16F0B3EF16F0A3
:102D6200C1EF16F0100EE725056E010EE821066E82
:102D72003D0E076E100E086EA1EC30F0CDEF16F08E
:102D8200100EE725056E010EE821066E450E076E50
:102D9200100E086EA1EC30F00001FD0ED327FF0EDD
:102DA200D42332C017F033C018F0100E196E010E82
:102DB2001A6ED3C01BF0D4C01CF0EFEC2AF017C07F
:102DC20032F018C033F071EF1CF0E1C005F0E2C040
:102DD20006F0E3C007F0E4C008F002EC2AF0055068
:102DE2000610D8A4F7EF16F0F9EF16F050EF17F02F
:102DF200BF0E396EFF0E3A6E38503B6E3C6A395048
:102E02003B263A503C223C500AE11A0E3B5CD8A0C9
:102E12000DEF17F010EF17F0010E11EF17F0000E83
:102E22000001B96FBA6BB951BA11D8B41BEF17F0E0
:102E32001DEF17F02BEF17F0100EE725056E010EB0
:102E4200E821066E410E076E100E086EA1EC30F0FE
:102E520037EF17F0100EE725056E010EE821066E1A
:102E6200490E076E100E086EA1EC30F00001FD0E47
:102E7200D327FF0ED42332C017F033C018F0100E40
:102E8200196E010E1A6ED3C01BF0D4C01CF0EFEC09
:102E92002AF017C032F018C033F071EF1CF0000EA8
:102EA2000001E96F000EEA6F800EEB6F3F0EEC6FD0
:102EB200000EE66F000EE56FE1C005F0E2C006F01D
:102EC200E3C007F0E4C008F0000E096E000E0A6EBF
:102ED200000E0B6E000E0C6E30EC2DF0D8B074EFBD
:102EE20017F076EF17F0F9EF17F095EF17F0E9C04A
:102EF20005F0EAC006F0EBC007F0ECC008F0000EE7
:102F0200096E000E0A6E200E0B6E410E0C6E22EC44
:102F120021F005C0E9F006C0EAF007C0EBF008C0F6
:102F2200ECF00001E54BE62BE1C01EF0E2C01FF021
:102F3200E3C020F0E4C021F0000E096E000E0A6E1C
:102F4200200E0B6E410E0C6EE9C005F0EAC006F0D1
:102F5200EBC007F0ECC008F022EC21F005C022F033
:102F620006C023F007C024F008C025F080EC29F049
:102F7200D8B0BEEF17F0C0EF17F078EF17F0E0EF20
:102F820017F0E9C005F0EAC006F0EBC007F0ECC0AC
:102F920008F0000E096E000E0A6E200E0B6E410E36
:102FA2000C6E37EC23F005C0E9F006C0EAF007C06A
:102FB200EBF008C0ECF00001E507D8A0E607E1C09D
:102FC2001EF0E2C01FF0E3C020F0E4C021F0E9C02F
:102FD20022F0EAC023F0EBC024F0ECC025F080EC34
:102FE20029F0D8A0F7EF17F0F9EF17F0C2EF17F0BA
:102FF20038C00BF00C6A71EC30F00B500001D66F48
:10300200D6C0D5F0670ED619D8A40AEF18F00CEF87
:1030120018F032EF18F0A051A111D8A413EF18F054
:1030220015EF18F019EF18F0000EA16F010EA06F46
:10303200A1BF26EF18F0A15106E1A005D8B024EFF8
:1030420018F026EF18F02CEF18F0000ED26F060ED3
:10305200D16F3BEF18F0A0C0D1F0A1C0D2F03BEF8E
:1030620018F0A1BF37EF18F039EF18F026EF18F07B
:103072002CEF18F0670ED619D8A442EF18F044EFDF
:1030820018F073EF18F0E6AF52EF18F0FC0EE55DA2
:10309200FF0EE659D8A050EF18F052EF18F071EF7A
:1030A20018F0FF0E396EFF0E3A6ED1C03BF0D2C05F
:1030B2003CF039503B263A503C22E5513B5C3C50B7
:1030C200800A3D6EE651800A3D58D8A06BEF18F099
:1030D2006DEF18F071EF18F0660ED56F73EF18F000
:1030E200650ED56FD1C0C7F0D2C0C8F0670ED61931
:1030F200D8A47EEF18F080EF18F090EF18F0660E6B
:10310200D519D8A487EF18F089EF18F092EF18F0CC
:10311200E6BF90EF18F08EEF18F092EF18F0C74B61
:10312200C82B660ED519D8A499EF18F09BEF18F0AA
:10313200BBEF18F0E6BFA2EF18F0A0EF18F0AEEF69
:1031420018F0000EE96F000EEA6F800EEB6F3F0E73
:10315200EC6F000EE66F000EE56F670ED619D8B45D
:10316200B5EF18F0B7EF18F0BBEF18F0E551C7272D
:10317200E651C823000EE06F000EDF6FE1C0D7F00A
:10318200E2C0D8F0E3C0D9F0E4C0DAF0E9C0C9F097
:10319200EAC0CAF0EBC0CBF0ECC0CCF04CEF19F0B7
:1031A200D7C005F0D8C006F0D9C007F0DAC008F0E1
:1031B200E9C009F0EAC00AF0EBC00BF0ECC00CF079
:1031C20037EC23F005C01EF006C01FF007C020F048
:1031D20008C021F04DEC26F01EC0DBF01FC0DCF071
:1031E20020C0DDF021C0DEF0DBC005F0DCC006F05F
:1031F200DDC007F0DEC008F0FDEC28F005C0CDF020
:1032020006C0CEF0D7C01EF0D8C01FF0D9C020F043
:10321200DAC021F0E9C009F0EAC00AF0EBC00BF015
:10322200ECC00CF0DBC005F0DCC006F0DDC007F03E
:10323200DEC008F022EC21F005C022F006C023F027
:1032420007C024F008C025F052EC31F01EC0D7F0C0
:103252001FC0D8F020C0D9F021C0DAF0E9C005F0D3
:10326200EAC006F0EBC007F0ECC008F0000E096EF1
:10327200000E0A6E200E0B6E410E0C6E37EC23F020
:1032820005C0E9F006C0EAF007C0EBF008C0ECF0B8
:103292000001DF4BE02BC751DF5DE051800A396E40
:1032A200C851800A3958D8A059EF19F05BEF19F0CC
:1032B200D1EF18F0E9C005F0EAC006F0EBC007F064
:1032C200ECC008F0000E096E000E0A6EA00E0B6E26
:1032D200400E0C6E22EC21F005C0DBF006C0DCF0E3
:1032E20007C0DDF008C0DEF0D7C01EF0D8C01FF066
:1032F200D9C020F0DAC021F0DBC022F0DCC023F01C
:10330200DDC024F0DEC025F080EC29F0D8B08CEFCF
:1033120019F08EEF19F099EF19F0000E0001DB6F32
:10332200000EDC6F000EDD6F000EDE6FC2EF19F0D3
:10333200D7C005F0D8C006F0D9C007F0DAC008F04F
:10334200DBC009F0DCC00AF0DDC00BF0DEC00CF01F
:1033520030EC2DF0D8A0B0EF19F0B2EF19F0C2EFB7
:1033620019F00001CDB1B8EF19F0BAEF19F0C2EFC0
:1033720019F0000EDB6F000EDC6F000EDD6F000E29
:10338200DE6FE1C005F0E2C006F0E3C007F0E4C082
:1033920008F0DBC009F0DCC00AF0DDC00BF0DEC0D3
:1033A2000CF072EC1CF005C0D7F006C0D8F007C0D4
:1033B200D9F008C0DAF0D7C01EF0D8C01FF0D9C0CB
:1033C20020F0DAC021F0000E096E000E0A6E200E07
:1033D2000B6E410E0C6EC9C005F0CAC006F0CBC020
:1033E20007F0CCC008F022EC21F005C022F006C0A4
:1033F20023F007C024F008C025F080EC29F0D8A003
:1034020005EF1AF007EF1AF030EF1AF00001E54B62
:10341200E62BC9C005F0CAC006F0CBC007F0CCC08D
:1034220008F0000E096E000E0A6E200E0B6E410EA1
:103432000C6E22EC21F005C0C9F006C0CAF007C02C
:10344200CBF008C0CCF0660E0001D519D8A42CEF41
:103452001AF02EEF1AF030EF1AF0C74BC82BC9C082
:10346200E9F0CAC0EAF0CBC0EBF0CCC0ECF0650EDC
:103472000001D519D8B440EF1AF042EF1AF048EF24
:103482001AF0E5C0C5F0E6C0C6F04CEF1AF0000E27
:10349200C66F000EC56F000EC46F000EC36F000E24
:1034A200C26F000EC16F000EE06F000EDF6F47EFBC
:1034B2001BF0D7C005F0D8C006F0D9C007F0DAC0BB
:1034C20008F0E9C009F0EAC00AF0EBC00BF0ECC06A
:1034D2000CF037EC23F005C01EF006C01FF007C049
:1034E20020F008C021F04DEC26F01EC0DBF01FC01A
:1034F200DCF020C0DDF021C0DEF0DBC005F0DCC076
:1035020006F0DDC007F0DEC008F0FDEC28F005C0D3
:10351200CDF006C0CEF00001A2B992EF1AF094EFFE
:103522001AF0B1EF1AF0CD51CE11D8A49BEF1AF0D8
:103532009DEF1AF0B1EF1AF0670ED619D8A4A4EFD6
:103542001AF0A6EF1AF0B1EF1AF0C6BFADEF1AF0FB
:10355200ABEF1AF0B1EF1AF0C14BC22BFBEF1AF02E
:10356200C351C411D8A4B8EF1AF0BAEF1AF0E4EFBD
:103572001AF0C6BFC1EF1AF0BFEF1AF0E4EF1AF06B
:10358200100EE725D96E010EE821DA6E2E0EDF6EDF
:10359200E74BE82BD307D8A0D407000EC46F010E67
:1035A200C36FE4EF1AF0100EE725D96E010EE82181
:1035B200DA6E300EDF6EE74BE82BD307D8A0D407C4
:1035C200C107D8A0C207C151C211D8A4EBEF1AF0AB
:1035D200EDEF1AF0D4EF1AF0100EE725D96E010EB6
:1035E200E821DA6ECD51300FDF6EE74BE82BD307BF
:1035F200D8A0D407D7C01EF0D8C01FF0D9C020F081
:10360200DAC021F0E9C009F0EAC00AF0EBC00BF021
:10361200ECC00CF0DBC005F0DCC006F0DDC007F04A
:10362200DEC008F022EC21F005C022F006C023F033
:1036320007C024F008C025F052EC31F01EC0D7F0CC
:103642001FC0D8F020C0D9F021C0DAF0E9C005F0DF
:10365200EAC006F0EBC007F0ECC008F0000E096EFD
:10366200000E0A6E200E0B6E410E0C6E37EC23F02C
:1036720005C0E9F006C0EAF007C0EBF008C0ECF0C4
:103682000001C507D8A0C607DF4BE02BC751DF5D9D
:10369200E051800A396EC851800A3958D8B054EFC7
:1036A2001BF056EF1BF064EF1BF0E8BF62EF1BF05C
:1036B200E85109E14B0EE75DD8A062EF1BF064EF21
:1036C2001BF05AEF1AF0C351C411D8A46BEF1BF0D0
:1036D2006DEF1BF07EEF1BF0A2A972EF1BF074EFEF
:1036E2001BF07EEF1BF0100EE725D96E010EE821CC
:1036F200DA6E2E0EDF6EE74BE82B100EE725D96E41
:10370200010EE821DA6E000EDF6E650ED519D8A41F
:103712008DEF1BF08FEF1BF05FEF1CF0000EE06FE0
:103722004F0EDF6F100EDF25D96E010EE021DA6E2B
:10373200000EDF6E000ED06F000ECF6FE6BFA6EF59
:103742001BF0A4EF1BF0AEEF1BF0000ED06F010ECA
:10375200CF6FE56DE61FD8B0E62B000ED26F020EDA
:10376200D16FDFEF1BF0DF07D8A0E007100EDF25D7
:10377200D96E010EE021DA6EE5C005F0E6C006F072
:10378200000E086E0A0E076ED8EC2CF00550300FB2
:10379200DF6EE5C005F0E6C006F0000E086E0A0E08
:1037A200076EB4EC2BF005C0E5F006C0E6F00001B0
:1037B200D107D8A0D207D307D8A0D407E551E61184
:1037C200D8A4E6EF1BF0E8EF1BF0B4EF1BF0D2BF7A
:1037D200F5EF1BF0D25106E1D105D8B0F3EF1BF0A3
:1037E200F5EF1BF0B4EF1BF0DF07D8A0E007CF51D5
:1037F200D011D8A4FFEF1BF001EF1CF007EF1CF073
:10380200000EBC6F2B0EBB6F0BEF1CF0000EBC6FDB
:103812002D0EBB6F100EDF25D96E010EE021DA6E80
:10382200BBC0DFFFD307D8A0D407DF07D8A0E007CB
:10383200BF0E396EFF0E3A6E38503B6E3C6A3950FD
:103842003B263A503C223C500AE11A0E3B5CD8A07F
:103852002DEF1CF030EF1CF0010E31EF1CF0000ECA
:10386200BF6FC06BBF51C011D8A43AEF1CF03CEF40
:103872001CF042EF1CF0000EBE6F650EBD6F46EFEE
:103882001CF0000EBE6F450EBD6F100EDF25D96E07
:10389200010EE021DA6EBDC0DFFFD307D8A0D40746
:1038A200100EE725056E010EE821066E100EDF25CB
:1038B200076E010EE021086EA1EC30F032C017F065
:1038C20033C018F0100E196E010E1A6ED3C01BF021
:1038D200D4C01CF0EFEC2AF017C032F018C033F05D
:1038E20012000850800B116E08500824136E07AEA8
:1038F2007DEF1CF07FEF1CF080EF1CF01380135063
:10390200D8B486EF1CF088EF1CF09DEF1CF0132852
:10391200D8A48EEF1CF090EF1CF098EF1CF0000E74
:10392200056E000E066E000E076E000E086E078E04
:10393200000E086EA5EF1CF0000E056E000E066E5E
:10394200000E076E000E086E0C50800B126E1150A6
:103952001218D8B4AFEF1CF0B1EF1CF0B2EF1CF0AC
:10396200118C0C500C24126E0BAEBAEF1CF0BCEF93
:103972001CF0BDEF1CF012801250D8B4C3EF1CF043
:10398200C5EF1CF0DAEF1CF01228D8A4CBEF1CF024
:10399200CDEF1CF0D5EF1CF0000E096E000E0A6E82
:1039A200000E0B6E000E0C6E0B8E000E0C6EE2EF14
:1039B2001CF0000E096E000E0A6E000E0B6E000E59
:1039C2000C6E1350125CD8B0E9EF1CF0EBEF1CF058
:1039D20012EF1DF011ACF0EF1CF0F2EF1CF0F4EF5F
:1039E2001CF0800E111A13C014F012C013F014C090
:1039F20012F005C014F009C005F014C009F006C0A9
:103A020014F00AC006F014C00AF007C014F00BC08C
:103A120007F014C00BF008C014F00CC008F014C07A
:103A22000CF0000E146E135012C00DF00E6A0D5EF3
:103A3200000E0E5A0EBE27EF1DF00E5009E11A0EAF
:103A42000D5CD8A027EF1DF029EF1DF060EF1DF0EF
:103A52000550061007100810D8A432EF1DF035EFFC
:103A62001DF0010E36EF1DF0000E146E000E056EF5
:103A7200000E066E000E076E000E086E12C013F0E6
:103A820069EF1DF014A048EF1DF04AEF1DF050EF52
:103A92001DF0D89014300109146E52EF1DF0D89029
:103AA200143205A057EF1DF059EF1DF05AEF1DF02B
:103AB200148E08340832073206320532132A1250A5
:103AC200135CD8A067EF1DF069EF1DF043EF1DF006
:103AD20011BC6EEF1DF070EF1DF0B0EF1DF0135032
:103AE200D8A476EF1DF078EF1DF082EF1DF0000EE6
:103AF200056E000E066E000E076E000E086ED1EF08
:103B02001EF0095005260A5006220B5007220C50BF
:103B1200082208A08FEF1DF091EF1DF03DEF1EF07F
:103B220014A096EF1DF098EF1DF09EEF1DF0D890B7
:103B320014300109146EA0EF1DF0D890143205A0C4
:103B4200A5EF1DF0A7EF1DF0A8EF1DF0148E0834AD
:103B52000832073206320532132A3DEF1EF00950B1
:103B6200055C0A5006580B5007580850800A0D6E23
:103B72000C50800A0D58D8B0C1EF1DF0C3EF1DF0F4
:103B8200EEEF1DF00550095C0D6E06500A580E6EE0
:103B920007500B580F6E08500C58106EFF0E0D2474
:103BA200056EFF0E0E20066EFF0E0F20076EFF0E33
:103BB2001020086E800E111A146C1450D8A4E4EF71
:103BC2001DF0E6EF1DF0F6EF1DF0010E0526000ECA
:103BD200062207220822F6EF1DF00950055E0A5060
:103BE200065A0B50075A0C50085A05500610071077
:103BF2000810D8A4FFEF1DF001EF1EF036EF1EF003
:103C02001450D8A407EF1EF009EF1EF036EF1EF095
:103C1200000E056E000E066E000E076E000E086E98
:103C2200D1EF1EF0D890053606360736083614AEA8
:103C32001DEF1EF01FEF1EF020EF1EF0058014A0F6
:103C420025EF1EF027EF1EF02BEF1EF0D880143662
:103C52002DEF1EF0D89014361350D8B433EF1EF067
:103C620035EF1EF036EF1EF0130607AE3BEF1EF0E7
:103C72003DEF1EF013EF1EF0000E126E14AE44EF75
:103C82001EF046EF1EF05EEF1EF014C00DF07F0E28
:103C92000D16D8B44FEF1EF051EF1EF055EF1EF087
:103CA200010E126E5EEF1EF005A05AEF1EF05CEFE1
:103CB2001EF05EEF1EF051EF1EF01250D8B464EF0A
:103CC2001EF066EF1EF091EF1EF0010E0526000EAB
:103CD20006220722082208A071EF1EF073EF1EF0E1
:103CE20091EF1EF005C00DF006C00EF007C00FF0F8
:103CF20008C010F0103410320F320E320D320DC0E7
:103D020005F00EC006F00FC007F010C008F013282F
:103D1200D8B48EEF1EF090EF1EF091EF1EF0132A32
:103D22001328D8B497EF1EF099EF1EF0A1EF1EF002
:103D32001350D8A49FEF1EF0A1EF1EF0B3EF1EF0B8
:103D4200000E056E000E066E000E076E000E086E67
:103D52001350D8A4AFEF1EF0B1EF1EF0B3EF1EF078
:103D6200000E116E13A0B8EF1EF0BAEF1EF0BDEFF9
:103D72001EF0078EBEEF1EF0079ED8901330086E1D
:103D820011AEC6EF1EF0C8EF1EF0C9EF1EF0088E8E
:103D920005C005F006C006F007C007F008C008F02D
:103DA200120040C0D9FF41C0DAFFDECFF6FFDDCFFF
:103DB200F7FFF86A0800F550250AD8A4E3EF1EF0D1
:103DC200E5EF1EF005EF21F040C0D9FF41C0DAFF58
:103DD200DE2A000EDD22000E00019F6F000E9E6F94
:103DE2009EC0A2F09FC0A3F0A069A16940C0D9FF04
:103DF20041C0DAFFDECFF6FFDDCFF7FFF86A080039
:103E0200F5502E0AD8A408EF1FF00AEF1FF089EF31
:103E12001FF0000EA16F000EA06F40C0D9FF41C07D
:103E2200DAFFDE2A000EDD2240C0D9FF41C0DAFFF0
:103E3200DECFF6FFDDCFF7FFF86A0800F5502A0A59
:103E4200D8A426EF1FF028EF1FF045EF1FF040C067
:103E5200D9FF41C0DAFFDE2A000EDD2242C0D9FFBF
:103E620043C0DAFFDFCF44F0020EDE26DFCF45F09B
:103E7200000EDD2244C0D9FF45C0DAFFDECFA0F03C
:103E8200DDCFA1F089EF1FF040C0D9FF41C0DAFFBA
:103E9200DECF0CF0DDCF0DF030EC28F00CC0A0F03E
:103EA2000DC0A1F05CEF1FF040C0D9FF41C0DAFFA6
:103EB200DE2A000EDD22D00E446EFF0E456E40C09B
:103EC200D9FF41C0DAFFDECFF6FFDDCFF7FFF86A98
:103ED2000800F550466E476A445046264550472230
:103EE20047500AE10A0E465CD8A07AEF1FF07DEF38
:103EF2001FF0010E7EEF1FF0000E486E496A485017
:103F02004910D8A487EF1FF089EF1FF055EF1FF07B
:103F120040C0D9FF41C0DAFFDECFF6FFDDCFF7FFA9
:103F2200F86A0800F5500B6E0C6A71EC30F00B5019
:103F3200506E5050D8B4A0EF1FF0A2EF1FF0DCEF8C
:103F42001FF040C0D9FF41C0DAFFDECF44F0DDCF21
:103F520045F0010E4426000E452244C0F6FF45C03E
:103F6200F7FFF86A0800F5500B6E0C6A71EC30F03E
:103F72000B50516E5150D8B4C1EF1FF0C3EF1FF078
:103F8200DCEF1FF040C0D9FF41C0DAFFDECF44F0C2
:103F9200DDCF45F0020E4426000E452244C0F6FF56
:103FA20045C0F7FFF86A0800F5500B6E0C6A71EC19
:103FB20030F00B50526E660E5018D8A4E3EF1FF08B
:103FC200E5EF1FF026EF20F040C0D9FF41C0DAFF35
:103FD200DECFF6FFDDCFF7FFF86A0800F5CF53F02A
:103FE20040C0D9FF41C0DAFFDE2A000EDD2242C006
:103FF200D9FF43C0DAFFDFCF44F0040EDE26DFCF65
:1040020045F0000EDD2244C0D9FF45C0DAFFDECF05
:104012004CF0DECF4DF0DECF4EF0DECF4FF03EC0A3
:1040220032F03FC033F04CC034F04DC035F04EC0DA
:1040320036F04FC037F053C038F01FEC16F032C0E4
:104042003EF033C03FF021EF21F0500E056E000E1E
:10405200066E4D0E076E100E086E000E0A6E020EF0
:10406200096E81EC2AF005500610D8A43BEF20F02F
:104072003DEF20F0CEEF20F040C0D9FF41C0DAFF83
:10408200DECF44F0DDCF45F0010E4426000E45227E
:1040920044C0F6FF45C0F7FFF86A0800F5CF53F0B9
:1040A200BF0E446EFF0E456E40C0D9FF41C0DAFF1D
:1040B200DECFF6FFDDCFF7FFF86A0800F550466E57
:1040C200476A445046264550472247500AE11A0E95
:1040D200465CD8A06FEF20F072EF20F0010E73EF74
:1040E20020F0000E4A6E4B6A4A504B10D8B47CEF57
:1040F20020F07EEF20F098EF20F042C0D9FF43C0BD
:10410200DAFFDFCF44F0040EDE26DFCF45F0000EEB
:10411200DD2244C0D9FF45C0DAFFDECF4CF0DECF4E
:104122004DF0DECF4EF0DECF4FF0B0EF20F042C0C8
:10413200D9FF43C0DAFFDFCF44F0040EDE26DFCF23
:1041420045F0000EDD2244C0D9FF45C0DAFFDECFC4
:104152004CF0DECF4DF0DECF4EF0DECF4FF0020E50
:1041620040C0D9FF41C0DAFFDE26000EDD223EC08C
:1041720032F03FC033F04CC034F04DC035F04EC089
:1041820036F04FC037F053C038F01FEC16F032C093
:104192003EF033C03FF021EF21F040C0D9FF41C0D3
:1041A200DAFFDECFF6FFDDCFF7FFF86A0800F55041
:1041B200250AD8A4DFEF20F0E1EF20F0F8EF20F09D
:1041C20040C0D9FF41C0DAFFDE2A000EDD22000E18
:1041D200086E250E076E3EC009F03FC00AF0D8EC0B
:1041E2002DF0000E3F6E010E3E6E21EF21F040C019
:1041F200D9FF41C0DAFFDE2A000EDD22000E3F6E3B
:10420200000E3E6E21EF21F040C0D9FF41C0DAFF1F
:10421200DECFF6FFDDCFF7FFF86A0800F550076E34
:10422200086A3EC009F03FC00AF0D8EC2DF040C049
:10423200D9FF41C0DAFFDE2A000EDD22F2EF20F0C4
:1042420012000850800B116E08500824176E07AE3A
:104252002DEF21F02FEF21F030EF21F017801750D2
:10426200D8B436EF21F038EF21F04BEF21F01728C8
:10427200D8A43EEF21F040EF21F048EF21F0000EEC
:10428200056E000E066E000E076E000E086E078E9B
:1042920053EF21F0000E056E000E066E000E076E43
:1042A200000E086E0C50800B111A0C500C24126E6A
:1042B2000BAE5EEF21F060EF21F061EF21F0128092
:1042C2001250D8B467EF21F069EF21F07CEF21F0B2
:1042D2001228D8A46FEF21F071EF21F079EF21F0CD
:1042E200000E096E000E0A6E000E0B6E000E0C6EB2
:1042F2000B8E84EF21F0000E096E000E0A6E000E86
:104302000B6E000E0C6E1250D8B48AEF21F08CEFB7
:1043120021F094EF21F01750D8A492EF21F094EFFE
:1043220021F09EEF21F0000E056E000E066E000ECB
:10433200076E000E086E36EF23F00B500502F3CF26
:104342001CF0F4CF1DF01C50136E146A156A166A25
:104352001D50186E196A1A6A1B6A0A500602F3CFB8
:104362001CF0F4CF1DF01C501326000E142215224F
:1043720016221D501826000E19221A221B2209503D
:104382000702F3CF1CF0F4CF1DF01C501326000ED1
:104392001422152216221D501826000E19221A2246
:1043A2001B2215C016F014C015F013C014F0136AC6
:1043B20009500602F3CF1CF0F4CF1DF01C50132657
:1043C2001D501422000E1522000E16220A5005025C
:1043D200F3CF1CF0F4CF1DF01C5013261D501422F5
:1043E200000E1522000E162215C016F014C015F08C
:1043F20013C014F0136A09500502F3CF1CF0F4CF76
:104402001DF01C5013261D501422000E1522000E02
:1044120016220B500602F3CF1CF0F4CF1DF01C50F5
:1044220018261D501922000E1A22000E1B220A50B5
:104432000702F3CF1CF0F4CF1DF01C5018261D50BC
:104442001922000E1A22000E1B220B500702F3CF74
:104452001CF0F4CF1DF01C500D6E1D500E6E0F6A35
:10446200106A0FC010F00EC00FF00DC00EF00D6AF2
:104472000D5018260E5019220F501A2210501B22CE
:1044820013C00DF014C00EF015C00FF016C010F0DE
:10449200190E51EF22F0D89010320F320E320D3237
:1044A200E82E4CEF22F00D5018260E5019220F5014
:1044B2001A2210501B2215C016F014C015F013C09A
:1044C20014F0136A125017C00DF00E6A0D26000E7A
:1044D2000E22820E0D241C6EFF0E0E201D6E87EF23
:1044E20022F0D890183619361A361B3616AE7CEFE3
:1044F20022F07EEF22F07FEF22F01880D890133660
:104502001436153616361C06D8A01D061AAE8CEFC8
:1045120022F08EEF22F072EF22F0000E126E16AE33
:1045220095EF22F097EF22F0BBEF22F0FF0E13146B
:104532000D6EFF0E14140E6EFF0E15140F6E7F0E0D
:104542001614106E0D500E100F101010D8B4ACEFE0
:1045520022F0AEEF22F0B2EF22F0010E126EBBEFAC
:1045620022F018A0B7EF22F0B9EF22F0BBEF22F051
:10457200AEEF22F01250D8B4C1EF22F0C3EF22F016
:10458200E7EF22F0010E1826000E19221A221B2232
:104592001BA0CEEF22F0D0EF22F0E7EF22F018C0FE
:1045A2000DF019C00EF01AC00FF01BC010F010343D
:1045B20010320F320E320D320DC018F00EC019F04B
:1045C2000FC01AF010C01BF01C4A1D2A1DBEF2EFCC
:1045D20022F01D5008E11C28D8A0F2EF22F0F4EFDF
:1045E20022F0FEEF22F0000E186E000E196E800E01
:1045F2001A6E7F0E1B6E2CEF23F01DBE0BEF23F005
:104602001D5006E11C04D8B009EF23F00BEF23F094
:1046120017EF23F0000E186E000E196E000E1A6EC0
:10462200000E1B6E000E116E2CEF23F01CC017F053
:10463200FF0E1816FF0E19167F0E1A16000E1B1605
:1046420017A026EF23F028EF23F029EF23F01A8E8C
:10465200D89017301B6E11501B1218C005F019C0EC
:1046620006F01AC007F01BC008F012000850800BB9
:10467200156E085008241C6E07AE42EF23F044EF7B
:1046820023F045EF23F01C801C50D8B44BEF23F0ED
:104692004DEF23F062EF23F01C28D8A453EF23F050
:1046A20055EF23F05DEF23F0000E056E000E066E4F
:1046B200000E076E000E086E078E000E086E6AEF7F
:1046C20023F0000E056E000E066E000E076E000E41
:1046D200086E0C50800B151A0C500C241D6E0BAE7C
:1046E20075EF23F077EF23F078EF23F01D801D5054
:1046F200D8B47EEF23F080EF23F095EF23F01D284E
:10470200D8A486EF23F088EF23F090EF23F0000E79
:10471200096E000E0A6E000E0B6E000E0C6E0B8EF2
:10472200000E0C6E9DEF23F0000E096E000E0A6E55
:10473200000E0B6E000E0C6E09500A100B100C10BE
:10474200D8A4A6EF23F0A8EF23F0C0EF23F0000EC9
:10475200056E000E066E000E076E000E086E800ECD
:1047620007127F0E08121550081205C005F006C088
:1047720006F007C007F008C008F003EF25F01C5050
:10478200D8A4C6EF23F0C8EF23F0D2EF23F0000E37
:10479200056E000E066E000E076E000E086E03EF29
:1047A20025F01D501CC00DF00E6A0D5E000E0E5A53
:1047B2007F0E0D24166E000E0E20176E05C011F02E
:1047C20006C012F007C013F008C014F0000E056E08
:1047D200000E066E000E076E000E086E000E186EBA
:1047E200000E196E000E1A6E000E1B6E000E1D6E6C
:1047F20033EF24F01D50D8B401EF24F003EF24F07E
:104802001AEF24F0D8901136123613361436D89097
:1048120005360636073608361BAE12EF24F014EFC3
:1048220024F015EF24F00580D890183619361A3680
:104832001B360950115C0A5012580B5013580C5079
:104842001458D8A027EF24F029EF24F032EF24F0F7
:104852001B8C0950115E0A50125A0B50135A0C50FD
:10486200145A1D2A190E1D6439EF24F03BEF24F06F
:10487200FBEF23F01150121013101410D8B444EFB0
:1048820024F046EF24F05EEF24F018805EEF24F06F
:10489200D89005360636073608361BAE53EF24F09D
:1048A20055EF24F056EF24F00580D89018361936CB
:1048B2001A361B361606D8A0170607AE63EF24F089
:1048C20065EF24F049EF24F0000E1D6E1BAE6CEF75
:1048D20024F06EEF24F092EF24F0FF0E18140D6E08
:1048E200FF0E19140E6EFF0E1A140F6E7F0E1B149C
:1048F200106E0D500E100F101010D8B483EF24F06C
:1049020085EF24F089EF24F0010E1D6E92EF24F062
:1049120005A08EEF24F090EF24F092EF24F085EFC3
:1049220024F01D50D8B498EF24F09AEF24F0BEEF93
:1049320024F0010E0526000E06220722082208A0F6
:10494200A5EF24F0A7EF24F0BEEF24F005C00DF090
:1049520006C00EF007C00FF008C010F0103410327D
:104962000F320E320D320DC005F00EC006F00FC030
:1049720007F010C008F0164A172A17BEC9EF24F034
:10498200175008E11628D8A0C9EF24F0CBEF24F085
:10499200D6EF24F0000E176E1668000E056E000E9C
:1049A200066E000E076E000E086E17BEE3EF24F0CF
:1049B200175006E11604D8B0E1EF24F0E3EF24F03B
:1049C200F1EF24F0000E176E000E166E000E056E4B
:1049D200000E066E000E076E000E086E000E156EBB
:1049E20016C01CF01CA0F8EF24F0FAEF24F0FDEF43
:1049F20024F0078EFEEF24F0079ED8901C30086E3C
:104A0200B4EF23F01200800E166E010E176E290EFF
:104A1200D5EC2FF0FF0E166E010E176E290ED5EC97
:104A22002FF0000E166E000E176E290ED5EC2FF029
:104A3200910E166E3C0E176E290ED5EC2FF0000E5D
:104A4200166E010E176E290ED5EC2FF0FF0E166EA4
:104A5200000E176E290ED5EC2FF0800E166E000E8A
:104A6200176E290ED5EC2FF0000E166E010E176E82
:104A7200290ED5EC2FF0000E166E290E63EC2FF0E6
:104A82002A6E130E166E290E63EC2FF02A6E130E89
:104A9200166E290E63EC2FF02A6E130E166E290E77
:104AA20063EC2FF02A6E130E166E290E63EC2FF0B4
:104AB2002A6E130E166E290E63EC2FF02A6E130E59
:104AC200166E290E63EC2FF02A6E130E166E290E47
:104AD20063EC2FF02A6E130E166E290E63EC2FF084
:104AE2002A6E130E166E290E63EC2FF02A6E130E29
:104AF200166E290E63EC2FF02A6E130E166E290E17
:104B020063EC2FF02A6E130E166E290E63EC2FF053
:104B12002A6E130E166E290E63EC2FF02A6E130EF8
:104B2200166E290E63EC2FF02A6E130E166E290EE6
:104B320063EC2FF02A6E130E166E290E63EC2FF023
:104B42002A6E130E166E290E63EC2FF02A6E130EC8
:104B5200166E290E63EC2FF02A6E130E166E290EB6
:104B620063EC2FF02A6E130E166E290E63EC2FF0F3
:104B72002A6E130E166E290E63EC2FF02A6E130E98
:104B8200166E290E63EC2FF02A6E130E166E290E86
:104B920063EC2FF02A6E130E166E290E63EC2FF0C3
:104BA2002A6E130E166E290E63EC2FF02A6E130E68
:104BB200166E290E63EC2FF02A6E130E166E290E56
:104BC20063EC2FF02A6E130E166E290E63EC2FF093
:104BD2002A6E1E0E0001A56FA50E166E000E176E30
:104BE200000E196E010E186E290ED0EC30F0600E18
:104BF200166E010E176E000E196E0C0E186E290E2F
:104C020075EC31F0FF0E166E010E176E290ED5EC03
:104C12002FF0B60E166E290E6AEC2EF0FF0E166EEF
:104C2200000E176E290ED5EC2FF00B0E166E010E2C
:104C3200176E290ED5EC2FF00B0E166E000E176EA6
:104C4200290ED5EC2FF0130E166E290E63EC2FF001
:104C520001016051236E226A61512224286E000EE6
:104C62002320296E28C005F029C006F0076A086AC9
:104C7200000E56EC27F005C024F006C025F007C050
:104C820026F008C027F024C01EF025C01FF026C061
:104C920020F027C021F012008CC02EF08DC02FF022
:104CA2008EC030F08FC031F01EC02EF01FC02FF02A
:104CB20020C030F021C031F0810E226EFF0E236E33
:104CC2002EC024F02FC025F030C026F031C027F0CE
:104CD200180E71EF26F0D890273226322532243270
:104CE200E82E6CEF26F0245022242C6E000E232096
:104CF2002D6E2DBE86EF26F02D5009E1170E2C5C8D
:104D0200D8A086EF26F088EF26F092EF26F01EC09C
:104D12001EF01FC01FF020C020F021C021F055EF6F
:104D220027F02DBE97EF26F099EF26F009EF27F036
:104D32002CC022F0FF0E236EFF0E246E7F0E256E16
:104D4200000E266E2266A8EF26F0B0EF26F026347B
:104D52002632253224322332222EA3EF26F023C01C
:104D620028F024C029F025C02AF026C02BF02850B4
:104D72002E14226E29502F14236E2A503014246EC2
:104D82002B503114256E2250231024102510D8A444
:104D9200CDEF26F0CFEF26F0D1EF26F088EF26F008
:104DA2002EC022F02FC023F030C024F031C025F0F5
:104DB200200EE1EF26F0D89025322432233222321F
:104DC200E82EDCEF26F02250231024102510D8B450
:104DD200EDEF26F0EFEF26F0F7EF26F028502E2623
:104DE20029502F222A5030222B503122281C226E89
:104DF200291C236E2A1C246E2B1C256E22502E1673
:104E020023502F1624503016255031164DEF27F01F
:104E12002EC022F02FC023F030C024F031C025F084
:104E2200200E19EF27F0D890253224322332223275
:104E3200E82E14EF27F02250231024102510D8A4B6
:104E420025EF27F027EF27F031EF27F0000E2E6E27
:104E5200000E2F6E000E306E000E316E4DEF27F0F9
:104E6200D8902E34226E2F34236E3034246E313497
:104E7200256E2250231024102510D8B443EF27F0BA
:104E820045EF27F04DEF27F0000E2E6E000E2F6E2D
:104E9200800E306EBF0E316E2EC01EF02FC01FF07E
:104EA20030C020F031C021F012000D6E0D50D8B488
:104EB2005DEF27F05FEF27F081EF27F008BE66EF86
:104EC20027F064EF27F081EF27F005C009F006C054
:104ED2000AF007C00BF008C00CF0091E0A1E0B1ED8
:104EE2000C1E092A000E0A220B220C2209C00FF006
:104EF2000AC010F00BC011F00CC012F089EF27F0BD
:104F020005C00FF006C010F007C011F008C012F083
:104F12000550061007100810D8A492EF27F094EF5E
:104F220027F09EEF27F0000E056E000E066E000EB3
:104F3200076E000E086E2FEF28F0960E0E6EA8EF89
:104F420027F00E2AD8901232113210320F32000E90
:104F52000F14096E000E10140A6E000E11140B6E5F
:104F6200FE0E12140C6E09500A100B100C10D8A46D
:104F7200BDEF27F0BFEF27F0A2EF27F0CDEF27F02C
:104F82000E2A010E0F26000E102211221222D89094
:104F92001232113210320F32000E0F14096E000E4F
:104FA20010140A6E000E11140B6EFF0E12140C6E0A
:104FB20009500A100B100C10D8A4E2EF27F0E4EF0E
:104FC20027F0C1EF27F0ECEF27F00E06D8900F364E
:104FD20010361136123611BEF1EF27F0F3EF27F03B
:104FE200FBEF27F0020E0E60F9EF27F0FBEF27F040
:104FF200E6EF27F00EB000EF28F002EF28F003EF03
:1050020028F0119ED8900E320EC009F00A6A0B6A7F
:105012000C6A09C00CF00B6A0A6A096A09500F127D
:105022000A5010120B5011120C5012120D50D8B41B
:105032001DEF28F01FEF28F027EF28F008BE26EF1B
:1050420028F024EF28F027EF28F0128E0FC005F089
:1050520010C006F011C007F012C008F01200000ED6
:105062001A6E000E196E000E136E000E126E3CEFD9
:1050720028F00C4A0D2A010E186E0CC0F6FF0DC066
:10508200F7FFF86A0800F550200AD8B44BEF28F071
:105092004DEF28F06BEF28F0F70E0E6EFF0E0F6E3D
:1050A2000CC0F6FF0DC0F7FFF86A0800F550106E4D
:1050B200116A0E5010260F501122115009E1050EEF
:1050C200105CD8A067EF28F069EF28F06BEF28F0AA
:1050D200000E186E18C014F0156A14501510D8A4DA
:1050E20075EF28F077EF28F03AEF28F081EF28F0FB
:1050F200000E136E010E126E0C4A0D2AB8EF28F044
:105102000CC0F6FF0DC0F7FFF86A0800F5500E6EEE
:105112000F6A0F50000AD8B491EF28F0B8EF28F0C8
:105122000E502B0AD8B47DEF28F0060AD8B479EFD6
:1051320028F0B8EF28F019C005F01AC006F0000EEA
:10514200086E0A0E076E53EC33F00CC0F6FF0DC06A
:10515200F7FFF86A0800F550055E000E065A300E99
:105162000524196E000E06201A6E7DEF28F0D00E6F
:105172000E6EFF0E0F6E0CC0F6FF0DC0F7FFF86A41
:105182000800F550106E116A0E5010260F501122B1
:1051920011500AE10A0E105CD8A0D2EF28F0D5EF28
:1051A20028F0010ED6EF28F0000E166E176A165080
:1051B2001710D8A4DFEF28F0E1EF28F09CEF28F0D9
:1051C20012501310D8A4E8EF28F0EAEF28F0F8EF15
:1051D20028F019C00EF01AC00FF00E1E0F1E0E4A54
:1051E2000F2A0EC00CF00FC00DF0FCEF28F019C012
:1051F2000CF01AC00DF01200073408340E6E0E5077
:10520200D8A406EF29F008EF29F012EF29F0000EDA
:10521200056E000E066E000E076E000E086E7FEF22
:1052220029F005C009F006C00AF007C00BF008C05B
:105232000CF0200E22EF29F0D8900C320B320A32F9
:105242000932E82E1DEF29F009500D6E078EFF0E70
:105252000516FF0E0616FF0E0716000E0816960E0E
:105262000E5E0EBE39EF29F037EF29F04FEF29F02D
:105272000E50800A970FD8B041EF29F043EF29F082
:1052820045EF29F008EF29F0D890083207320632AC
:1052920005320E3E45EF29F067EF29F01F0E0E642E
:1052A20055EF29F057EF29F05FEF29F008EF29F0C9
:1052B200D89005360636073608360E060E50D8A4A4
:1052C20065EF29F067EF29F059EF29F00D50D8B4B6
:1052D2006DEF29F06FEF29F077EF29F0081E071E16
:1052E200061E056C000E06220722082205C005F0E4
:1052F20006C006F007C007F008C008F01200000E52
:105302001E14266E000E1F14276E800E2014286EA7
:105312007F0E2114296E2650271028102910D8A498
:1053220095EF29F097EF29F09FEF29F0000E1E6EFE
:10533200000E1F6E000E206E000E216E000E221453
:10534200266E000E2314276E800E2414286E7F0E04
:105352002514296E2650271028102910D8A4B4EF3E
:1053620029F0B6EF29F0BEEF29F0000E226E000EF2
:10537200236E000E246E000E256E21AEC3EF29F0BF
:10538200C5EF29F0CEEF29F01E6C1F1ED8B01F2AE0
:10539200201ED8B0202A800E215625AED3EF29F048
:1053A200D5EF29F0DEEF29F0226C231ED8B0232A94
:1053B200241ED8B0242A800E2556000E1E1A000E76
:1053C2001F1A000E201A800E211A000E221A000E39
:1053D200231A000E241A800E251A22501E5C235016
:1053E2001F582450205825502158D8B0FBEF29F0DF
:1053F200FDEF29F000EF2AF0D89001EF2AF0D880D3
:10540200120090C00FF091C010F092C011F093C042
:1054120012F005C00FF006C010F007C011F008C06E
:1054220012F00FC009F010C00AF011C00BF012C048
:105432000CF0180E22EF2AF0D8900C320B320A32FE
:105442000932E82E1DEF2AF009500D6E0E6A0D503A
:105452000E10D8A42FEF2AF031EF2AF051EF2AF0E4
:10546200D8900F34096E10340A6E11340B6E123458
:105472000C6E09500A100B100C10D8A443EF2AF03E
:1054820045EF2AF04BEF2AF0000E066E020E056E73
:1054920080EF2AF0000E066E030E056E80EF2AF0F2
:1054A2000D280E10D8A458EF2AF05AEF2AF07CEFFC
:1054B2002AF00FC009F010C00AF011C00BF012C0A0
:1054C2000CF0090ED89009360A360B360C36E82E47
:1054D20063EF2AF009500A100B100C10D8B474EFC5
:1054E2002AF077EF2AF0010E78EF2AF0000E056E0F
:1054F200066A80EF2AF0000E066E040E056E120098
:1055020005C00CF006C00DF007C00EF008C00FF089
:105512000906D8A00A06092806E10A28D8A494EFA9
:105522002AF096EF2AF0A3EF2AF0000E066E000E84
:10553200056EEEEF2AF00C4A0D2A0E4A0F2A0906D2
:10554200D8A00A060CC0D9FF0DC0DAFFDF50D8B4CC
:10555200ADEF2AF0AFEF2AF0DCEF2AF00EC0F6FF33
:105562000FC0F7FFF86A0800F5500009D8B4BCEF85
:105572002AF0BEEF2AF0DCEF2AF009500A10D8B464
:10558200C5EF2AF0C7EF2AF0DCEF2AF00CC0D9FFF2
:105592000DC0DAFFDF500B6E0EC0F6FF0FC0F7FF33
:1055A200F86A0800F5500B18D8B4DAEF2AF0DCEFED
:1055B2002AF09CEF2AF00CC0D9FF0DC0DAFFDF50B1
:1055C2000B6E0EC0F6FF0FC0F7FFF86A0800F55029
:1055D2000B5C056E066AD8A0060612000001A2A1A5
:1055E200F5EF2AF0F7EF2AF001EF2BF019C010F0D7
:1055F2001AC011F017C012F018C013F098EC31F075
:105602001CBE06EF2BF008EF2BF00EEF2BF01BC0A9
:1056120020F01CC021F012EF2BF0000E216E000EC4
:10562200206E000E1F6E000E1E6E24EF2BF0000E79
:10563200086E200E076E17C009F018C00AF0D8ECE9
:105642002DF01E4A1F2A20501E5C1F50800A1D6E1C
:105652002150800A1D58D8A031EF2BF033EF2BF0E8
:1056620018EF2BF00001A2B139EF2BF03BEF2BF03A
:1056720045EF2BF019C010F01AC011F017C012F04C
:1056820018C013F098EC31F019C005F01AC006F0FA
:1056920071EC32F020500524176E21500620186E4E
:1056A2001200B0EC33F08C8229EC08F0060E0101F6
:1056B2007B6F130E7A6FAD0EE82EFED77A2FFCD7D2
:1056C2007B2FFAD700F000F0F28EF28C04EC25F07A
:1056D2001EC098F01FC099F020C09AF021C09BF024
:1056E20098C005F099C006F09AC007F09BC008F078
:1056F200000E096E000E0A6E200E0B6E410E0C6E2D
:1057020037EC23F005C094F006C095F007C096F080
:1057120008C097F0210E0001F36F100EF46F98C0CD
:10572200F5F099C0F6F09AC0F7F09BC0F8F094C07B
:10573200F9F095C0FAF096C0FBF097C0FCF029ECA6
:1057420033F0060E01017B6F130E7A6FAD0EE82E59
:10575200FED77A2FFCD77B2FFAD700F000F067EF45
:105762002BF058EF00F0000E0A6E08BEBDEF2BF0D2
:10577200BBEF2BF0C3EF2BF0076C081ED8B0082A42
:10578200010E0A6E06BECAEF2BF0C8EF2BF0D0EF67
:105792002BF0056C061ED8B0062A010E0A1A000E5E
:1057A2000C6E000E0B6E07500810D8B4DBEF2BF016
:1057B200DDEF2BF005EF2CF0010E096EE5EF2BF07B
:1057C200D89007360836092A08AEEAEF2BF0ECEF3C
:1057D2002BF0E1EF2BF0D8900B360C360750055C1E
:1057E20008500658D8A0F8EF2BF0FAEF2BF0FFEF95
:1057F2002BF00750055E0850065A0B80D8900832ED
:105802000732092EECEF2BF00A50D8B40BEF2CF034
:105812000DEF2CF011EF2CF00B6C0C1ED8B00C2AF3
:105822000BC005F00CC006F01200BBEC33F000090F
:10583200D8B41EEF2CF020EF2CF05BEF2CF02EEF03
:105842002CF03CEC34F077EF2CF038EC34F077EFBE
:105852002CF030EC34F077EF2CF072C00EF073C005
:105862000FF002D83FEF2CF00500FA6E00016651EE
:10587200FD6E6751FE6EFF6AFA501200106E116AD9
:105882001150000AD8B448EF2CF02AEF2CF0105037
:10589200010AD8B42AEF2CF0030AD8B422EF2CF074
:1058A200010AD8B426EF2CF0070AD8B42AEF2CF05C
:1058B2002AEF2CF0000183917DC0D9FF7EC0DAFF70
:1058C2007D4B7E2BDF5040EC34F000017F07D8A0E7
:1058D20080077F518011D8A471EF2CF073EF2CF068
:1058E20076EF2CF0060E77EF2CF0030E1200840EEA
:1058F2005824D96EDA6A000EDA22000EDF6EABA4EB
:1059020085EF2CF087EF2CF09CEF2CF0840E5824BE
:10591200D96EDA6A000EDA220001DF8202D89CEF29
:105922002CF00500FA6E01017451FD6E7551FE6E88
:10593200FF6AFA501200ABA2A1EF2CF0A3EF2CF0F9
:10594200B8EF2CF0840E5824D96EDA6A000EDA22EF
:105952000001DF8402D8B8EF2CF00500FA6E0101D5
:105962007251FD6E7351FE6EFF6AFA501200840E80
:105972005824D96EDA6A000EDA22DF50D8B4C4EFA6
:105982002CF0C6EF2CF0D5EF2CF002D8D3EF2CF090
:105992000500FA6E01017051FD6E7151FE6EFF6AD3
:1059A200FA501200D7EF2CF03EEC33F01200000E4A
:1059B2000A6E06BEE1EF2CF0DFEF2CF0E7EF2CF0E1
:1059C200056C061ED8B0062A010E0A6E08BEEEEF5E
:1059D2002CF0ECEF2CF0F2EF2CF0076C081ED8B094
:1059E200082A07500810D8B4F9EF2CF0FBEF2CF07E
:1059F2001FEF2DF0010E096E03EF2DF0D890073640
:105A02000836092A08AE08EF2DF00AEF2DF0FFEF55
:105A12002CF00750055C08500658D8A013EF2DF063
:105A220015EF2DF019EF2DF00750055E0850065ABC
:105A3200D89008320732092E0AEF2DF00A50D8B456
:105A420025EF2DF027EF2DF02BEF2DF0056C061E24
:105A5200D8B0062A05C005F006C006F01200000EF6
:105A620005140D6E000E06140E6E800E07140F6ED6
:105A72007F0E0814106E0D500E100F101010D8A4C7
:105A820045EF2DF047EF2DF04FEF2DF0000E056E94
:105A9200000E066E000E076E000E086E000E091450
:105AA2000D6E000E0A140E6E800E0B140F6E7F0E1A
:105AB2000C14106E0D500E100F101010D8A464EFBD
:105AC2002DF066EF2DF06EEF2DF0000E096E000E38
:105AD2000A6E000E0B6E000E0C6E095005180FE1D7
:105AE2000A5006180CE10B50071809E10C5008186F
:105AF200D8B47EEF2DF080EF2DF083EF2DF0D8900B
:105B020084EF2DF0D880120052EC34F07DC0D9FF22
:105B12007EC0DAFFDF6E00017D4B7E2B7F07D8A0AF
:105B220080077F518011D8B499EF2DF09BEF2DF0B3
:105B3200A0EF2DF044EC34F0050ED7EF2DF0838763
:105B4200ABEF2DF024EC34F0D7EF2DF028EC34F04D
:105B5200D7EF2DF06CC00EF06DC00FF002D8BBEF86
:105B62002DF00500FA6E6051FD6E6151FE6EFF6A06
:105B7200FA501200106E116A1150000AD8B4C4EF24
:105B82002DF0A7EF2DF01050010AD8B4A7EF2DF099
:105B9200030AD8B4A3EF2DF0010AD8B4A3EF2DF075
:105BA200070AD8B4A7EF2DF0A7EF2DF01200095085
:105BB2000A10D8B4DFEF2DF0E1EF2DF0EAEF2DF06F
:105BC20009500A10D8A4E8EF2DF0EAEF2DF0EFEF1C
:105BD2002DF00750F9EC33F022EF2EF020EE04F016
:105BE2000950D9260A50DA22DE50DE10D8B4FCEF72
:105BF2002DF0FEEF2DF019EF2EF020EE04F00950FB
:105C0200D9260A50DA2210EE02F00950E1260A5093
:105C1200E222DE50E65CE650800A0F6EDE50800A19
:105C22000F58D8B017EF2EF019EF2EF022EF2EF00A
:105C320020EE02F00950D9260A50DA22DE2A000E9E
:105C4200DD221200056E010E066E000183B52CEFF7
:105C52002EF02EEF2EF068EF2EF005C07CF083932D
:105C6200838583910E0E816F010E7B6FF40E7A6F26
:105C72008387B00E606F680E616F000E6C6F000E4E
:105C82006D6FB00E626F680E636F000E6E6F000E66
:105C92006F6FB00E646F680E656F000E706F000E4E
:105CA200716FB00E666F680E676F000E726F000E36
:105CB200736FAC0E686F680E696F000E746F000E22
:105CC200756F64EC34F078EC33F0000E066E06501B
:105CD20012001B6E000E1D6E000E1C6E1B5023EC7C
:105CE2002EF00009D8B478EF2EF07AEF2EF06FEF95
:105CF2002EF0A20E0A6E650E0B6E1C0E0C6E000EBE
:105D02000D6EA4EC33F0160E056E000E066E000E3C
:105D1200086E010E076E66EC33F0000E0A6E000E7E
:105D22000B6E000E0C6E000E0D6E98EC33F020EC34
:105D320034F013EC33F0E806D8B4A2EF2EF0A4EF5F
:105D42002EF09AEF2EF01DC018F01C50196E18504C
:105D5200166E19C017F0120000018387BEEF2EF0F5
:105D620034EC34F0EAEF2EF050EC34F0030EEAEFAC
:105D72002EF030EC34F0EAEF2EF06CC00EF06DC075
:105D82000FF002D8CEEF2EF00500FA6E6051FD6ED4
:105D92006151FE6EFF6AFA501200106E116A1150C4
:105DA200000AD8B4D7EF2EF0BAEF2EF01050010A45
:105DB200D8B4BAEF2EF0030AD8B4B1EF2EF0010A2C
:105DC200D8B4B1EF2EF0070AD8B4B5EF2EF0BAEF7F
:105DD2002EF01200096E05500610D8B4F3EF2EF023
:105DE200F5EF2EF00FEF2FF00950020D600EF324A5
:105DF200D96E000EF420DA6E05C0DEFF06C0DDFFAC
:105E02000950020D6C0EF324D96E000EF420DA6EE6
:105E120007C0DEFF08C0DDFF27EF2FF00950020D9B
:105E2200600EF324D96E000EF420DA6EB00EDE6E30
:105E3200680EDD6E0950020D6C0EF324D96E000E51
:105E4200F420DA6E000EDE6E000EDD6E12009D9AF8
:105E5200F00E056E580E066E08EC34F09D98B80EE2
:105E6200056E630E066E03EC34F0080EB86E900EEB
:105E7200AB6E240EAC6ECF0EAF6E000EB06ED00EB7
:105E8200056E680E066E12EC34F0940E056E680E06
:105E9200066E0DEC34F09A0E056E680E066E17EC67
:105EA20034F0000E0001A46F000E5A6E000E596EFF
:105EB200080EFF6F000E586E000E576E000E566EE3
:105EC2009D8A1200176E000E186E175023EC2EF0EA
:105ED2000009D8B46FEF2FF071EF2FF066EF2FF0BB
:105EE200CE0E0A6E650E0B6E180E0C6E000E0D6E47
:105EF200A4EC33F0160E056E000E066E000E086E50
:105F0200010E076E66EC33F0000E0A6E000E0B6E89
:105F1200000E0C6E000E0D6E98EC33F020EC34F097
:105F220013EC33F0E806D8B499EF2FF09BEF2FF083
:105F320091EF2FF01850120064EC34F0000183A1AD
:105F4200A5EF2FF0A7EF2FF0B4EF2FF0BBEC33F05B
:105F52000009D8B4AFEF2FF0B1EF2FF0B4EF2FF06C
:105F62000F0E0001816F00018151020D010EF32419
:105F7200F66E100EF420F76EF86A000EF822090091
:105F8200F5CF12F00900F5CF13F002D8D2EF2FF0BF
:105F92000500FA6E1250FD6E1350FE6EFF6AFA5043
:105FA20012000001816F1200186E185023EC2EF0BF
:105FB2000009D8B4DFEF2FF0E1EF2FF0D6EF2FF08A
:105FC200760E0A6E650E0B6E170E0C6E000E0D6EBF
:105FD200A4EC33F0160E056E000E066E000E086E6F
:105FE200010E076E66EC33F0000E0A6E000E0B6EA9
:105FF200000E0C6E000E0D6E98EC33F020EC34F0B7
:1060020013EC33F0E806D8B409EF30F00BEF30F0C0
:1060120001EF30F0120000018391020E826F1AEF3D
:1060220030F034EC34F03EEF30F030EC34F03EEF50
:1060320030F070C00EF071C00FF002D82AEF30F0CD
:106042000500FA6E6451FD6E6551FE6EFF6AFA50EC
:106052001200106E116A1150000AD8B433EF30F0FA
:1060620016EF30F01050020AD8B412EF30F0010AE5
:10607200D8B412EF30F016EF30F01200EFC054F047
:10608200F0C055F0000E00019D6F000E9C6F5DEF99
:1060920030F0EDC03EF0EEC03FF0540E406E000E08
:1060A200416EF1C042F0F2C043F0D2EC1EF03E501D
:1060B20000019C273F509D2354C0F6FF55C0F7FFB7
:1060C200F86A0800F5500009D8A46AEF30F06CEFC6
:1060D20030F04AEF30F09CC0EDF09DC0EEF01200BF
:1060E200BF0E0D6EFF0E0E6E0BC00FF00CC010F047
:1060F2000D500F260E50102210500AE11A0E0F5C9E
:10610200D8A086EF30F089EF30F0010E8AEF30F040
:10611200000E116E126A11501210D8B493EF30F0C3
:1061220095EF30F09CEF30F0200E0B100B6E0C5000
:106132000C6EA0EF30F00BC00BF00CC00CF0120094
:1061420007C00BF008C00CF005C00DF006C00EF041
:106152000B50096E0C500A6E0B4A0C2A09C0F6FF4E
:106162000AC0F7FF000EF86E0DC0D9FF0EC0DAFFAD
:106172000D4A0E2A0F0EF76403D00800F55005D021
:10618200F6CFE9FFF7CFEAFFEF50DF6EDF50D8A47A
:10619200CDEF30F0CFEF30F0A9EF30F012001A6EF1
:1061A2001A5023EC2EF00009D8B4DAEF30F0DCEF0D
:1061B20030F0D1EF30F016C005F017C006F018C06D
:1061C20007F019C008F066EC33F0000E0A6E000EFC
:1061D2000B6E000E0C6E000E0D6E98EC33F020EC80
:1061E20034F013EC33F0E806D8B4FAEF30F0FCEFF9
:1061F20030F0F2EF30F01200056E0001FF51D8B41A
:1062020005EF31F007EF31F0FEEF30F09DB80CEF03
:1062120031F00EEF31F012EF31F005C0ADFF27EF94
:1062220031F09D98080E5A24D96EDA6A010EDA22EC
:1062320005C0DFFF5A2A070E5A6422EF31F024EF1D
:1062420031F026EF31F0000E5A6EFF079D881200E2
:10625200010E0B6E200E05180610D8B433EF31F084
:1062620035EF31F04EEF31F0F70E076EFF0E086E8C
:1062720005C009F006C00AF00750092608500A2294
:106282000A5009E1050E095CD8A04AEF31F04CEF43
:1062920031F04EEF31F0000E0B6E0BC005F0066AC6
:1062A2001200000E221A000E231A000E241A800E6B
:1062B200251A1EC005F01FC006F020C007F021C03D
:1062C20008F022C009F023C00AF024C00BF025C058
:1062D2000CF072EC1CF005C01EF006C01FF007C0E7
:1062E20020F008C021F012001A6E1A5023EC2EF092
:1062F2000009D8B47FEF31F081EF31F076EF31F061
:1063020016C005F017C006F018C007F019C008F053
:1063120066EC33F01CEC34F013EC33F0E806D8B43E
:1063220095EF31F097EF31F08DEF31F01200000E62
:10633200166E000E156EA9EF31F014C007F0086A50
:1063420012C009F013C00AF0D8EC2DF0154A162A33
:1063520015501024D96E16501120DA6EDF50146ECB
:106362001450D8A4B7EF31F0B9EF31F09EEF31F00D
:106372001200146E010E156E000183B3C3EF31F0EB
:10638200C5EF31F0DAEF31F08383000E156E145051
:10639200D8B4CEEF31F0D0EF31F0D4EF31F0010EBE
:1063A200816FD6EF31F0020E816F5EEC34F089EC32
:1063B20033F015501200080E0001FF61E3EF31F0D7
:1063C200E5EF31F0FBEF31F0080E5924D96EDA6AAD
:1063D200010EDA22DF50AD6E592A070E5964F4EF2E
:1063E20031F0F6EF31F0F8EF31F0000E596EFF2B7D
:1063F200FCEF31F09D98120020EE02F00E50D926EB
:106402000F50DA22DECF05F0DDCF06F00EC0D9FF45
:106412000FC0DAFFDECF07F0DDCF08F066EC33F015
:10642200000E0A6E000E0B6E000E0C6E000E0D6E4C
:10643200A4EC33F0020E1200BF0E076EFF0E086EC0
:1064420005C009F006C00AF00750092608500A22C2
:106452000A500AE11A0E095CD8A032EF32F035EF89
:1064620032F0010E36EF32F0000E056E066A1200AF
:106472000550061007100810D8B442EF32F044EF6E
:1064820032F04CEF32F0000E051A000E061A000E22
:10649200071A800E081A05C005F006C006F007C0EC
:1064A20007F008C008F01200D00E076EFF0E086E4B
:1064B20005C009F006C00AF00750092608500A2252
:1064C2000A500AE10A0E095CD8A06AEF32F06DEFB9
:1064D20032F0010E6EEF32F0000E056E066A120007
:1064E20005C007F006C008F079EF32F0054A062A27
:1064F20005C0D9FF06C0DAFFDF50D8A483EF32F01F
:1065020085EF32F077EF32F00750055C056E0850E8
:106512000658066E1200000E8D6E000E8C6E000E76
:10652200896E000E8A6E000E8B6E070E966E926852
:106532009368BF0E946EFD0E956E7E681F0E7F6E81
:10654200000E7C6EF18E120001EE00F0700EEE6A0B
:10655200E806FDE100EE60F0550EEE6AE806FDE1A8
:106562005A6A596A586A576A566A5B905B92000186
:1065720052EF2BF00EC005F00FC006F0000E086EB1
:10658200010E076E66EC33F0000E0A6E000E0B6E03
:10659200000E0C6E000E0D6EA4EC33F0040E120011
:1065A2000EC005F00FC006F0000E086E020E076E58
:1065B20066EC33F0000E0A6E000E0B6E000E0C6ECF
:1065C200000E0D6EA4EC33F0020E12000EC005F0A8
:1065D2000FC006F0000E086E010E076E66EC33F077
:1065E200000E0A6E000E0B6E000E0C6E000E0D6E8B
:1065F200A4EC33F0020E12000EC005F00FC006F03C
:10660200000E086E020E076E66EC33F0000E0A6E84
:10661200000E0B6E000E0C6E000E0D6EA4EC33F02D
:10662200040E1200010E056E000183B31BEF33F05E
:106632001DEF33F027EF33F083957C6964EC34F07F
:1066420060EC34F062EC34F082C005F005501200C8
:10665200F50E0101786F000E796F000E0001ED6FEB
:10666200000EEE6FF3C0EFF0F4C0F0F0780EF16FB1
:10667200010EF26F3FEC30F01200000E5824D96E7A
:10668200DA6A010EDA22AECFDFFF582A070E58640B
:106692004DEF33F04FEF33F051EF33F0000E586E01
:1066A200562A120005500702F3CF09F0F4CF0AF080
:1066B20005500802F3500A2606500702F3500A2634
:1066C20009C005F00AC006F01200000183A76CEFB2
:1066D20033F06EEF33F077EF33F005C07DF006C094
:1066E2007EF007C07FF008C080F083971200C6BA20
:1066F2007DEF33F07FEF33F088EF33F0000EC76E9B
:10670200080EC66E000EC56E130EC86EC68A120043
:106712008FEF33F0CFEC33F09DEC2FF0000183B319
:1067220095EF33F097EF33F08BEF33F012000AC09E
:1067320005F00BC006F00CC007F00DC008F0020E09
:10674200EBEC2EF012000AC005F00BC006F00CC0F4
:1067520007F00DC008F0000EEBEC2EF0120066EC14
:1067620034F0C5EC33F08CEC32F0FEEC33F028EC74
:106772002FF01200C5BCC0EF33F0C3EF33F0010EAF
:10678200C4EF33F0000E1200000EC76E080EC66E84
:10679200000EC56E130EC86EC69A12009EA6D4EFE6
:1067A20033F0D6EF33F0CFEF33F0120000018381E4
:1067B2007C517C2540EC34F0030E120000018381F1
:1067C200D8807C3540EC34F0050E12000001839332
:1067D200000E826F0E0E12000001839154EC34F011
:1067E200040E120000018393000E826F0E0E12003F
:1067F200066E0650FDEC30F01200600ED36E000EF5
:106802009B6E120005C0FDF006C0FEF0120005C02E
:1068120076F106C077F1120005C072F106C073F17D
:10682200120005C074F106C075F1120005C070F1C6
:1068320006C071F11200010EBAEC31F01200000E26
:10684200BAEC31F0120047EC34F0090E120047ECBA
:1068520034F00A0E120044EC34F0050E12005AEC29
:1068620034F0000E12005CEC34F0010E12005CEC0D
:1068720034F0020E12005CEC34F0010E1200056ED0
:1068820005C0C9FF1200C59AC5881200C58AC5880D
:106892001200AB98AB8812003EEC33F012009E86D9
:1068A2001200C9501200C5861200050E1200010E18
:1068B2001200C5841200C5821200C58012009D9686
:1068C2001200C69A12009E961200D09E120012006A
:020000040020DA
:08000000FFFFFFFFFFFFFFFF00
:020000040030CA
:0E000000FF081F1EFF0B81FF0FC00FE00F4017
:00000001FF
