:0400000058EF00F0C5
:100008005B82FACF01F0FBCF02F0D9CF03F0DACF51
:1000180004F0F2AC12EF00F014EF00F04EEF00F035
:100028009DA819EF00F01BEF00F031EF00F09EA83B
:1000380020EF00F022EF00F031EF00F002D82FEFB0
:1000480000F00500FA6E0001FD51FD6EFE51FE6ED6
:10005800FF6AFA5012004EEF00F09DAA36EF00F04A
:1000680038EF00F04EEF00F09EAA3DEF00F03FEFB2
:1000780000F04EEF00F002D84CEF00F00500FA6EE9
:1000880001017651FD6E7751FE6EFF6AFA5012003B
:100098004EEF00F004C0DAFF03C0D9FF02C0FBFF37
:0C00A80001C0FAFF5B9211000DEF33F075
:1010000000C868A0689068FC58DA5BBC682A5E5A21
:101010006952694A6942693A6932692A69B068E87D
:101020006044697374616E7A203D203E3230303006
:101030006D6D2009203E323030636D0D0A00446929
:101040007374616E7A203D20252E30666D6D200907
:1010500020252E3166636D0D0A00494E46004E4133
:101060004E00696E66006E616E006C660000890E4F
:10107000166E290ECBEC2FF0216E890E166E010E26
:10108000176E290E3DEC30F0880E166E000E176EAE
:10109000290E3DEC30F0C00E166E290ECBEC2FF071
:1010A000216EF80E166E290ED2EC2EF016C01FF02F
:1010B00017C020F0040E0001A56FA50E166E000EDD
:1010C000176E000E196E010E186E290E38EC31F0F5
:1010D000600E166E010E176E000E196E040E186E5D
:1010E000290EDDEC31F0200E166E290ED2EC2EF01A
:1010F00016C01FF017C020F0280E166E290ED2EC75
:101100002EF016C01FF017C020F0440E166E290EE8
:10111000D2EC2EF016C01FF017C020F0640E166E31
:10112000290ED2EC2EF016C01FF017C020F0640E6E
:10113000166E290ED2EC2EF016C01FF017C020F04C
:10114000010E166E290ECBEC2FF0010E166E290E35
:10115000CBEC2FF0500E166E290ECBEC2FF0460E76
:10116000166E290ECBEC2FF0500E166E290ECBEC1E
:101170002FF0500E166E290ECBEC2FF0510E166E7E
:10118000290ED2EC2EF016C01FF017C020F0010E71
:10119000166E290ECBEC2FF0500E166E290ECBECEE
:1011A0002FF0510E166E290ED2EC2EF016C01FF045
:1011B00017C020F0700E166E290ECBEC2FF0710EBA
:1011C000166E290ED2EC2EF016C01FF017C020F0BC
:1011D000800E166E010E176E290E3DEC30F0FF0EDC
:1011E000166E010E176E290E3DEC30F0000E166ED5
:1011F000000E176E290E3DEC30F0910E166E290E82
:10120000CBEC2FF0000E166E010E176E290E3DEC82
:1012100030F0FF0E166E000E176E290E3DEC30F00A
:10122000800E166E000E176E290E3DEC30F0440E47
:101230000001A56F000EA66F200EA76FA50E166EFB
:10124000000E176E000E196E030E186E290E38EC84
:1012500031F0600E166E290ECBEC2FF0216E600E71
:10126000166E000E176E290E3DEC30F0600E166EF5
:10127000290ECBEC2FF0216E600E166E000E176E4D
:10128000290E3DEC30F0600E166E290ECBEC2FF0DF
:10129000216E600E166E020E176E290E3DEC30F0B8
:1012A000600E166E290ECBEC2FF0216E600E166EBE
:1012B000120E176E290E3DEC30F0440E0001A56FA2
:1012C000000EA66F200EA76FA50E166E000E176EED
:1012D000000E196E030E186E290E38EC31F0010E57
:1012E000166EFF0E176E290E3DEC30F08A0E166E4C
:1012F000290E176E290E3DEC30F0800E166E010E91
:10130000176E290E3DEC30F0FF0E166E010E176EB3
:10131000290E3DEC30F0000E166E000E176E290EF1
:101320003DEC30F0FF0E166E060E176E290E3DECEA
:1013300030F0830E166E290ECBEC2FF0830E166E56
:10134000050E176E290E3DEC30F0FF0E166E070EDF
:10135000176E290E3DEC30F0810E166E010E176EE1
:10136000290E3DEC30F0800E166E010E176E290E20
:101370003DEC30F0940E166E020E176E290E3DEC09
:1013800030F0830E166E000E176E290E3DEC30F015
:10139000830E166E290ECBEC2FF0830E166E010E07
:1013A000176E290E3DEC30F0900E166E290ECBEC28
:1013B0002FF0940E166E7B0E176E290E3DEC30F05A
:1013C000830E166E000E176E290E3DEC30F0830E64
:1013D000166E290ECBEC2FF0830E166E010E176ED3
:1013E000290E3DEC30F0900E166E290ECBEC2FF04E
:1013F000940E166E770E176E290E3DEC30F0830EAC
:10140000166E000E176E290E3DEC30F0830E166E30
:10141000290ECBEC2FF0830E166E010E176E290EDF
:101420003DEC30F0900E0001A56FA50E166E000E7B
:10143000176E000E196E010E186E290E38EC31F081
:10144000600E166E010E176E000E196E040E186EE9
:10145000290EDDEC31F0940E166E780E176E290E03
:101460003DEC30F0830E166E000E176E290E3DEC2B
:1014700030F0830E166E290ECBEC2FF0830E166E15
:10148000010E176E290E3DEC30F0900E0001A56F95
:10149000A50E166E000E176E000E196E010E186E58
:1014A000290E38EC31F0600E166E010E176E000E2C
:1014B000196E040E186E290EDDEC31F0940E166EC6
:1014C000790E176E290E3DEC30F0830E166E000E6D
:1014D000176E290E3DEC30F0830E166E290ECBEC04
:1014E0002FF0830E166E010E176E290E3DEC30F0B4
:1014F000900E0001A56FA50E166E000E176E000E61
:10150000196E010E186E290E38EC31F0600E166E51
:10151000010E176E000E196E040E186E290EDDEC0A
:1015200031F0940E166E7A0E176E290E3DEC30F0E7
:10153000830E166E000E176E290E3DEC30F0830EF2
:10154000166E290ECBEC2FF0830E166E010E176E61
:10155000290E3DEC30F0900E0001A56FA50E166E21
:10156000000E176E000E196E010E186E290E38EC63
:1015700031F0600E166E010E176E000E196E040E1D
:10158000186E290EDDEC31F0810E166E000E176E0E
:10159000290E3DEC30F0FF0E166E060E176E290E6A
:1015A0003DEC30F0830E166E290ECBEC2FF0830E3F
:1015B000166E010E176E290E3DEC30F0FF0E166E02
:1015C000010E176E290E3DEC30F0000E166E010E66
:1015D000176E290E3DEC30F0FF0E166E000E176EE2
:1015E000290E3DEC30F0800E166E000E176E290E9F
:1015F0003DEC30F0C00E166E290ECBEC2FF0C20E73
:10160000166E290ECBEC2FF0800E166E010E176EA3
:10161000290E3DEC30F0FF0E166E010E176E290EEE
:101620003DEC30F0000E166E000E176E290E3DECEC
:1016300030F0FF0E166E060E176E290E3DEC30F0E0
:10164000830E166E290ECBEC2FF0830E166E050E50
:10165000176E290E3DEC30F0FF0E166E070E176E5A
:10166000290E3DEC30F0810E166E010E176E290E1C
:101670003DEC30F0800E166E010E176E290E3DEC1B
:1016800030F0940E166E6B0E176E290E3DEC30F096
:10169000830E166E000E176E290E3DEC30F0830E91
:1016A000166E290ECBEC2FF0830E166E010E176E00
:1016B000290E3DEC30F0900E0001A56FA50E166EC0
:1016C000000E176E000E196E010E186E290E38EC02
:1016D00031F0600E166E010E176E000E196E040EBC
:1016E000186E290EDDEC31F0940E166E240E176E76
:1016F000290E3DEC30F0830E166E000E176E290E8B
:101700003DEC30F0830E166E290ECBEC2FF0830EDD
:10171000166E010E176E290E3DEC30F0900E000192
:10172000A56FA50E166E000E176E000E196E010E37
:10173000186E290E38EC31F0600E166E010E176E21
:10174000000E196E040E186E290EDDEC31F0940EA9
:10175000166E250E176E290E3DEC30F0830E166EB8
:10176000000E176E290E3DEC30F0830E166E290E1A
:10177000CBEC2FF0830E166E010E176E290E3DEC8A
:1017800030F0900E0001A56FA50E166E000E176EBC
:10179000000E196E010E186E290E38EC31F0600E35
:1017A000166E010E176E000E196E040E186E290EBD
:1017B000DDEC31F0810E166E000E176E290E3DEC39
:1017C00030F0FF0E166E060E176E290E3DEC30F04F
:1017D000830E166E290ECBEC2FF0830E166E010EC3
:1017E000176E290E3DEC30F0FF0E166E010E176ECF
:1017F000290E3DEC30F0000E166E010E176E290E0C
:101800003DEC30F0FF0E166E000E176E290E3DEC0B
:1018100030F0800E166E000E176E290E3DEC30F083
:10182000FF0E166E010E176E290E3DEC30F04F0EB6
:10183000166E000E176E290E3DEC30F04E0E166E31
:101840002C0E176E290E3DEC30F0FF0E166E000EBA
:10185000176E290E3DEC30F0B60E166EB40E176EF4
:10186000290E3DEC30F0B00E0001A56F000EA66F02
:10187000F00EA76FE70EA86F3F0EA96F000EAA6FBC
:10188000000EAB6FA50E166E000E176E000E196ED1
:10189000070E186E290E38EC31F0B00E0001A56F5E
:1018A000A50E166E000E176E000E196E010E186E44
:1018B000290E38EC31F0600E166E010E176E000E18
:1018C000196E060E186E290EDDEC31F0FF0E166E45
:1018D000010E176E290E3DEC30F0000E166E000E54
:1018E000176E290E3DEC30F0FF0E166E000E176ECF
:1018F000290E3DEC30F0090E166E000E176E290E03
:101900003DEC30F0100E166E000E176E290E3DECF9
:1019100030F0110E166E000E176E290E3DEC30F0F1
:10192000240E166E010E176E290E3DEC30F0250EBA
:10193000166EFF0E176E290E3DEC30F0750E166E0A
:10194000000E176E290E3DEC30F0FF0E166E010EE4
:10195000176E290E3DEC30F04E0E166E2C0E176EE3
:10196000290E3DEC30F0480E166E000E176E290E53
:101970003DEC30F0300E166E200E176E290E3DEC49
:1019800030F0FF0E166E000E176E290E3DEC30F093
:10199000300E166E090E176E290E3DEC30F0540E07
:1019A000166E000E176E290E3DEC30F0310E166EDD
:1019B000040E176E290E3DEC30F0320E166E030E3B
:1019C000176E290E3DEC30F0400E166E830E176E2A
:1019D000290E3DEC30F0460E166E250E176E290EC0
:1019E0003DEC30F0600E166E000E176E290E3DECC9
:1019F00030F0270E166E000E176E290E3DEC30F0FB
:101A0000500E166E060E176E290E3DEC30F0510E7C
:101A1000166E000E176E290E3DEC30F0520E166E4B
:101A2000960E176E290E3DEC30F0560E166E080E0F
:101A3000176E290E3DEC30F0570E166E300E176EF5
:101A4000290E3DEC30F0610E166E000E176E290E59
:101A50003DEC30F0620E166E000E176E290E3DEC56
:101A600030F0640E166E000E176E290E3DEC30F04D
:101A7000650E166E000E176E290E3DEC30F0660EE8
:101A8000166EA00E176E290E3DEC30F0FF0E166E8E
:101A9000010E176E290E3DEC30F0220E166E320E3E
:101AA000176E290E3DEC30F0470E166E140E176EB1
:101AB000290E3DEC30F0490E166EFF0E176E290E02
:101AC0003DEC30F04A0E166E000E176E290E3DECFE
:101AD00030F0FF0E166E000E176E290E3DEC30F042
:101AE0007A0E166E0A0E176E290E3DEC30F07B0E44
:101AF000166E000E176E290E3DEC30F0780E166E45
:101B0000210E176E290E3DEC30F0FF0E166E010E01
:101B1000176E290E3DEC30F0230E166E340E176E44
:101B2000290E3DEC30F0420E166E000E176E290E97
:101B30003DEC30F0440E166EFF0E176E290E3DEC94
:101B400030F0450E166E260E176E290E3DEC30F065
:101B5000460E166E050E176E290E3DEC30F0400E47
:101B6000166E400E176E290E3DEC30F00E0E166EFE
:101B7000060E176E290E3DEC30F0200E166E1A0E72
:101B8000176E290E3DEC30F0430E166E400E176EA8
:101B9000290E3DEC30F0FF0E166E000E176E290E6A
:101BA0003DEC30F0340E166E030E176E290E3DEC30
:101BB00030F0350E166E440E176E290E3DEC30F0E7
:101BC000FF0E166E010E176E290E3DEC30F0310E31
:101BD000166E040E176E290E3DEC30F04B0E166E8D
:101BE000090E176E290E3DEC30F04C0E166E050EE8
:101BF000176E290E3DEC30F04D0E166E040E176E6A
:101C0000290E3DEC30F0FF0E166E000E176E290EF9
:101C10003DEC30F0440E166E000E176E290E3DECB2
:101C200030F0450E166E200E176E290E3DEC30F08A
:101C3000470E166E080E176E290E3DEC30F0480E5A
:101C4000166E280E176E290E3DEC30F0670E166EDC
:101C5000000E176E290E3DEC30F0700E166E040E5D
:101C6000176E290E3DEC30F0710E166E010E176ED8
:101C7000290E3DEC30F0720E166EFE0E176E290E18
:101C80003DEC30F0760E166E000E176E290E3DEC10
:101C900030F0770E166E000E176E290E3DEC30F008
:101CA000FF0E166E010E176E290E3DEC30F00D0E74
:101CB000166E010E176E290E3DEC30F0FF0E166EFB
:101CC000000E176E290E3DEC30F0800E166E010EE0
:101CD000176E290E3DEC30F0010E166EF80E176EE1
:101CE000290E3DEC30F0FF0E166E010E176E290E18
:101CF0003DEC30F08E0E166E010E176E290E3DEC87
:101D000030F0000E166E010E176E290E3DEC30F00D
:101D1000FF0E166E000E176E290E3DEC30F0800E91
:101D2000166E000E176E290E3DEC30F00A0E166E80
:101D3000040E176E290E3DEC30F0840E166E290E3F
:101D4000CBEC2FF0840E166E010E176E290E3DECB3
:101D500030F00B0E166E010E176E290E3DEC30F0B2
:101D60000B0E166E000E176E290E3DEC30F0130EA2
:101D7000166E290ECBEC2FF0FF0E166E010E176EAD
:101D8000290E3DEC30F0840E166E290ED2EC2EF0AA
:101D900016C01FF017C020F0FF0E166E000E176E53
:101DA000290E3DEC30F0F80E166E290ED2EC2EF016
:101DB00016C01FF017C020F0040E0001A56FA50E7D
:101DC000166E000E176E000E196E010E186E290E9B
:101DD00038EC31F0600E166E010E176E000E196EA3
:101DE000040E186E290EDDEC31F0200E166E290E51
:101DF000D2EC2EF016C01FF017C020F0280E166E81
:101E0000290ED2EC2EF016C01FF017C020F0440EA1
:101E1000166E290ED2EC2EF016C01FF017C020F05F
:101E2000640E166E290ED2EC2EF016C01FF017C0ED
:101E300020F0640E166E290ED2EC2EF016C01FF0A4
:101E400017C020F0010E166E290ECBEC2FF0216E7C
:101E5000010E166E290ECBEC2FF0216E500E166E71
:101E6000290ECBEC2FF0216E460E166E290ECBEC10
:101E70002FF0216E500E166E290ECBEC2FF0216E36
:101E8000500E166E290ECBEC2FF0216E510E166EF1
:101E9000290ED2EC2EF016C01FF017C020F0010E54
:101EA000166E290ECBEC2FF0216E500E166E290EF9
:101EB000CBEC2FF0216E510E166E290ED2EC2EF0C7
:101EC00016C01FF017C020F0700E166E290ECBEC56
:101ED0002FF0216E710E166E290ED2EC2EF016C068
:101EE0001FF017C020F0090E166E290ECBEC2FF054
:101EF000216E010E166E290ECBEC2FF0216E010E15
:101F0000166E290ECBEC2FF0216E010E166EE80E28
:101F1000176E290E3DEC30F0010E166E290ECBEC3B
:101F20002FF0216E500E166E290ECBEC2FF0216E85
:101F3000460E166E290ECBEC2FF0216E500E166E4B
:101F4000290ECBEC2FF0216E500E166E290ECBEC25
:101F50002FF0216E510E166E290ED2EC2EF016C007
:101F60001FF017C020F0010E166E290ECBEC2FF0DB
:101F7000216E500E166E290ECBEC2FF0216E510EF5
:101F8000166E290ED2EC2EF016C01FF017C020F0EE
:101F9000700E166E290ECBEC2FF0216E710E000123
:101FA000A56F020EA66F940EA76FA50E166E000EFB
:101FB000176E000E196E030E186E290E38EC31F0F4
:101FC000010E166E290ECBEC2FF0500E166E290E58
:101FD000CBEC2FF0700E166E290ECBEC2FF0500EBE
:101FE000166E290ECBEC2FF0500E166E290ECBEC90
:101FF0002FF0510E166E290ED2EC2EF016C01FF0E7
:1020000017C020F0010E166E290ECBEC2FF0500EEB
:10201000166E290ECBEC2FF0510E166E290ED2EC57
:102020002EF016C01FF017C020F0700E166E290E8D
:10203000CBEC2FF0710E166E290ED2EC2EF016C0DE
:102040001FF017C020F0FF0E166E010E176E290E3E
:102050003DEC30F04F0E166E000E176E290E3DEC63
:1020600030F04E0E166E2C0E176E290E3DEC30F031
:10207000FF0E166E000E176E290E3DEC30F0B60EF8
:10208000166EB40E176E290E3DEC30F0800E166EF3
:10209000000E176E290E3DEC30F0010E166E010E8B
:1020A000176E290E3DEC30F0000E166E410E176EC5
:1020B000290E3DEC30F0130E166E290ECBEC2FF0EE
:1020C000130E166E290ECBEC2FF0130E166E290E82
:1020D000CBEC2FF0130E166E290ECBEC2FF0130E57
:1020E000166E290ECBEC2FF0130E166E290ECBECCC
:1020F0002FF0130E166E290ECBEC2FF0130E166E6A
:10210000290ECBEC2FF0130E166E290ECBEC2FF010
:10211000130E166E290ECBEC2FF0130E166E290E31
:10212000CBEC2FF0130E166E290ECBEC2FF0130E06
:10213000166E290ECBEC2FF0130E166E290ECBEC7B
:102140002FF00B0E166E010E176E290E3DEC30F0BF
:102150000B0E166E000E176E290E3DEC30F0130EAE
:10216000166E290ECBEC2FF0000E166E000E176EB9
:10217000290E3DEC30F0010E166E020E176E290E80
:102180003DEC30F0000E166E010E176E290E3DEC80
:1021900030F0130E166E290ECBEC2FF0130E166EC8
:1021A000290ECBEC2FF0130E166E290ECBEC2FF070
:1021B000130E166E290ECBEC2FF00B0E166E010EC1
:1021C000176E290E3DEC30F00B0E166E000E176EDA
:1021D000290E3DEC30F0130E166E290ECBEC2FF0CD
:1021E000000E166E000E176E290E3DEC30F0010E3B
:1021F000166EE80E176E290E3DEC30F0B00E0001A1
:10220000A56F070EA66F000EA76F000EA86F000E39
:10221000A96F000EAA6F000EAB6FA50E166E000E12
:10222000176E000E196E070E186E290E38EC31F07D
:10223000B00E0001A56FA50E166E000E176E000EF3
:10224000196E010E186E290E38EC31F0600E166E04
:10225000010E176E000E196E060E186E290EDDECBB
:1022600031F0010E166EC00E176E290E3DEC30F0E7
:10227000800E166E010E176E290E3DEC30F0FF0E2B
:10228000166E010E176E290E3DEC30F0000E166E24
:10229000000E176E290E3DEC30F0910E166E3C0EBE
:1022A000176E290E3DEC30F0000E166E010E176E03
:1022B000290E3DEC30F0FF0E166E000E176E290E43
:1022C0003DEC30F0800E166E000E176E290E3DECC0
:1022D00030F0000E166E010E176E290E3DEC30F038
:1022E000000E166E290ECBEC2FF0216E130E166E1B
:1022F000290ECBEC2FF0216E130E166E290ECBECAF
:102300002FF0216E130E166E290ECBEC2FF0216EDE
:10231000130E166E290ECBEC2FF0216E130E166ED7
:10232000290ECBEC2FF0216E130E166E290ECBEC7E
:102330002FF0216E130E166E290ECBEC2FF0216EAE
:10234000130E166E290ECBEC2FF0216E130E166EA7
:10235000290ECBEC2FF0216E130E166E290ECBEC4E
:102360002FF0216E130E166E290ECBEC2FF0216E7E
:10237000130E166E290ECBEC2FF0216E130E166E77
:10238000290ECBEC2FF0216E130E166E290ECBEC1E
:102390002FF0216E130E166E290ECBEC2FF0216E4E
:1023A000130E166E290ECBEC2FF0216E130E166E47
:1023B000290ECBEC2FF0216E130E166E290ECBECEE
:1023C0002FF0216E130E166E290ECBEC2FF0216E1E
:1023D000130E166E290ECBEC2FF0216E130E166E17
:1023E000290ECBEC2FF0216E130E166E290ECBECBE
:1023F0002FF0216E130E166E290ECBEC2FF0216EEE
:10240000130E166E290ECBEC2FF0216E140E000168
:10241000A56FA50E166E000E176E000E196E010E3A
:10242000186E290E38EC31F0600E166E010E176E24
:10243000000E196E0C0E186E290EDDEC31F0FF0E39
:10244000166E010E176E290E3DEC30F0B60E166EAC
:10245000290ED2EC2EF016C01FF017C020F0FF0E90
:10246000166E000E176E290E3DEC30F00B0E166E38
:10247000010E176E290E3DEC30F00B0E166E000E9D
:10248000176E290E3DEC30F0130E166E290ECBECB4
:102490002FF0FF0E166E010E176E290E3DEC30F078
:1024A000B60E166E290ED2EC2EF016C01FF017C015
:1024B00020F0FF0E166E000E176E290E3DEC30F068
:1024C000010E166EE80E176E290E3DEC30F0B00EC0
:1024D0000001A56F0F0EA66F000EA76F000EA86F6C
:1024E000000EA96F000EAA6F000EAB6FA50E166E40
:1024F000000E176E000E196E070E186E290E38ECBE
:1025000031F0010E166EC00E176E290E3DEC30F044
:10251000800E166E010E176E290E3DEC30F0FF0E88
:10252000166E010E176E290E3DEC30F0000E166E81
:10253000000E176E290E3DEC30F0910E166E3C0E1B
:10254000176E290E3DEC30F0000E166E010E176E60
:10255000290E3DEC30F0FF0E166E000E176E290EA0
:102560003DEC30F0800E166E000E176E290E3DEC1D
:1025700030F0000E166E010E176E290E3DEC30F095
:10258000000E166E290ECBEC2FF0216E130E166E78
:10259000290ECBEC2FF0216E130E166E290ECBEC0C
:1025A0002FF0216E130E166E290ECBEC2FF0216E3C
:1025B000130E166E290ECBEC2FF0216E130E166E35
:1025C000290ECBEC2FF0216E130E166E290ECBECDC
:1025D0002FF0216E130E166E290ECBEC2FF0216E0C
:1025E000130E166E290ECBEC2FF0216E130E166E05
:1025F000290ECBEC2FF0216E130E166E290ECBECAC
:102600002FF0216E130E166E290ECBEC2FF0216EDB
:10261000130E166E290ECBEC2FF0216E130E166ED4
:10262000290ECBEC2FF0216E130E166E290ECBEC7B
:102630002FF0216E130E166E290ECBEC2FF0216EAB
:10264000130E166E290ECBEC2FF0216E130E166EA4
:10265000290ECBEC2FF0216E130E166E290ECBEC4B
:102660002FF0216E130E166E290ECBEC2FF0216E7B
:10267000130E166E290ECBEC2FF0216E130E166E74
:10268000290ECBEC2FF0216E130E166E290ECBEC1B
:102690002FF0216E130E166E290ECBEC2FF0216E4B
:1026A000130E166E290ECBEC2FF0216E140E0001C6
:1026B000A56FA50E166E000E176E000E196E010E98
:1026C000186E290E38EC31F0600E166E010E176E82
:1026D000000E196E0C0E186E290EDDEC31F0FF0E97
:1026E000166E010E176E290E3DEC30F0B60E166E0A
:1026F000290ED2EC2EF016C01FF017C020F0FF0EEE
:10270000166E000E176E290E3DEC30F00B0E166E95
:10271000010E176E290E3DEC30F00B0E166E000EFA
:10272000176E290E3DEC30F0130E166E290ECBEC11
:102730002FF0FF0E166E010E176E290E3DEC30F0D5
:10274000B60E166E290ED2EC2EF016C01FF017C072
:1027500020F0FF0E166E000E176E290E3DEC30F0C5
:10276000010E166EE80E176E290E3DEC30F0B00E1D
:102770000001A56F1F0EA66F000EA76F000EA86FB9
:10278000000EA96F000EAA6F000EAB6FA50E166E9D
:10279000000E176E000E196E070E186E290E38EC1B
:1027A00031F0010E166EC00E176E290E3DEC30F0A2
:1027B000800E166E010E176E290E3DEC30F0FF0EE6
:1027C000166E010E176E290E3DEC30F0000E166EDF
:1027D000000E176E290E3DEC30F0910E166E3C0E79
:1027E000176E290E3DEC30F0000E166E010E176EBE
:1027F000290E3DEC30F0FF0E166E000E176E290EFE
:102800003DEC30F0800E166E000E176E290E3DEC7A
:1028100030F0000E166E010E176E290E3DEC30F0F2
:10282000000E166E290ECBEC2FF0216E130E166ED5
:10283000290ECBEC2FF0216E130E166E290ECBEC69
:102840002FF0216E130E166E290ECBEC2FF0216E99
:10285000130E166E290ECBEC2FF0216E130E166E92
:10286000290ECBEC2FF0216E130E166E290ECBEC39
:102870002FF0216E130E166E290ECBEC2FF0216E69
:10288000130E166E290ECBEC2FF0216E130E166E62
:10289000290ECBEC2FF0216E130E166E290ECBEC09
:1028A0002FF0216E130E166E290ECBEC2FF0216E39
:1028B000130E166E290ECBEC2FF0216E130E166E32
:1028C000290ECBEC2FF0216E130E166E290ECBECD9
:1028D0002FF0216E130E166E290ECBEC2FF0216E09
:1028E000130E166E290ECBEC2FF0216E130E166E02
:1028F000290ECBEC2FF0216E130E166E290ECBECA9
:102900002FF0216E130E166E290ECBEC2FF0216ED8
:10291000130E166E290ECBEC2FF0216E130E166ED1
:10292000290ECBEC2FF0216E130E166E290ECBEC78
:102930002FF0216E130E166E290ECBEC2FF0216EA8
:10294000130E166E290ECBEC2FF0216E140E000123
:10295000A56FA50E166E000E176E000E196E010EF5
:10296000186E290E38EC31F0600E166E010E176EDF
:10297000000E196E0C0E186E290EDDEC31F0FF0EF4
:10298000166E010E176E290E3DEC30F0B60E166E67
:10299000290ED2EC2EF016C01FF017C020F0FF0E4B
:1029A000166E000E176E290E3DEC30F00B0E166EF3
:1029B000010E176E290E3DEC30F00B0E166E000E58
:1029C000176E290E3DEC30F0130E166E290ECBEC6F
:1029D0002FF0FF0E166E010E176E290E3DEC30F033
:1029E000B60E166E290ED2EC2EF016C01FF017C0D0
:1029F00020F0FF0E166E000E176E290E3DEC30F023
:102A0000010E166EE80E176E290E3DEC30F0010E29
:102A1000166E010E176E290E3DEC30F0000E166E8C
:102A2000410E176E290E3DEC30F0130E166E290E76
:102A3000CBEC2FF0130E166E290ECBEC2FF0130EED
:102A4000166E290ECBEC2FF0130E166E290ECBEC62
:102A50002FF0130E166E290ECBEC2FF0130E166E00
:102A6000290ECBEC2FF0130E166E290ECBEC2FF0A7
:102A7000130E166E290ECBEC2FF0130E166E290EC8
:102A8000CBEC2FF0130E166E290ECBEC2FF0130E9D
:102A9000166E290ECBEC2FF0130E166E290ECBEC12
:102AA0002FF0130E166E290ECBEC2FF00B0E166EB8
:102AB000010E176E290E3DEC30F00B0E166E000E57
:102AC000176E290E3DEC30F0130E166E290ECBEC6E
:102AD0002FF0000E166E000E176E290E3DEC30F032
:102AE000FF0E166E010E176E290E3DEC30F0000E33
:102AF000166E000E176E290E3DEC30F0FF0E166EAE
:102B0000000E176E290E3DEC30F0CB0E166E290E1E
:102B1000CBEC2FF0FF0E166E010E176E290E3DEC5A
:102B200030F0000E166E010E176E290E3DEC30F0DF
:102B3000FF0E166E000E176E290E3DEC30F0010EE2
:102B4000166E020E176E290E3DEC30F0000E166E5A
:102B5000010E176E290E3DEC30F0000E166E290E98
:102B6000CBEC2FF0130E166E290ECBEC2FF0130EBC
:102B7000166E290ECBEC2FF0130E166E290ECBEC31
:102B80002FF00B0E166E010E176E290E3DEC30F075
:102B90000B0E166E000E176E290E3DEC30F0130E64
:102BA000166E290ECBEC2FF0000E166E000E176E6F
:102BB000290E3DEC30F0FF0E166E010E176E290E39
:102BC0003DEC30F0000E166E000E176E290E3DEC37
:102BD00030F0FF0E166E000E176E290E3DEC30F031
:102BE000EE0E166E290ECBEC2FF0FF0E166E010EB8
:102BF000176E290E3DEC30F0000E166E010E176EAA
:102C0000290E3DEC30F0FF0E166E000E176E290EE9
:102C10003DEC30F0010E166EE80E176E290E3DECFD
:102C200030F0440E0001A56F000EA66F200EA76FB6
:102C3000A50E166E000E176E000E196E030E186E9E
:102C4000290E38EC31F01A0E1E6EF80EE82EFED763
:102C50001E2EFCD700F000F01200000E0001D06F15
:102C6000000ECF6F34C0E1F035C0E2F036C0E3F0C3
:102C700037C0E4F0E4BF41EF16F03FEF16F057EF36
:102C800016F0000ED06F010ECF6FE1C005F0E2C06C
:102C900006F0E3C007F0E4C008F0A1EC32F005C094
:102CA000E1F006C0E2F007C0E3F008C0E4F0000E77
:102CB0000001E86F000EE76F9EC0D3F09FC0D4F014
:102CC000CF51D011D8A467EF16F069EF16F070EF6E
:102CD00016F0A2A56EEF16F070EF16F08AEF16F060
:102CE000CF51D011D8A477EF16F079EF16F07FEF1F
:102CF00016F0000EB66F2B0EB56F83EF16F0000EB8
:102D0000B66F2D0EB56FB5C010F1E74BE82BD307AA
:102D1000D8A0D407E1C005F0E2C006F0E3C007F098
:102D2000E4C008F0CCEC2AF005040610D8A49BEF10
:102D300016F09DEF16F0F4EF16F0BF0E396EFF0E91
:102D40003A6E38503B6E3C6A39503B263A503C2232
:102D50003C500AE11A0E3B5CD8A0B1EF16F0B4EF7C
:102D600016F0010EB5EF16F0000E0001B76FB86B4C
:102D7000B751B811D8B4BFEF16F0C1EF16F0CFEFCE
:102D800016F0100EE725056E010EE821066E5A0EAC
:102D9000076E100E086E09EC31F0DBEF16F0100E26
:102DA000E725056E010EE821066E620E076E100E15
:102DB000086E09EC31F00001FD0ED327FF0ED4237D
:102DC00032C017F033C018F0100E196E010E1A6ED3
:102DD000D3C01BF0D4C01CF0B9EC2BF017C032F0FC
:102DE00018C033F07FEF1CF0E1C005F0E2C006F040
:102DF000E3C007F0E4C008F0CCEC2AF00550061060
:102E0000D8A405EF17F007EF17F05EEF17F0BF0E2D
:102E1000396EFF0E3A6E38503B6E3C6A39503B2695
:102E20003A503C223C500AE11A0E3B5CD8A01BEF02
:102E300017F01EEF17F0010E1FEF17F0000E000144
:102E4000B96FBA6BB951BA11D8B429EF17F02BEF9B
:102E500017F039EF17F0100EE725056E010EE82187
:102E6000066E5E0E076E100E086E09EC31F045EF2F
:102E700017F0100EE725056E010EE821066E660EAE
:102E8000076E100E086E09EC31F00001FD0ED3271D
:102E9000FF0ED42332C017F033C018F0100E196E95
:102EA000010E1A6ED3C01BF0D4C01CF0B9EC2BF08D
:102EB00017C032F018C033F07FEF1CF0000E000195
:102EC000E96F000EEA6F800EEB6F3F0EEC6F000EA5
:102ED000E66F000EE56FE1C005F0E2C006F0E3C06A
:102EE00007F0E4C008F0000E096E000E0A6E000E36
:102EF0000B6E000E0C6E98EC2DF0D8B082EF17F030
:102F000084EF17F007EF18F0A3EF17F0E9C005F012
:102F1000EAC006F0EBC007F0ECC008F0000E096E46
:102F2000000E0A6E200E0B6E410E0C6E30EC21F07E
:102F300005C0E9F006C0EAF007C0EBF008C0ECF00D
:102F40000001E54BE62BE1C01EF0E2C01FF0E3C03C
:102F500020F0E4C021F0000E096E000E0A6E200E73
:102F60000B6E410E0C6EE9C005F0EAC006F0EBC036
:102F700007F0ECC008F030EC21F005C022F006C0EC
:102F800023F007C024F008C025F04AEC2AF0D8B09E
:102F9000CCEF17F0CEEF17F086EF17F0EEEF17F04B
:102FA000E9C005F0EAC006F0EBC007F0ECC008F09D
:102FB000000E096E000E0A6E200E0B6E410E0C6E96
:102FC00045EC23F005C0E9F006C0EAF007C0EBF0DD
:102FD00008C0ECF00001E507D8A0E607E1C01EF04C
:102FE000E2C01FF0E3C020F0E4C021F0E9C022F00D
:102FF000EAC023F0EBC024F0ECC025F04AEC2AF044
:10300000D8A005EF18F007EF18F0D0EF17F038C090
:103010000BF00C6AD9EC30F00B500001D66FD6C023
:10302000D5F0670ED619D8A418EF18F01AEF18F0DB
:1030300040EF18F0A051A111D8A421EF18F023EF10
:1030400018F027EF18F0000EA16F010EA06FA1BFBE
:1030500034EF18F0A15106E1A005D8B032EF18F016
:1030600034EF18F03AEF18F0000ED26F060ED16F61
:1030700049EF18F0A0C0D1F0A1C0D2F049EF18F08C
:10308000A1BF45EF18F047EF18F034EF18F03AEF12
:1030900018F0670ED619D8A450EF18F052EF18F0B8
:1030A00081EF18F0E6AF60EF18F0FC0EE55DFF0E63
:1030B000E659D8A05EEF18F060EF18F07FEF18F037
:1030C000FF0E396EFF0E3A6ED1C03BF0D2C03CF01D
:1030D00039503B263A503C22E5513B5C3C50800A3B
:1030E0003D6EE651800A3D58D8A079EF18F07BEF8D
:1030F00018F07FEF18F0660ED56F81EF18F0650EAF
:10310000D56FD1C0C7F0D2C0C8F0670ED619D8A409
:103110008CEF18F08EEF18F09EEF18F0660ED519B0
:10312000D8A495EF18F097EF18F0A0EF18F0E6BFCD
:103130009EEF18F09CEF18F0A0EF18F0C74BC82BCB
:10314000660ED519D8A4A7EF18F0A9EF18F0C9EFAB
:1031500018F0E6BFB0EF18F0AEEF18F0BCEF18F0C3
:10316000000EE96F000EEA6F800EEB6F3F0EEC6F02
:10317000000EE66F000EE56F670ED619D8B4C3EFE8
:1031800018F0C5EF18F0C9EF18F0E551C727E65160
:10319000C823000EE06F000EDF6FE1C0D7F0E2C081
:1031A000D8F0E3C0D9F0E4C0DAF0E9C0C9F0EAC071
:1031B000CAF0EBC0CBF0ECC0CCF05AEF19F0D7C09E
:1031C00005F0D8C006F0D9C007F0DAC008F0E9C0B1
:1031D00009F0EAC00AF0EBC00BF0ECC00CF045ECD3
:1031E00023F005C01EF006C01FF007C020F008C085
:1031F00021F05CEC26F01EC0DBF01FC0DCF020C02C
:10320000DDF021C0DEF0DBC005F0DCC006F0DDC083
:1032100007F0DEC008F0C7EC29F005C0CDF006C00D
:10322000CEF0D7C01EF0D8C01FF0D9C020F0DAC051
:1032300021F0E9C009F0EAC00AF0EBC00BF0ECC0E5
:103240000CF0DBC005F0DCC006F0DDC007F0DEC02E
:1032500008F030EC21F005C022F006C023F007C0D2
:1032600024F008C025F0BAEC31F01EC0D7F01FC022
:10327000D8F020C0D9F021C0DAF0E9C005F0EAC0EA
:1032800006F0EBC007F0ECC008F0000E096E000E6F
:103290000A6E200E0B6E410E0C6E45EC23F005C03D
:1032A000E9F006C0EAF007C0EBF008C0ECF000015E
:1032B000DF4BE02BC751DF5DE051800A396EC8510A
:1032C000800A3958D8A067EF19F069EF19F0DFEFDD
:1032D00018F0E9C005F0EAC006F0EBC007F0ECC05A
:1032E00008F0000E096E000E0A6EA00E0B6E400E66
:1032F0000C6E30EC21F005C0DBF006C0DCF007C03E
:10330000DDF008C0DEF0D7C01EF0D8C01FF0D9C075
:1033100020F0DAC021F0DBC022F0DCC023F0DDC0F9
:1033200024F0DEC025F04AEC2AF0D8B09AEF19F06C
:103330009CEF19F0A7EF19F0000E0001DB6F000EF3
:10334000DC6F000EDD6F000EDE6FD0EF19F0D7C01E
:1033500005F0D8C006F0D9C007F0DAC008F0DBC02D
:1033600009F0DCC00AF0DDC00BF0DEC00CF098EC18
:103370002DF0D8A0BEEF19F0C0EF19F0D0EF19F082
:103380000001CDB1C6EF19F0C8EF19F0D0EF19F078
:10339000000EDB6F000EDC6F000EDD6F000EDE6FC7
:1033A000E1C005F0E2C006F0E3C007F0E4C008F0B9
:1033B000DBC009F0DCC00AF0DDC00BF0DEC00CF0B1
:1033C00080EC1CF005C0D7F006C0D8F007C0D9F0DB
:1033D00008C0DAF0D7C01EF0D8C01FF0D9C020F066
:1033E000DAC021F0000E096E000E0A6E200E0B6E80
:1033F000410E0C6EC9C005F0CAC006F0CBC007F084
:10340000CCC008F030EC21F005C022F006C023F05B
:1034100007C024F008C025F04AEC2AF0D8A013EF2A
:103420001AF015EF1AF03EEF1AF00001E54BE62B0B
:10343000C9C005F0CAC006F0CBC007F0CCC008F088
:10344000000E096E000E0A6E200E0B6E410E0C6E01
:1034500030EC21F005C0C9F006C0CAF007C0CBF0BF
:1034600008C0CCF0660E0001D519D8A43AEF1AF0C6
:103470003CEF1AF03EEF1AF0C74BC82BC9C0E9F079
:10348000CAC0EAF0CBC0EBF0CCC0ECF0650E000196
:10349000D519D8B44EEF1AF050EF1AF056EF1AF0D3
:1034A000E5C0C5F0E6C0C6F05AEF1AF0000EC66FD0
:1034B000000EC56F000EC46F000EC36F000EC26F0A
:1034C000000EC16F000EE06F000EDF6F55EF1BF0B6
:1034D000D7C005F0D8C006F0D9C007F0DAC008F0B0
:1034E000E9C009F0EAC00AF0EBC00BF0ECC00CF048
:1034F00045EC23F005C01EF006C01FF007C020F009
:1035000008C021F05CEC26F01EC0DBF01FC0DCF030
:1035100020C0DDF021C0DEF0DBC005F0DCC006F02D
:10352000DDC007F0DEC008F0C7EC29F005C0CDF023
:1035300006C0CEF00001A2B9A0EF1AF0A2EF1AF077
:10354000BFEF1AF0CD51CE11D8A4A9EF1AF0ABEF0E
:103550001AF0BFEF1AF0670ED619D8A4B2EF1AF01E
:10356000B4EF1AF0BFEF1AF0C6BFBBEF1AF0B9EF15
:103570001AF0BFEF1AF0C14BC22B09EF1BF0C35179
:10358000C411D8A4C6EF1AF0C8EF1AF0F2EF1AF07F
:10359000C6BFCFEF1AF0CDEF1AF0F2EF1AF0100E0F
:1035A000E725D96E010EE821DA6E2E0EDF6EE74BAD
:1035B000E82BD307D8A0D407000EC46F010EC36F49
:1035C000F2EF1AF0100EE725D96E010EE821DA6E3F
:1035D000300EDF6EE74BE82BD307D8A0D407C10726
:1035E000D8A0C207C151C211D8A4F9EF1AF0FBEF5D
:1035F0001AF0E2EF1AF0100EE725D96E010EE8215D
:10360000DA6ECD51300FDF6EE74BE82BD307D8A031
:10361000D407D7C01EF0D8C01FF0D9C020F0DAC040
:1036200021F0E9C009F0EAC00AF0EBC00BF0ECC0F1
:103630000CF0DBC005F0DCC006F0DDC007F0DEC03A
:1036400008F030EC21F005C022F006C023F007C0DE
:1036500024F008C025F0BAEC31F01EC0D7F01FC02E
:10366000D8F020C0D9F021C0DAF0E9C005F0EAC0F6
:1036700006F0EBC007F0ECC008F0000E096E000E7B
:103680000A6E200E0B6E410E0C6E45EC23F005C049
:10369000E9F006C0EAF007C0EBF008C0ECF000016A
:1036A000C507D8A0C607DF4BE02BC751DF5DE0514F
:1036B000800A396EC851800A3958D8B062EF1BF0C1
:1036C00064EF1BF072EF1BF0E8BF70EF1BF0E851E6
:1036D00009E14B0EE75DD8A070EF1BF072EF1BF015
:1036E00068EF1AF0C351C411D8A479EF1BF07BEF37
:1036F0001BF08CEF1BF0A2A980EF1BF082EF1BF0F8
:103700008CEF1BF0100EE725D96E010EE821DA6E62
:103710002E0EDF6EE74BE82B100EE725D96E010E5B
:10372000E821DA6E000EDF6E650ED519D8A49BEF86
:103730001BF09DEF1BF06DEF1CF0000EE06F4F0EC5
:10374000DF6F100EDF25D96E010EE021DA6E000E5C
:10375000DF6E000ED06F000ECF6FE6BFB4EF1BF030
:10376000B2EF1BF0BCEF1BF0000ED06F010ECF6F5D
:10377000E56DE61FD8B0E62B000ED26F020ED16FBA
:10378000EDEF1BF0DF07D8A0E007100EDF25D96EA4
:10379000010EE021DA6EE5C005F0E6C006F0000E8D
:1037A000086E0A0E076E40EC2DF00550300FDF6EEC
:1037B000E5C005F0E6C006F0000E086E0A0E076EC2
:1037C0001CEC2CF005C0E5F006C0E6F00001D107C6
:1037D000D8A0D207D307D8A0D407E551E611D8A4C2
:1037E000F4EF1BF0F6EF1BF0C2EF1BF0D2BF03EFBC
:1037F0001CF0D25106E1D105D8B001EF1CF003EF67
:103800001CF0C2EF1BF0DF07D8A0E007CF51D011AA
:10381000D8A40DEF1CF00FEF1CF015EF1CF0000EFC
:10382000BC6F2B0EBB6F19EF1CF0000EBC6F2D0E82
:10383000BB6F100EDF25D96E010EE021DA6EBBC022
:10384000DFFFD307D8A0D407DF07D8A0E007BF0E5B
:10385000396EFF0E3A6E38503B6E3C6A39503B264B
:103860003A503C223C500AE11A0E3B5CD8A03BEF98
:103870001CF03EEF1CF0010E3FEF1CF0000EBF6F7E
:10388000C06BBF51C011D8A448EF1CF04AEF1CF028
:1038900050EF1CF0000EBE6F650EBD6F54EF1CF0B4
:1038A000000EBE6F450EBD6F100EDF25D96E010EE6
:1038B000E021DA6EBDC0DFFFD307D8A0D407100E19
:1038C000E725056E010EE821066E100EDF25076E56
:1038D000010EE021086E09EC31F032C017F033C060
:1038E00018F0100E196E010E1A6ED3C01BF0D4C062
:1038F0001CF0B9EC2BF017C032F018C033F01200F6
:103900000850800B116E08500824136E07AE8BEF21
:103910001CF08DEF1CF08EEF1CF013801350D8B408
:1039200094EF1CF096EF1CF0ABEF1CF01328D8A41A
:103930009CEF1CF09EEF1CF0A6EF1CF0000E056E35
:10394000000E066E000E076E000E086E078E000E4B
:10395000086EB3EF1CF0000E056E000E066E000E32
:10396000076E000E086E0C50800B126E115012186C
:10397000D8B4BDEF1CF0BFEF1CF0C0EF1CF0118CF1
:103980000C500C24126E0BAEC8EF1CF0CAEF1CF0EA
:10399000CBEF1CF012801250D8B4D1EF1CF0D3EF53
:1039A0001CF0E8EF1CF01228D8A4D9EF1CF0DBEFD4
:1039B0001CF0E3EF1CF0000E096E000E0A6E000E04
:1039C0000B6E000E0C6E0B8E000E0C6EF0EF1CF0EA
:1039D000000E096E000E0A6E000E0B6E000E0C6ECD
:1039E0001350125CD8B0F7EF1CF0F9EF1CF020EF89
:1039F0001DF011ACFEEF1CF000EF1DF002EF1DF00A
:103A0000800E111A13C014F012C013F014C012F07B
:103A100005C014F009C005F014C009F006C014F088
:103A20000AC006F014C00AF007C014F00BC007F07B
:103A300014C00BF008C014F00CC008F014C00CF057
:103A4000000E146E135012C00DF00E6A0D5E000EC3
:103A50000E5A0EBE35EF1DF00E5009E11A0E0D5C28
:103A6000D8A035EF1DF037EF1DF06EEF1DF00550BB
:103A7000061007100810D8A440EF1DF043EF1DF00A
:103A8000010E44EF1DF0000E146E000E056E000EC8
:103A9000066E000E076E000E086E12C013F077EF70
:103AA0001DF014A056EF1DF058EF1DF05EEF1DF055
:103AB000D89014300109146E60EF1DF0D8901432C4
:103AC00005A065EF1DF067EF1DF068EF1DF0148E87
:103AD00008340832073206320532132A1250135CBA
:103AE000D8A075EF1DF077EF1DF051EF1DF011BC60
:103AF0007CEF1DF07EEF1DF0BEEF1DF01350D8A43B
:103B000084EF1DF086EF1DF090EF1DF0000E056EA6
:103B1000000E066E000E076E000E086EDFEF1EF040
:103B2000095005260A5006220B5007220C50082285
:103B300008A09DEF1DF09FEF1DF04BEF1EF014A0AD
:103B4000A4EF1DF0A6EF1DF0ACEF1DF0D8901430DF
:103B50000109146EAEEF1DF0D890143205A0B3EF3A
:103B60001DF0B5EF1DF0B6EF1DF0148E08340832CD
:103B7000073206320532132A4BEF1EF00950055C5E
:103B80000A5006580B5007580850800A0D6E0C500A
:103B9000800A0D58D8B0CFEF1DF0D1EF1DF0FCEF2B
:103BA0001DF00550095C0D6E06500A580E6E075048
:103BB0000B580F6E08500C58106EFF0E0D24056E3A
:103BC000FF0E0E20066EFF0E0F20076EFF0E102058
:103BD000086E800E111A146C1450D8A4F2EF1DF068
:103BE000F4EF1DF004EF1EF0010E0526000E062274
:103BF0000722082204EF1EF00950055E0A50065AFB
:103C00000B50075A0C50085A0550061007100810A0
:103C1000D8A40DEF1EF00FEF1EF044EF1EF014506D
:103C2000D8A415EF1EF017EF1EF044EF1EF0000EA3
:103C3000056E000E066E000E076E000E086EDFEFBA
:103C40001EF0D890053606360736083614AE2BEF30
:103C50001EF02DEF1EF02EEF1EF0058014A033EFA6
:103C60001EF035EF1EF039EF1EF0D88014363BEF12
:103C70001EF0D89014361350D8B441EF1EF043EF25
:103C80001EF044EF1EF0130607AE49EF1EF04BEF97
:103C90001EF021EF1EF0000E126E14AE52EF1EF059
:103CA00054EF1EF06CEF1EF014C00DF07F0E0D16D9
:103CB000D8B45DEF1EF05FEF1EF063EF1EF0010E53
:103CC000126E6CEF1EF005A068EF1EF06AEF1EF09A
:103CD0006CEF1EF05FEF1EF01250D8B472EF1EF0C2
:103CE00074EF1EF09FEF1EF0010E0526000E062257
:103CF0000722082208A07FEF1EF081EF1EF09FEF41
:103D00001EF005C00DF006C00EF007C00FF008C091
:103D100010F0103410320F320E320D320DC005F09B
:103D20000EC006F00FC007F010C008F01328D8B47A
:103D30009CEF1EF09EEF1EF09FEF1EF0132A13283B
:103D4000D8B4A5EF1EF0A7EF1EF0AFEF1EF0135092
:103D5000D8A4ADEF1EF0AFEF1EF0C1EF1EF0000EC5
:103D6000056E000E066E000E076E000E086E1350F4
:103D7000D8A4BDEF1EF0BFEF1EF0C1EF1EF0000E85
:103D8000116E13A0C6EF1EF0C8EF1EF0CBEF1EF0B1
:103D9000078ECCEF1EF0079ED8901330086E11AE40
:103DA000D4EF1EF0D6EF1EF0D7EF1EF0088E05C040
:103DB00005F006C006F007C007F008C008F01200C2
:103DC00040C0D9FF41C0DAFFDECFF6FFDDCFF7FFFD
:103DD000F86A0800F550250AD8A4F1EF1EF0F3EFB9
:103DE0001EF013EF21F040C0D9FF41C0DAFFDE2AF8
:103DF000000EDD22000E00019F6F000E9E6F9EC020
:103E0000A2F09FC0A3F0A069A16940C0D9FF41C042
:103E1000DAFFDECFF6FFDDCFF7FFF86A0800F550D6
:103E20002E0AD8A416EF1FF018EF1FF097EF1FF01F
:103E3000000EA16F000EA06F40C0D9FF41C0DAFF95
:103E4000DE2A000EDD2240C0D9FF41C0DAFFDECFFE
:103E5000F6FFDDCFF7FFF86A0800F5502A0AD8A46C
:103E600034EF1FF036EF1FF053EF1FF040C0D9FFC3
:103E700041C0DAFFDE2A000EDD2242C0D9FF43C076
:103E8000DAFFDFCF44F0020EDE26DFCF45F0000E72
:103E9000DD2244C0D9FF45C0DAFFDECFA0F0DDCF80
:103EA000A1F097EF1FF040C0D9FF41C0DAFFDECF8D
:103EB0000CF0DDCF0DF03FEC28F00CC0A0F00DC0F1
:103EC000A1F06AEF1FF040C0D9FF41C0DAFFDE2A3F
:103ED000000EDD22D00E446EFF0E456E40C0D9FFAD
:103EE00041C0DAFFDECFF6FFDDCFF7FFF86A08004A
:103EF000F550466E476A4450462645504722475083
:103F00000AE10A0E465CD8A088EF1FF08BEF1FF085
:103F1000010E8CEF1FF0000E486E496A48504910A0
:103F2000D8A495EF1FF097EF1FF063EF1FF040C08C
:103F3000D9FF41C0DAFFDECFF6FFDDCFF7FFF86A29
:103F40000800F5500B6E0C6AD9EC30F00B50506E37
:103F50005050D8B4AEEF1FF0B0EF1FF0EAEF1FF0F3
:103F600040C0D9FF41C0DAFFDECF44F0DDCF45F0DD
:103F7000010E4426000E452244C0F6FF45C0F7FF5F
:103F8000F86A0800F5500B6E0C6AD9EC30F00B5053
:103F9000516E5150D8B4CFEF1FF0D1EF1FF0EAEFC0
:103FA0001FF040C0D9FF41C0DAFFDECF44F0DDCFC3
:103FB00045F0020E4426000E452244C0F6FF45C0DF
:103FC000F7FFF86A0800F5500B6E0C6AD9EC30F078
:103FD0000B50526E660E5018D8A4F1EF1FF0F3EF9D
:103FE0001FF034EF20F040C0D9FF41C0DAFFDECF30
:103FF000F6FFDDCFF7FFF86A0800F5CF53F040C0B9
:10400000D9FF41C0DAFFDE2A000EDD2242C0D9FF0F
:1040100043C0DAFFDFCF44F0040EDE26DFCF45F0E9
:10402000000EDD2244C0D9FF45C0DAFFDECF4CF0E0
:10403000DECF4DF0DECF4EF0DECF4FF03EC032F09F
:104040003FC033F04CC034F04DC035F04EC036F0B8
:104050004FC037F053C038F02DEC16F032C03EF0B0
:1040600033C03FF02FEF21F0500E056E000E066EAC
:104070006A0E076E100E086E000E0A6E020E096EB2
:104080004BEC2BF005500610D8A449EF20F04BEF75
:1040900020F0DCEF20F040C0D9FF41C0DAFFDECFD6
:1040A00044F0DDCF45F0010E4426000E452244C009
:1040B000F6FF45C0F7FFF86A0800F5CF53F0BF0ED2
:1040C000446EFF0E456E40C0D9FF41C0DAFFDECF1F
:1040D000F6FFDDCFF7FFF86A0800F550466E476A35
:1040E000445046264550472247500AE11A0E465C86
:1040F000D8A07DEF20F080EF20F0010E81EF20F0BE
:10410000000E4A6E4B6A4A504B10D8B48AEF20F02A
:104110008CEF20F0A6EF20F042C0D9FF43C0DAFFB9
:10412000DFCF44F0040EDE26DFCF45F0000EDD22A7
:1041300044C0D9FF45C0DAFFDECF4CF0DECF4DF0F2
:10414000DECF4EF0DECF4FF0BEEF20F042C0D9FF01
:1041500043C0DAFFDFCF44F0040EDE26DFCF45F0A8
:10416000000EDD2244C0D9FF45C0DAFFDECF4CF09F
:10417000DECF4DF0DECF4EF0DECF4FF0020E40C06E
:10418000D9FF41C0DAFFDE26000EDD223EC032F04C
:104190003FC033F04CC034F04DC035F04EC036F067
:1041A0004FC037F053C038F02DEC16F032C03EF05F
:1041B00033C03FF02FEF21F040C0D9FF41C0DAFFFC
:1041C000DECFF6FFDDCFF7FFF86A0800F550250ACD
:1041D000D8A4EDEF20F0EFEF20F006EF21F040C083
:1041E000D9FF41C0DAFFDE2A000EDD22000E086E84
:1041F000250E076E3EC009F03FC00AF040EC2EF0DD
:10420000000E3F6E010E3E6E2FEF21F040C0D9FF31
:1042100041C0DAFFDE2A000EDD22000E3F6E000EE6
:104220003E6E2FEF21F040C0D9FF41C0DAFFDECF54
:10423000F6FFDDCFF7FFF86A0800F550076E086A51
:104240003EC009F03FC00AF040EC2EF040C0D9FF5C
:1042500041C0DAFFDE2A000EDD2200EF21F012005D
:104260000850800B116E08500824176E07AE3BEF04
:1042700021F03DEF21F03EEF21F017801750D8B428
:1042800044EF21F046EF21F059EF21F01728D8A490
:104290004CEF21F04EEF21F056EF21F0000E056EAD
:1042A000000E066E000E076E000E086E078E61EFA0
:1042B00021F0000E056E000E066E000E076E000E59
:1042C000086E0C50800B111A0C500C24126E0BAEA1
:1042D0006CEF21F06EEF21F06FEF21F012801250A1
:1042E000D8B475EF21F077EF21F08AEF21F0122892
:1042F000D8A47DEF21F07FEF21F087EF21F0000EB1
:10430000096E000E0A6E000E0B6E000E0C6E0B8E08
:1043100092EF21F0000E096E000E0A6E000E0B6E79
:10432000000E0C6E1250D8B498EF21F09AEF21F0E5
:10433000A2EF21F01750D8A4A0EF21F0A2EF21F0B6
:10434000ACEF21F0000E056E000E066E000E076E3B
:10435000000E086E44EF23F00B500502F3CF1CF063
:10436000F4CF1DF01C50136E146A156A166A1D50A6
:10437000186E196A1A6A1B6A0A500602F3CF1CF0FB
:10438000F4CF1DF01C501326000E14221522162205
:104390001D501826000E19221A221B22095007024E
:1043A000F3CF1CF0F4CF1DF01C501326000E142286
:1043B000152216221D501826000E19221A221B2221
:1043C00015C016F014C015F013C014F0136A09508C
:1043D0000602F3CF1CF0F4CF1DF01C5013261D5025
:1043E0001422000E1522000E16220A500502F3CFE9
:1043F0001CF0F4CF1DF01C5013261D501422000E8B
:104400001522000E162215C016F014C015F013C0A8
:1044100014F0136A09500502F3CF1CF0F4CF1DF01D
:104420001C5013261D501422000E1522000E1622B9
:104430000B500602F3CF1CF0F4CF1DF01C501826D1
:104440001D501922000E1A22000E1B220A500702CC
:10445000F3CF1CF0F4CF1DF01C5018261D5019226C
:10446000000E1A22000E1B220B500702F3CF1CF085
:10447000F4CF1DF01C500D6E1D500E6E0F6A106AA9
:104480000FC010F00EC00FF00DC00EF00D6A0D50F1
:1044900018260E5019220F501A2210501B2213C03A
:1044A0000DF014C00EF015C00FF016C010F0190E6C
:1044B0005FEF22F0D89010320F320E320D32E82E1C
:1044C0005AEF22F00D5018260E5019220F501A22C2
:1044D00010501B2215C016F014C015F013C014F0B4
:1044E000136A125017C00DF00E6A0D26000E0E2230
:1044F000820E0D241C6EFF0E0E201D6E95EF22F015
:10450000D890183619361A361B3616AE8AEF22F0B6
:104510008CEF22F08DEF22F01880D89013361436ED
:10452000153616361C06D8A01D061AAE9AEF22F0D4
:104530009CEF22F080EF22F0000E126E16AEA3EF79
:1045400022F0A5EF22F0C9EF22F0FF0E13140D6E3A
:10455000FF0E14140E6EFF0E15140F6E7F0E161440
:10456000106E0D500E100F101010D8B4BAEF22F0CC
:10457000BCEF22F0C0EF22F0010E126EC9EF22F064
:1045800018A0C5EF22F0C7EF22F0C9EF22F0BCEF70
:1045900022F01250D8B4CFEF22F0D1EF22F0F5EF95
:1045A00022F0010E1826000E19221A221B221BA02F
:1045B000DCEF22F0DEEF22F0F5EF22F018C00DF074
:1045C00019C00EF01AC00FF01BC010F010341032DA
:1045D0000F320E320D320DC018F00EC019F00FC0A0
:1045E0001AF010C01BF01C4A1D2A1DBE00EF23F05C
:1045F0001D5008E11C28D8A000EF23F002EF23F0A3
:104600000CEF23F0000E186E000E196E800E1A6E5D
:104610007F0E1B6E3AEF23F01DBE19EF23F01D50E5
:1046200006E11C04D8B017EF23F019EF23F025EFB3
:1046300023F0000E186E000E196E000E1A6E000E9A
:104640001B6E000E116E3AEF23F01CC017F0FF0E28
:104650001816FF0E19167F0E1A16000E1B1617A03D
:1046600034EF23F036EF23F037EF23F01A8ED89093
:1046700017301B6E11501B1218C005F019C006F040
:104680001AC007F01BC008F012000850800B156E0E
:10469000085008241C6E07AE50EF23F052EF23F0B1
:1046A00053EF23F01C801C50D8B459EF23F05BEF7C
:1046B00023F070EF23F01C28D8A461EF23F063EF00
:1046C00023F06BEF23F0000E056E000E066E000E59
:1046D000076E000E086E078E000E086E78EF23F04E
:1046E000000E056E000E066E000E076E000E086EC0
:1046F0000C50800B151A0C500C241D6E0BAE83EF62
:1047000023F085EF23F086EF23F01D801D50D8B4F1
:104710008CEF23F08EEF23F0A3EF23F01D28D8A415
:1047200094EF23F096EF23F09EEF23F0000E096E36
:10473000000E0A6E000E0B6E000E0C6E0B8E000E3D
:104740000C6EABEF23F0000E096E000E0A6E000E29
:104750000B6E000E0C6E09500A100B100C10D8A432
:10476000B4EF23F0B6EF23F0CEEF23F0000E056E8A
:10477000000E066E000E076E000E086E800E071209
:104780007F0E08121550081205C005F006C006F08D
:1047900007C007F008C008F011EF25F01C50D8A49E
:1047A000D4EF23F0D6EF23F0E0EF23F0000E056EF8
:1047B000000E066E000E076E000E086E11EF25F05B
:1047C0001D501CC00DF00E6A0D5E000E0E5A7F0EBD
:1047D0000D24166E000E0E20176E05C011F006C0D7
:1047E00012F007C013F008C014F0000E056E000EA2
:1047F000066E000E076E000E086E000E186E000E9C
:10480000196E000E1A6E000E1B6E000E1D6E41EF2B
:1048100024F01D50D8B40FEF24F011EF24F028EF4E
:1048200024F0D8901136123613361436D890053647
:104830000636073608361BAE20EF24F022EF24F0B0
:1048400023EF24F00580D890183619361A361B3617
:104850000950115C0A5012580B5013580C50145840
:10486000D8A035EF24F037EF24F040EF24F01B8C74
:104870000950115E0A50125A0B50135A0C50145A18
:104880001D2A190E1D6447EF24F049EF24F009EFAB
:1048900024F01150121013101410D8B452EF24F059
:1048A00054EF24F06CEF24F018806CEF24F0D890D3
:1048B00005360636073608361BAE61EF24F063EF87
:1048C00024F064EF24F00580D890183619361A3693
:1048D0001B361606D8A0170607AE71EF24F073EF4B
:1048E00024F057EF24F0000E1D6E1BAE7AEF24F07B
:1048F0007CEF24F0A0EF24F0FF0E18140D6EFF0ED5
:1049000019140E6EFF0E1A140F6E7F0E1B14106E0C
:104910000D500E100F101010D8B491EF24F093EF3B
:1049200024F097EF24F0010E1D6EA0EF24F005A0F7
:104930009CEF24F09EEF24F0A0EF24F093EF24F0FE
:104940001D50D8B4A6EF24F0A8EF24F0CCEF24F04B
:10495000010E0526000E06220722082208A0B3EF4A
:1049600024F0B5EF24F0CCEF24F005C00DF006C024
:104970000EF007C00FF008C010F0103410320F32E4
:104980000E320D320DC005F00EC006F00FC007F05C
:1049900010C008F0164A172A17BED7EF24F0175098
:1049A00008E11628D8A0D7EF24F0D9EF24F0E4EFDF
:1049B00024F0000E176E1668000E056E000E066ECF
:1049C000000E076E000E086E17BEF1EF24F01750B0
:1049D00006E11604D8B0EFEF24F0F1EF24F0FFEF7A
:1049E00024F0000E176E000E166E000E056E000EFF
:1049F000066E000E076E000E086E000E156E16C0D5
:104A00001CF01CA006EF25F008EF25F00BEF25F0B9
:104A1000078E0CEF25F0079ED8901C30086EC2EF71
:104A200023F012002B6E800E166E010E176E2B50A7
:104A30003DEC30F0FF0E166E010E176E2B503DEC64
:104A400030F0000E166E000E176E2B503DEC30F05D
:104A5000910E166E3C0E176E2B503DEC30F0000E92
:104A6000166E010E176E2B503DEC30F0FF0E166ED9
:104A7000000E176E2B503DEC30F0800E166E000EBF
:104A8000176E2B503DEC30F0000E166E010E176EB7
:104A90002B503DEC30F0000E166E2B50CBEC2FF06F
:104AA0002A6E130E166E2B50CBEC2FF02A6E130EBF
:104AB000166E2B50CBEC2FF02A6E130E166E2B5069
:104AC000CBEC2FF02A6E130E166E2B50CBEC2FF082
:104AD0002A6E130E166E2B50CBEC2FF02A6E130E8F
:104AE000166E2B50CBEC2FF02A6E130E166E2B5039
:104AF000CBEC2FF02A6E130E166E2B50CBEC2FF052
:104B00002A6E130E166E2B50CBEC2FF02A6E130E5E
:104B1000166E2B50CBEC2FF02A6E130E166E2B5008
:104B2000CBEC2FF02A6E130E166E2B50CBEC2FF021
:104B30002A6E130E166E2B50CBEC2FF02A6E130E2E
:104B4000166E2B50CBEC2FF02A6E130E166E2B50D8
:104B5000CBEC2FF02A6E130E166E2B50CBEC2FF0F1
:104B60002A6E130E166E2B50CBEC2FF02A6E130EFE
:104B7000166E2B50CBEC2FF02A6E130E166E2B50A8
:104B8000CBEC2FF02A6E130E166E2B50CBEC2FF0C1
:104B90002A6E130E166E2B50CBEC2FF02A6E130ECE
:104BA000166E2B50CBEC2FF02A6E130E166E2B5078
:104BB000CBEC2FF02A6E130E166E2B50CBEC2FF091
:104BC0002A6E130E166E2B50CBEC2FF02A6E130E9E
:104BD000166E2B50CBEC2FF02A6E130E166E2B5048
:104BE000CBEC2FF02A6E130E166E2B50CBEC2FF061
:104BF0002A6E1E0E0001A56FA50E166E000E176E12
:104C0000000E196E010E186E2B5038EC31F0600E4C
:104C1000166E010E176E000E196E0C0E186E2B50CC
:104C2000DDEC31F0FF0E166E010E176E2B503DECD1
:104C300030F0B60E166E2B50D2EC2EF0FF0E166E24
:104C4000000E176E2B503DEC30F00B0E166E010E61
:104C5000176E2B503DEC30F00B0E166E000E176EDB
:104C60002B503DEC30F0130E166E2B50CBEC2FF08A
:104C700001016051236E226A61512224286E000EC8
:104C80002320296E28C005F029C006F0076A086AAB
:104C9000000E65EC27F005C024F006C025F007C023
:104CA00026F008C027F024C01EF025C01FF026C043
:104CB00020F027C021F012008CC02EF08DC02FF004
:104CC0008EC030F08FC031F01EC02EF01FC02FF00C
:104CD00020C030F021C031F0810E226EFF0E236E15
:104CE0002EC024F02FC025F030C026F031C027F0B0
:104CF000180E80EF26F0D890273226322532243243
:104D0000E82E7BEF26F0245022242C6E000E232068
:104D10002D6E2DBE95EF26F02D5009E1170E2C5C5F
:104D2000D8A095EF26F097EF26F0A1EF26F01EC051
:104D30001EF01FC01FF020C020F021C021F064EF42
:104D400027F02DBEA6EF26F0A8EF26F018EF27F0EB
:104D50002CC022F0FF0E236EFF0E246E7F0E256EF8
:104D6000000E266E2266B7EF26F0BFEF26F026343F
:104D70002632253224322332222EB2EF26F023C0EF
:104D800028F024C029F025C02AF026C02BF0285096
:104D90002E14226E29502F14236E2A503014246EA4
:104DA0002B503114256E2250231024102510D8A426
:104DB000DCEF26F0DEEF26F0E0EF26F097EF26F0AE
:104DC0002EC022F02FC023F030C024F031C025F0D7
:104DD000200EF0EF26F0D8902532243223322232F2
:104DE000E82EEBEF26F02250231024102510D8B423
:104DF000FCEF26F0FEEF26F006EF27F028502E26D7
:104E000029502F222A5030222B503122281C226E6A
:104E1000291C236E2A1C246E2B1C256E22502E1654
:104E200023502F1624503016255031165CEF27F0F2
:104E30002EC022F02FC023F030C024F031C025F066
:104E4000200E28EF27F0D890253224322332223248
:104E5000E82E23EF27F02250231024102510D8A489
:104E600034EF27F036EF27F040EF27F0000E2E6EDC
:104E7000000E2F6E000E306E000E316E5CEF27F0CC
:104E8000D8902E34226E2F34236E3034246E313479
:104E9000256E2250231024102510D8B452EF27F08D
:104EA00054EF27F05CEF27F0000E2E6E000E2F6EF1
:104EB000800E306EBF0E316E2EC01EF02FC01FF060
:104EC00030C020F031C021F012000D6E0D50D8B46A
:104ED0006CEF27F06EEF27F090EF27F008BE75EF2C
:104EE00027F073EF27F090EF27F005C009F006C018
:104EF0000AF007C00BF008C00CF0091E0A1E0B1EBA
:104F00000C1E092A000E0A220B220C2209C00FF0E7
:104F10000AC010F00BC011F00CC012F098EF27F08F
:104F200005C00FF006C010F007C011F008C012F065
:104F30000550061007100810D8A4A1EF27F0A3EF22
:104F400027F0ADEF27F0000E056E000E066E000E86
:104F5000076E000E086E3EEF28F0960E0E6EB7EF4D
:104F600027F00E2AD8901232113210320F32000E72
:104F70000F14096E000E10140A6E000E11140B6E41
:104F8000FE0E12140C6E09500A100B100C10D8A44F
:104F9000CCEF27F0CEEF27F0B1EF27F0DCEF27F0D2
:104FA0000E2A010E0F26000E102211221222D89076
:104FB0001232113210320F32000E0F14096E000E31
:104FC00010140A6E000E11140B6EFF0E12140C6EEC
:104FD00009500A100B100C10D8A4F1EF27F0F3EFD2
:104FE00027F0D0EF27F0FBEF27F00E06D8900F3612
:104FF00010361136123611BE00EF28F002EF28F0FD
:105000000AEF28F0020E0E6008EF28F00AEF28F0F1
:10501000F5EF27F00EB00FEF28F011EF28F012EFA8
:1050200028F0119ED8900E320EC009F00A6A0B6A61
:105030000C6A09C00CF00B6A0A6A096A09500F125F
:105040000A5010120B5011120C5012120D50D8B4FD
:105050002CEF28F02EEF28F036EF28F008BE35EFC1
:1050600028F033EF28F036EF28F0128E0FC005F04D
:1050700010C006F011C007F012C008F01200000EB8
:105080001A6E000E196E000E136E000E126E4BEFAC
:1050900028F00C4A0D2A010E186E0CC0F6FF0DC048
:1050A000F7FFF86A0800F550200AD8B45AEF28F044
:1050B0005CEF28F07AEF28F0F70E0E6EFF0E0F6E01
:1050C0000CC0F6FF0DC0F7FFF86A0800F550106E2F
:1050D000116A0E5010260F501122115009E1050ED1
:1050E000105CD8A076EF28F078EF28F07AEF28F05F
:1050F000000E186E18C014F0156A14501510D8A4BC
:1051000084EF28F086EF28F049EF28F090EF28F0A0
:10511000000E136E010E126E0C4A0D2AC7EF28F016
:105120000CC0F6FF0DC0F7FFF86A0800F5500E6ED0
:105130000F6A0F50000AD8B4A0EF28F0C7EF28F08C
:105140000E502B0AD8B48CEF28F0060AD8B488EF9A
:1051500028F0C7EF28F019C005F01AC006F0000EBD
:10516000086E0A0E076EBBEC33F00CC0F6FF0DC0E4
:10517000F7FFF86A0800F550055E000E065A300E7B
:105180000524196E000E06201A6E8CEF28F0D00E42
:105190000E6EFF0E0F6E0CC0F6FF0DC0F7FFF86A23
:1051A0000800F550106E116A0E5010260F50112293
:1051B00011500AE10A0E105CD8A0E1EF28F0E4EFEC
:1051C00028F0010EE5EF28F0000E166E176A165053
:1051D0001710D8A4EEEF28F0F0EF28F0ABEF28F08E
:1051E00012501310D8A4F7EF28F0F9EF28F007EFCA
:1051F00029F019C00EF01AC00FF00E1E0F1E0E4A35
:105200000F2A0EC00CF00FC00DF00BEF29F019C0E3
:105210000CF01AC00DF0120018EC34F08C921A0E3B
:1052200001017A6FF80EE82EFED77A2FFCD700F036
:105230008C82020E01017B6F860E7A6F990EE82E2A
:10524000FED77A2FFCD77B2FFAD737EC08F0020E67
:1052500001017B6F040E7A6FBA0EE82EFED77A2F0B
:10526000FCD77B2FFAD700F0300E37EC34F0060E67
:1052700001017B6F130E7A6FAD0EE82EFED77A2FE9
:10528000FCD77B2FFAD700F000F0F28EF28C300EB4
:1052900012EC25F01EC098F01FC099F020C09AF0C3
:1052A00021C09BF098C005F099C006F09AC007F0A5
:1052B0009BC008F0000E096E000E0A6E200E0B6EE9
:1052C000410E0C6E45EC23F005C094F006C095F03D
:1052D00007C096F008C097F0000E1E6E400E1F6EBD
:1052E0009C0E206E450E216E98C022F099C023F0CE
:1052F0009AC024F09BC025F04AEC2AF0D8B083EF86
:1053000029F085EF29F09EEF29F0210E0001F36FBF
:10531000100EF46F98C0F5F099C0F6F09AC0F7F04F
:105320009BC0F8F094C0F9F095C0FAF096C0FBF07D
:1053300097C0FCF091EC33F0B5EF29F03E0E000180
:10534000F36F100EF46F98C0F5F099C0F6F09AC0A4
:10535000F7F09BC0F8F094C0F9F095C0FAF096C051
:10536000FBF097C0FCF091EC33F0060E01017B6F6F
:10537000130E7A6FAD0EE82EFED77A2FFCD77B2F57
:10538000FAD700F000F047EF29F058EF00F00734AB
:1053900008340E6E0E50D8A4D0EF29F0D2EF29F0C9
:1053A000DCEF29F0000E056E000E066E000E076E93
:1053B000000E086E49EF2AF005C009F006C00AF099
:1053C00007C00BF008C00CF0200EECEF29F0D890CD
:1053D0000C320B320A320932E82EE7EF29F009507D
:1053E0000D6E078EFF0E0516FF0E0616FF0E071632
:1053F000000E0816960E0E5E0EBE03EF2AF001EFA9
:105400002AF019EF2AF00E50800A970FD8B00BEF50
:105410002AF00DEF2AF00FEF2AF0D2EF29F0D89002
:1054200008320732063205320E3E0FEF2AF031EF16
:105430002AF01F0E0E641FEF2AF021EF2AF029EF49
:105440002AF0D2EF29F0D89005360636073608360E
:105450000E060E50D8A42FEF2AF031EF2AF023EFDA
:105460002AF00D50D8B437EF2AF039EF2AF041EF87
:105470002AF0081E071E061E056C000E06220722D3
:10548000082205C005F006C006F007C007F008C0F6
:1054900008F01200000E1E14266E000E1F14276E58
:1054A000800E2014286E7F0E2114296E265027109E
:1054B00028102910D8A45FEF2AF061EF2AF069EFD5
:1054C0002AF0000E1E6E000E1F6E000E206E000EE3
:1054D000216E000E2214266E000E2314276E800EFD
:1054E0002414286E7F0E2514296E265027102810AC
:1054F0002910D8A47EEF2AF080EF2AF088EF2AF056
:10550000000E226E000E236E000E246E000E256E1D
:1055100021AE8DEF2AF08FEF2AF098EF2AF01E6C63
:105520001F1ED8B01F2A201ED8B0202A800E215658
:1055300025AE9DEF2AF09FEF2AF0A8EF2AF0226C0B
:10554000231ED8B0232A241ED8B0242A800E255624
:10555000000E1E1A000E1F1A000E201A800E211AAD
:10556000000E221A000E231A000E241A800E251A8D
:1055700022501E5C23501F5824502058255021587B
:10558000D8B0C5EF2AF0C7EF2AF0CAEF2AF0D890BA
:10559000CBEF2AF0D880120090C00FF091C010F02D
:1055A00092C011F093C012F005C00FF006C010F0C9
:1055B00007C011F008C012F00FC009F010C00AF0C7
:1055C00011C00BF012C00CF0180EECEF2AF0D890BE
:1055D0000C320B320A320932E82EE7EF2AF009507A
:1055E0000D6E0E6A0D500E10D8A4F9EF2AF0FBEFE5
:1055F0002AF01BEF2BF0D8900F34096E10340A6E8E
:1056000011340B6E12340C6E09500A100B100C1072
:10561000D8A40DEF2BF00FEF2BF015EF2BF0000EB1
:10562000066E020E056E4AEF2BF0000E066E030E9C
:10563000056E4AEF2BF00D280E10D8A422EF2BF0A8
:1056400024EF2BF046EF2BF00FC009F010C00AF04A
:1056500011C00BF012C00CF0090ED89009360A36B2
:105660000B360C36E82E2DEF2BF009500A100B10DC
:105670000C10D8B43EEF2BF041EF2BF0010E42EFAF
:105680002BF0000E056E066A4AEF2BF0000E066E38
:10569000040E056E120005C00CF006C00DF007C028
:1056A0000EF008C00FF00906D8A00A06092806E186
:1056B0000A28D8A45EEF2BF060EF2BF06DEF2BF0F3
:1056C000000E066E000E056EB8EF2BF00C4A0D2A88
:1056D0000E4A0F2A0906D8A00A060CC0D9FF0DC031
:1056E000DAFFDF50D8B477EF2BF079EF2BF0A6EF8D
:1056F0002BF00EC0F6FF0FC0F7FFF86A0800F55058
:105700000009D8B486EF2BF088EF2BF0A6EF2BF032
:1057100009500A10D8B48FEF2BF091EF2BF0A6EFC1
:105720002BF00CC0D9FF0DC0DAFFDF500B6E0EC09E
:10573000F6FF0FC0F7FFF86A0800F5500B18D8B451
:10574000A4EF2BF0A6EF2BF066EF2BF00CC0D9FFE7
:105750000DC0DAFFDF500B6E0EC0F6FF0FC0F7FF73
:10576000F86A0800F5500B5C056E066AD8A00606BC
:1057700012000001A2A1BFEF2BF0C1EF2BF0CBEF85
:105780002BF019C010F01AC011F017C012F018C099
:1057900013F000EC32F01CBED0EF2BF0D2EF2BF068
:1057A000D8EF2BF01BC020F01CC021F0DCEF2BF059
:1057B000000E216E000E206E000E1F6E000E1E6E7B
:1057C000EEEF2BF0000E086E200E076E17C009F0EA
:1057D00018C00AF040EC2EF01E4A1F2A20501E5C12
:1057E0001F50800A1D6E2150800A1D58D8A0FBEF63
:1057F0002BF0FDEF2BF0E2EF2BF00001A2B103EF55
:105800002CF005EF2CF00FEF2CF019C010F01AC09F
:1058100011F017C012F018C013F000EC32F019C0EC
:1058200005F01AC006F0D9EC32F020500524176EAE
:1058300021500620186E1200000E0A6E08BE25EFD9
:105840002CF023EF2CF02BEF2CF0076C081ED8B0B7
:10585000082A010E0A6E06BE32EF2CF030EF2CF053
:1058600038EF2CF0056C061ED8B0062A010E0A1A75
:10587000000E0C6E000E0B6E07500810D8B443EFEC
:105880002CF045EF2CF06DEF2CF0010E096E4DEF72
:105890002CF0D89007360836092A08AE52EF2CF0C3
:1058A00054EF2CF049EF2CF0D8900B360C36075003
:1058B000055C08500658D8A060EF2CF062EF2CF081
:1058C00067EF2CF00750055E0850065A0B80D89001
:1058D00008320732092E54EF2CF00A50D8B473EF77
:1058E0002CF075EF2CF079EF2CF00B6C0C1ED8B06F
:1058F0000C2A0BC005F00CC006F0120023EC34F0AB
:105900000009D8B486EF2CF088EF2CF0C3EF2CF010
:1059100096EF2CF0ADEC34F0DFEF2CF0A9EC34F086
:10592000DFEF2CF0A1EC34F0DFEF2CF072C00EF0C2
:1059300073C00FF002D8A7EF2CF00500FA6E00013B
:105940006651FD6E6751FE6EFF6AFA501200106ECE
:10595000116A1150000AD8B4B0EF2CF092EF2CF07D
:105960001050010AD8B492EF2CF0030AD8B48AEF91
:105970002CF0010AD8B48EEF2CF0070AD8B492EFBD
:105980002CF092EF2CF0000183917DC0D9FF7EC0F6
:10599000DAFF7D4B7E2BDF50B1EC34F000017F0746
:1059A000D8A080077F518011D8A4D9EF2CF0DBEF6D
:1059B0002CF0DEEF2CF0060EDFEF2CF0030E1200C1
:1059C000840E5824D96EDA6A000EDA22000EDF6ED9
:1059D000ABA4EDEF2CF0EFEF2CF004EF2DF0840EE4
:1059E0005824D96EDA6A000EDA220001DF8202D86A
:1059F00004EF2DF00500FA6E01017451FD6E755132
:105A0000FE6EFF6AFA501200ABA209EF2DF00BEF09
:105A10002DF020EF2DF0840E5824D96EDA6A000E96
:105A2000DA220001DF8402D820EF2DF00500FA6EA3
:105A300001017251FD6E7351FE6EFF6AFA50120041
:105A4000840E5824D96EDA6A000EDA22DF50D8B4F8
:105A50002CEF2DF02EEF2DF03DEF2DF002D83BEF87
:105A60002DF00500FA6E01017051FD6E7151FE6E50
:105A7000FF6AFA5012003FEF2DF0A6EC33F012004F
:105A8000000E0A6E06BE49EF2DF047EF2DF04FEFE6
:105A90002DF0056C061ED8B0062A010E0A6E08BE4F
:105AA00056EF2DF054EF2DF05AEF2DF0076C081E35
:105AB000D8B0082A07500810D8B461EF2DF063EF72
:105AC0002DF087EF2DF0010E096E6BEF2DF0D890C1
:105AD00007360836092A08AE70EF2DF072EF2DF068
:105AE00067EF2DF00750055C08500658D8A07BEFF3
:105AF0002DF07DEF2DF081EF2DF00750055E085061
:105B0000065AD89008320732092E72EF2DF00A504B
:105B1000D8B48DEF2DF08FEF2DF093EF2DF0056CB5
:105B2000061ED8B0062A05C005F006C006F0120011
:105B3000000E05140D6E000E06140E6E800E071476
:105B40000F6E7F0E0814106E0D500E100F101010F7
:105B5000D8A4ADEF2DF0AFEF2DF0B7EF2DF0000E84
:105B6000056E000E066E000E076E000E086E000E2B
:105B700009140D6E000E0A140E6E800E0B140F6EBB
:105B80007F0E0C14106E0D500E100F101010D8A4B4
:105B9000CCEF2DF0CEEF2DF0D6EF2DF0000E096EEC
:105BA000000E0A6E000E0B6E000E0C6E09500518EA
:105BB0000FE10A5006180CE10B50071809E10C50D0
:105BC0000818D8B4E6EF2DF0E8EF2DF0EBEF2DF04C
:105BD000D890ECEF2DF0D8801200C3EC34F07DC0EB
:105BE000D9FF7EC0DAFFDF6E00017D4B7E2B7F0781
:105BF000D8A080077F518011D8B401EF2EF003EFB9
:105C00002EF008EF2EF0B5EC34F0050E3FEF2EF03D
:105C1000838713EF2EF095EC34F03FEF2EF099ECE4
:105C200034F03FEF2EF06CC00EF06DC00FF002D8D4
:105C300023EF2EF00500FA6E6051FD6E6151FE6E8D
:105C4000FF6AFA501200106E116A1150000AD8B49F
:105C50002CEF2EF00FEF2EF01050010AD8B40FEFFA
:105C60002EF0030AD8B40BEF2EF0010AD8B40BEFD4
:105C70002EF0070AD8B40FEF2EF00FEF2EF012001F
:105C800009500A10D8B447EF2EF049EF2EF052EF2A
:105C90002EF009500A10D8A450EF2EF052EF2EF03B
:105CA00057EF2EF007506AEC34F08AEF2EF020EE1A
:105CB00004F00950D9260A50DA22DE50DE10D8B49A
:105CC00064EF2EF066EF2EF081EF2EF020EE04F060
:105CD0000950D9260A50DA2210EE02F00950E126C6
:105CE0000A50E222DE50E65CE650800A0F6EDE507B
:105CF000800A0F58D8B07FEF2EF081EF2EF08AEF98
:105D00002EF020EE02F00950D9260A50DA22DE2ABF
:105D1000000EDD221200056E010E066E000183B535
:105D200094EF2EF096EF2EF0D0EF2EF005C07CF021
:105D30008393838583910E0E816F010E7B6FF40E2A
:105D40007A6F8387920E606F690E616F000E6C6FC1
:105D5000000E6D6F920E626F690E636F000E6E6FB4
:105D6000000E6F6F920E646F690E656F000E706F9C
:105D7000000E716F920E666F690E676F000E726F84
:105D8000000E736F8E0E686F690E696F000E746F70
:105D9000000E756FD5EC34F0E0EC33F0000E066EBB
:105DA000065012001B6E000E1D6E000E1C6E1B5066
:105DB0008BEC2EF00009D8B4E0EF2EF0E2EF2EF0DD
:105DC000D7EF2EF0720E0A6E660E0B6E1C0E0C6E66
:105DD000000E0D6E0CEC34F0160E056E000E066E05
:105DE000000E086E010E076ECEEC33F0000E0A6E48
:105DF000000E0B6E000E0C6E000E0D6E00EC34F0FB
:105E000091EC34F07BEC33F0E806D8B40AEF2FF0D5
:105E10000CEF2FF002EF2FF01DC018F01C50196E80
:105E20001850166E19C017F012000001838726EF74
:105E30002FF0A5EC34F052EF2FF0C1EC34F0030E4C
:105E400052EF2FF0A1EC34F052EF2FF06CC00EF0B7
:105E50006DC00FF002D836EF2FF00500FA6E6051DA
:105E6000FD6E6151FE6EFF6AFA501200106E116AEB
:105E70001150000AD8B43FEF2FF022EF2FF010504E
:105E8000010AD8B422EF2FF0030AD8B419EF2FF08B
:105E9000010AD8B419EF2FF0070AD8B41DEF2FF07C
:105EA00022EF2FF01200096E05500610D8B45BEFF8
:105EB0002FF05DEF2FF077EF2FF00950020D600EFD
:105EC000F324D96E000EF420DA6E05C0DEFF06C0A2
:105ED000DDFF0950020D6C0EF324D96E000EF42084
:105EE000DA6E07C0DEFF08C0DDFF8FEF2FF009502C
:105EF000020D600EF324D96E000EF420DA6E920EBD
:105F0000DE6E690EDD6E0950020D6C0EF324D96E43
:105F1000000EF420DA6E000EDE6E000EDD6E120052
:105F20009D9AC00E056E590E066E79EC34F09D9860
:105F3000880E056E640E066E74EC34F0080EB86EB2
:105F4000900EAB6E240EAC6ECF0EAF6E000EB06E28
:105F5000B20E056E690E066E83EC34F0760E056E99
:105F6000690E066E7EEC34F07C0E056E690E066ED0
:105F700088EC34F0000E0001A46F000E5A6E000E83
:105F8000596E080EFF6F000E586E000E576E000E11
:105F9000566E9D8A1200176E000E186E17508BEC0D
:105FA0002EF00009D8B4D7EF2FF0D9EF2FF0CEEFB5
:105FB0002FF09E0E0A6E660E0B6E180E0C6E000E03
:105FC0000D6E0CEC34F0160E056E000E066E000E13
:105FD000086E010E076ECEEC33F0000E0A6E000E56
:105FE0000B6E000E0C6E000E0D6E00EC34F091EC9A
:105FF00034F07BEC33F0E806D8B401EF30F003EF77
:1060000030F0F9EF2FF018501200D5EC34F0000109
:1060100083A10DEF30F00FEF30F01CEF30F023ECE8
:1060200034F00009D8B417EF30F019EF30F01CEF5E
:1060300030F00F0E0001816F00018151020D010E41
:10604000F324F66E100EF420F76EF86A000EF822B4
:106050000900F5CF12F00900F5CF13F002D83AEF9E
:1060600030F00500FA6E1250FD6E1350FE6EFF6A9E
:10607000FA5012000001816F1200186E18508BEC5C
:106080002EF00009D8B447EF30F049EF30F03EEF82
:1060900030F0460E0A6E660E0B6E170E0C6E000E7A
:1060A0000D6E0CEC34F0160E056E000E066E000E32
:1060B000086E010E076ECEEC33F0000E0A6E000E75
:1060C0000B6E000E0C6E000E0D6E00EC34F091ECB9
:1060D00034F07BEC33F0E806D8B471EF30F073EFB6
:1060E00030F069EF30F0120000018391020E826FF0
:1060F00082EF30F0A5EC34F0A6EF30F0A1EC34F0F4
:10610000A6EF30F070C00EF071C00FF002D892EF21
:1061100030F00500FA6E6451FD6E6551FE6EFF6A47
:10612000FA501200106E116A1150000AD8B49BEF99
:1061300030F07EEF30F01050020AD8B47AEF30F031
:10614000010AD8B47AEF30F07EEF30F01200EFC0E1
:1061500054F0F0C055F0000E00019D6F000E9C6FD2
:10616000C5EF30F0EDC03EF0EEC03FF0540E406E93
:10617000000E416EF1C042F0F2C043F0E0EC1EF0C0
:106180003E5000019C273F509D2354C0F6FF55C050
:10619000F7FFF86A0800F5500009D8A4D2EF30F0F4
:1061A000D4EF30F0B2EF30F09CC0EDF09DC0EEF0D7
:1061B0001200BF0E0D6EFF0E0E6E0BC00FF00CC066
:1061C00010F00D500F260E50102210500AE11A0E3A
:1061D0000F5CD8A0EEEF30F0F1EF30F0010EF2EFEF
:1061E00030F0000E116E126A11501210D8B4FBEF8D
:1061F00030F0FDEF30F004EF31F0200E0B100B6E9D
:106200000C500C6E08EF31F00BC00BF00CC00CF012
:10621000120007C00BF008C00CF005C00DF006C05E
:106220000EF00B50096E0C500A6E0B4A0C2A09C076
:10623000F6FF0AC0F7FF000EF86E0DC0D9FF0EC0C2
:10624000DAFF0D4A0E2A0F0EF76403D00800F5504E
:1062500005D0F6CFE9FFF7CFEAFFEF50DF6EDF5052
:10626000D8A435EF31F037EF31F011EF31F01200F3
:106270001A6E1A508BEC2EF00009D8B442EF31F0B0
:1062800044EF31F039EF31F016C005F017C006F0D9
:1062900018C007F019C008F0CEEC33F0000E0A6EFB
:1062A000000E0B6E000E0C6E000E0D6E00EC34F046
:1062B00091EC34F07BEC33F0E806D8B462EF31F0C7
:1062C00064EF31F05AEF31F01200056E0001FF511A
:1062D000D8B46DEF31F06FEF31F066EF31F09DB86B
:1062E00074EF31F076EF31F07AEF31F005C0ADFFA9
:1062F0008FEF31F09D98080E5A24D96EDA6A010E9C
:10630000DA2205C0DFFF5A2A070E5A648AEF31F0FD
:106310008CEF31F08EEF31F0000E5A6EFF079D8842
:106320001200010E0B6E200E05180610D8B49BEF5C
:1063300031F09DEF31F0B6EF31F0F70E076EFF0E42
:10634000086E05C009F006C00AF00750092608507B
:106350000A220A5009E1050E095CD8A0B2EF31F01B
:10636000B4EF31F0B6EF31F0000E0B6E0BC005F05C
:10637000066A1200000E221A000E231A000E241ABA
:10638000800E251A1EC005F01FC006F020C007F0C1
:1063900021C008F022C009F023C00AF024C00BF08D
:1063A00025C00CF080EC1CF005C01EF006C01FF0EC
:1063B00007C020F008C021F012001A6E1A508BECB2
:1063C0002EF00009D8B4E7EF31F0E9EF31F0DEEF5D
:1063D00031F016C005F017C006F018C007F019C05C
:1063E00008F0CEEC33F08DEC34F07BEC33F0E806C3
:1063F000D8B4FDEF31F0FFEF31F0F5EF31F01200DE
:10640000000E166E000E156E11EF32F014C007F07C
:10641000086A12C009F013C00AF040EC2EF0154AC9
:10642000162A15501024D96E16501120DA6EDF503E
:10643000146E1450D8A41FEF32F021EF32F006EFA3
:1064400032F01200146E010E156E000183B32BEFB3
:1064500032F02DEF32F042EF32F08383000E156EF2
:106460001450D8B436EF32F038EF32F03CEF32F05F
:10647000010E816F3EEF32F0020E816FCFEC34F0EF
:10648000F1EC33F015501200080E0001FF614BEFE4
:1064900032F04DEF32F063EF32F0080E5924D96E2E
:1064A000DA6A010EDA22DF50AD6E592A070E5964FE
:1064B0005CEF32F05EEF32F060EF32F0000E596EBA
:1064C000FF2B64EF32F09D98120020EE02F00E5088
:1064D000D9260F50DA22DECF05F0DDCF06F00EC050
:1064E000D9FF0FC0DAFFDECF07F0DDCF08F0CEEC2A
:1064F00033F0000E0A6E000E0B6E000E0C6E000ED6
:106500000D6E0CEC34F0020E1200BF0E076EFF0E83
:10651000086E05C009F006C00AF0075009260850A9
:106520000A220A500AE11A0E095CD8A09AEF32F04A
:106530009DEF32F0010E9EEF32F0000E056E066AFE
:1065400012000550061007100810D8B4AAEF32F058
:10655000ACEF32F0B4EF32F0000E051A000E061A5E
:10656000000E071A800E081A05C005F006C006F0D6
:1065700007C007F008C008F01200D00E076EFF0E2B
:10658000086E05C009F006C00AF007500926085039
:106590000A220A500AE10A0E095CD8A0D2EF32F0B2
:1065A000D5EF32F0010ED6EF32F0000E056E066A1E
:1065B000120005C007F006C008F0E1EF32F0054A0E
:1065C000062A05C0D9FF06C0DAFFDF50D8A4EBEFDA
:1065D00032F0EDEF32F0DFEF32F00750055C056E80
:1065E00008500658066E1200000E8D6E000E8C6E5E
:1065F000000E896E000E8A6E000E8B6E070E966E70
:1066000092689368BF0E946EFD0E956E7E681F0EA5
:106610007F6E000E7C6EF18E120001EE00F0700EA7
:10662000EE6AE806FDE100EE60F0550EEE6AE8065F
:10663000FDE15A6A596A586A576A566A5B905B92DA
:1066400000010CEF29F00EC005F00FC006F0000E9F
:10665000086E010E076ECEEC33F0000E0A6E000ECF
:106660000B6E000E0C6E000E0D6E0CEC34F0040E72
:1066700012000EC005F00FC006F0000E086E020EEC
:10668000076ECEEC33F0000E0A6E000E0B6E000E9D
:106690000C6E000E0D6E0CEC34F0020E12000EC0EB
:1066A00005F00FC006F0000E086E010E076ECEEC6E
:1066B00033F0000E0A6E000E0B6E000E0C6E000E14
:1066C0000D6E0CEC34F0020E12000EC005F00FC07F
:1066D00006F0000E086E020E076ECEEC33F0000ED0
:1066E0000A6E000E0B6E000E0C6E000E0D6E0CECA2
:1066F00034F0040E1200010E056E000183B383EF27
:1067000033F085EF33F08FEF33F083957C69D5EC70
:1067100034F0D1EC34F0D3EC34F082C005F0055005
:106720001200F50E0101786F000E796F000E000166
:10673000ED6F000EEE6FF3C0EFF0F4C0F0F0780EE6
:10674000F16F010EF26FA7EC30F01200000E58242A
:10675000D96EDA6A010EDA22AECFDFFF582A070EB1
:106760005864B5EF33F0B7EF33F0B9EF33F0000E04
:10677000586E562A120005500702F3CF09F0F4CFE5
:106780000AF005500802F3500A2606500702F3509B
:106790000A2609C005F00AC006F01200000183A70E
:1067A000D4EF33F0D6EF33F0DFEF33F005C07DF0F8
:1067B00006C07EF007C07FF008C080F0839712000B
:1067C000C6BAE5EF33F0E7EF33F0F0EF33F0000E49
:1067D000C76E080EC66E000EC56E130EC86EC68A52
:1067E0001200F7EF33F040EC34F005EC30F000012C
:1067F00083B3FDEF33F0FFEF33F0F3EF33F012002C
:106800000AC005F00BC006F00CC007F00DC008F080
:10681000020E53EC2FF012000AC005F00BC006F078
:106820000CC007F00DC008F0000E53EC2FF0120062
:10683000D7EC34F02DEC34F0F4EC32F06FEC34F0B3
:1068400090EC2FF01200C5BC28EF34F02BEF34F0A1
:10685000010E2CEF34F0000E1200000EC76E080E71
:10686000C66E000EC56E130EC86EC69A1200196E63
:106870008A0E166E19C017F0290E3DEC30F012008A
:106880009EA645EF34F047EF34F040EF34F01200AD
:10689000000183817C517C25B1EC34F0030E1200A1
:1068A00000018381D8807C35B1EC34F0050E1200F4
:1068B00000018393000E826F0E0E1200000183917F
:1068C000C5EC34F0040E120000018393000E826FB9
:1068D0000E0E1200066E065065EC31F01200600ECE
:1068E000D36E000E9B6E120005C0FDF006C0FEF0D8
:1068F000120005C076F106C077F1120005C072F1F2
:1069000006C073F1120005C074F106C075F11200E3
:1069100005C070F106C071F11200010E22EC32F0D8
:106920001200000E22EC32F01200B8EC34F0090E26
:106930001200B8EC34F00A0E1200B5EC34F0050E7B
:106940001200CBEC34F0000E1200CDEC34F0010E4E
:106950001200CDEC34F0020E1200CDEC34F0010E3A
:106960001200056E05C0C9FF1200C59AC588120045
:10697000C58AC5881200AB98AB881200A6EC33F02C
:1069800012009E861200C9501200C5861200050E24
:106990001200010E1200C5841200C5821200C580CB
:1069A00012009D961200C69A12009E961200D09E6A
:0469B00012001200BF
:020000040020DA
:08000000FFFFFFFFFFFFFFFF00
:020000040030CA
:0E000000FF081F1EFF0B81FF0FC00FE00F4017
:00000001FF
